:020000040800F2
:10000000D87B002031030008953B00082B32000804
:10001000593B000809100008E945000800000000ED
:100020000000000000000000000000007102000855
:100030004111000800000000CD020008BD3C00088E
:100040004B0300084B0300084B0300084B03000858
:100050004B0300084B0300084B0300084B03000848
:100060004B0300084B0300084B0300080D10000869
:100070001910000825100008311000083D10000874
:1000800049100008551000084B0300084B030008F6
:100090004B0300084B0300084B0300084B03000808
:1000A0004B0300084B0300084B0300084B030008F8
:1000B0004B0300084B0300084B0300084B030008E8
:1000C0004B0300084B0300084B0300084B030008D8
:1000D0004B030008E94200080143000819430008E7
:1000E0004B0300084B0300084B0300084B030008B8
:1000F0004B0300084B0300084B0300086110000885
:100100004B0300084B0300084B0300084B03000897
:10011000713E0008893E0008913D00084B0300082D
:100120004B0300086D100008791000084B0300080D
:100130004B0300084B0300084B0300084B03000867
:100140004B0300084B0300084B0300084B03000857
:100150004B03000885100008911000083143000887
:100160004B0300084B0300084B0300084B03000837
:100170004B0300084B0300084B030008000000007D
:100180004B0300084B03000800F002F800F060F891
:100190000AA090E8000C82448344AAF10107DA45E2
:1001A00001D100F055F8AFF2090EBAE80F0013F0D4
:1001B000010F18BFFB1A43F001031847FC8400002D
:1001C0001C85000010F8013B0A4413F0030408BF2B
:1001D00010F8014B1D1108BF10F8015B641E05D01B
:1001E00010F8016B641E01F8016BF9D1002D15D0D8
:1001F00010F8014B03F00C030C2BA1EB04040ABF15
:1002000010F8013BA4EB8314A4EB032405F10103D4
:1002100014F8016B5B1E01F8016BF9D5914238BFF0
:1002200010F8013BD1D3704700230024002500269D
:10023000103A28BF78C1FBD8520728BF30C148BF49
:100240000B6070471FB508F0C3F81FBD10B510BD97
:1002500000F0A6F91146FFF7F5FF06F02FF800F0C1
:10026000C4F903B4FFF7F2FF03BC00F0CBF90000C0
:100270002C4B19680868B0E8F04F80F30988BFF389
:100280006F8F4FF0000080F311887047000000006E
:1002900008480068006880F308884FF0000080F389
:1002A000148862B661B6BFF34F8FBFF36F8F00DF64
:1002B00000BF00BF08ED00E0DFF80C00016841F46A
:1002C00070010160704700BF88ED00E0EFF3098026
:1002D000BFF36F8F134B1A681EF0100F08BF20ED8D
:1002E000108A20E9F04F106009B44FF0500080F3FD
:1002F0001188BFF34F8FBFF36F8F07F0C9FC4FF02A
:10030000000080F3118809BC19680868B0E8F04F54
:100310001EF0100F08BFB0EC108A80F30988BFF3FD
:100320006F8F70471C000020EFF3058070470000BE
:100330000948804709480047FEE7FEE7FEE7FEE779
:10034000FEE7FEE7FEE7FEE7FEE7FEE704480549B5
:10035000054A064B70470000813D000889010008EE
:10036000D8730020D87B0020D8770020D8770020D1
:1003700053EA020C00F069802DE9F04B4FF00006C3
:10038000002B1FBFB3FA83F503FA05F424FA05F630
:100390005E4012BF1643B2FA82F502FA05F4C5F1C7
:1003A00020051EBF22FA05FC44EA0C04203556EA5B
:1003B000044C4FEA144418BF641C4FF000084FF07F
:1003C0000009904271EB030C39D3002919BFB1FA2F
:1003D00081F701FA07F6B0FA80F700FA07F6C7F1DD
:1003E00020071EBF20FA07FC46EA0C062037B6FBA2
:1003F000F4FCA7EB0507103F07F01F0BCBF120061D
:100400000CFA0BFB2CFA06F644BFB3460026202F4D
:10041000A4BF5E464FF0000B5BEA060C08BF4FF02E
:10042000010B19EB0B09ABFB027C48EB0608C01B68
:1004300006FB02CC0BFB03CC71EB0C01C1E70B46B6
:10044000024641464846BDE8F08B13B54FF0000028
:100450004FF00001AFF30080BDE81C407047032A55
:1004600040F2308010F0030C00F0158011F8013BD1
:10047000BCF1020F624498BF11F801CB00F8013BB8
:1004800038BF11F8013BA2F1040298BF00F801CB7C
:1004900038BF00F8013B11F0030300F02580083A53
:1004A000C0F0088051F8043B083A51F804CBA0E8AA
:1004B0000810F5E7121D5CBF51F8043B40F8043BFF
:1004C000AFF30080D20724BF11F8013B11F801CB34
:1004D00048BF11F8012B24BF00F8013B00F801CB05
:1004E00048BF00F8012B704710B5203AC0F00B80D0
:1004F000B1E81850203AA0E81850B1E81850A0E828
:100500001850BFF4F5AF5FEA027C24BFB1E8185081
:10051000A0E8185044BF18C918C0BDE810405FEAF1
:10052000827C24BF51F8043B40F8043B08BF70476D
:10053000D20728BF31F8023B48BF11F8012B28BF72
:1005400020F8023B48BF00F8012B70474FF0000233
:1005500000B5134694469646203922BFA0E80C50B9
:10056000A0E80C50B1F12001BFF4F7AF090728BF94
:10057000A0E80C5048BF0CC05DF804EB890028BF10
:1005800040F8042B08BF704748BF20F8022B11F039
:10059000804F18BF00F8012B7047704770477047B5
:1005A000754600F02BF8AE4605006946534620F02C
:1005B0000700854618B020B5FFF7C8FEBDE820400B
:1005C0004FF000064FF000074FF000084FF0000B0F
:1005D00021F00701AC46ACE8C009ACE8C009ACE8C2
:1005E000C009ACE8C0098D46704710B50446AFF3AA
:1005F00000802046BDE81040FFF733BE004870473A
:100600007473002001491820ABBEFEE726000200EB
:1006100070470000464910B54A6822F440324A60EB
:100620004A6843681A434A6001684A6822F4807243
:100630004A6001684A68036942EA03224A60016825
:100640004A6822F040724A6001684A6883681A4327
:100650004A6001688A6822F400628A6001688A68D8
:10066000C3681A438A60816A6FF07062D142016880
:100670008A6822F070628A6001688A680CD0836A96
:100680001A438A6001688A6822F040528A600168D1
:100690008A68C36A1A4301E022F040528A60016806
:1006A0008A6822F002028A6001688A68037E42EA50
:1006B00043028A6090F82010002901684A680FD030
:1006C00042F400624A6001684A6822F460424A606B
:1006D00001684A68174C436A04EB43331A4301E04C
:1006E00022F400624A600168CA6A22F47002CA6297
:1006F0000168CA6A838B104C04EB03531A43CA6225
:1007000001688A6822F400728A6001688A6890F839
:10071000303042EA43228A6001688A6822F48062AB
:100720008A6001688A68406942EA8020886010BD5A
:100730000023014000E0FFFF0000F0FF2DE9F04F33
:1007400000242DED048B83B00F46D0E909B9D0F811
:1007500010A0D0F8208086699A48D0ED038A90EDE9
:100760000A8AC06C012805D1B2EE040A68EE808ABC
:1007700028EE008A022F7BD903B0BDEC048BBDE8C4
:10078000F08F00BF38F91430DDB2BD4244D25AF8C0
:1007900024105AF82500F1EE680A0A1A00EE102A11
:1007A000B8EEC00AB4EEE00AF1EE10FA34DB00EE67
:1007B000102AB8EEC00AB4EEE80AF1EE10FA2BD80F
:1007C00000EE101AF8EEC00AB1EE480AF4EEC00AC4
:1007D000F1EE10FA08DD00EE901AF8EEE00AF4EE01
:1007E000C80AF1EE10FA17D300EE900AF8EEE00A0C
:1007F000F4EEC00AF1EE10FA08DD00EE100AB8EED1
:10080000C00AB4EEC80AF1EE10FA05D336F9141096
:1008100036F91500814229D0FF2B02D0FF2028F89D
:100820001400022D06D238F91500FF2802D0FF204F
:1008300028F8150036F9140048B1C0B206F07AF96C
:100840000021204602F08AFE002026F81400022D26
:100850000CD236F9150048B1C0B206F06BF9002190
:10086000284602F07BFE002026F81500641CE4B246
:10087000BC4287D300242046B1EE489A25E000BF51
:1008800036F81010F9B95AF8201000EE101AB8EE28
:10089000C00AB4EEC90AF1EE10FA08D300EE101A3D
:1008A000B8EEC00AB4EEC80AF1EE10FA0BDD00EEA5
:1008B000101A0BEB8401B8EEC00A81ED000A29F88A
:1008C0001400641CE4B2401CC0B2B842D8D3224623
:1008D0004946584600F04AFB0025641E6EE000BF02
:1008E00009EB450019F815B080780090BB4563D23C
:1008F0000098B84260D25AF82B0000EE100AB8EE09
:10090000C00AB4EEC90AF1EE10FA08D300EE100ADC
:10091000B8EEC00AB4EEC80AF1EE10FA4CDD009948
:100920005AF8211000EE101AB8EEC00AB4EEC90A47
:10093000F1EE10FA08D300EE101AB8EEC00AB4EEC9
:10094000C80AF1EE10FA37DD401A00EE100AF1EE97
:10095000680AB8EEC00AB4EEE00AF1EE10FA2BDB3A
:1009600000EE100AB8EEC00AB4EEE80AF1EE10FA92
:1009700022D804F0F3FA019026F81B00DDE900010B
:1009800026F81010009828F81B00009828F810B0DE
:10099000019838B10098401CC1B20BF10100C0B2FF
:1009A00006F05AFE5846019902F0D8FDDDE9000133
:1009B00002F0D4FD6D1CEDB26D1CEDB2A5428FDBD3
:1009C000DAE60000B414002038B5044600790025AA
:1009D00020B1012810D0FE281BD138BD204600F0E0
:1009E0001BF80146FE20012902D02071657138BD37
:1009F00001212171607138BD009502234FF44451EB
:100A00002046A26906F0DEFED4E90601022200F0CB
:100A10006BF8257138BD000070B504462F480022E0
:100A200003692F4800F5347123B1012B19D0022B33
:100A300032D133E0A04204D101212046FFF77EFEEF
:100A40000DE0A1420BD126490020A3698A6932F842
:100A5000102023F81020401C80B20228F5D3012278
:100A600015E0A04204D102212046FFF767FE32E0E4
:100A7000A14230D11A490020A3698A6932F81020B6
:100A800023F81020401C80B20228F5D323E0D4E9DB
:100A9000060100F077F90246104670BDA0420CD165
:100AA000104E002506EB45008178E8B202F056FDB5
:100AB0006D1C2D042D0CF5D00DE0A1420BD1084981
:100AC0000020A3698A6932F8102023F81020401C06
:100AD00080B20228F5D30222D9E70000B414002026
:100AE000AC1500202615002010B5002306E000BF3D
:100AF00030F8134021F813405B1C9BB29342F7D3AC
:100B000010BD000010B5002306E000BF50F82340E0
:100B100041F823405B1C9BB29342F7D310BD000009
:100B20002DE9F84F00220092D0E90954A246002492
:100B3000C66A036AC268204614E000BF33F9107029
:100B4000FF2F0DD152F8207000EE107A05EB8407CC
:100B5000B8EEC00A87ED000A2AF81400641CE4B25B
:100B6000401CC0B28842E9D3012C04D92246514628
:100B7000284600F0FBF9DFF814B1002047F6FF7CAF
:100B8000FF276346B946002146E000BF05EB81021E
:100B90009BED0A0AD2ED000AF4EEC00AF1EE10FA5B
:100BA00006DAB1EE401AF4EEC10AF1EE10FA31D8CD
:100BB0004A1CD2B2B1EE401A10E000BF05EB820829
:100BC000D8ED001AF4EEC01AF1EE10FA08DAF4EEDD
:100BD000C11AF1EE10FA03D9521CD2B2A242EDD3DF
:100BE000A14217D2A24215D205EB820898ED000A65
:100BF00070EE600A00EE103AB8EEC00AF4EEC00AD9
:100C0000F1EE10FA06D2BDEEE00A91460F4610EE64
:100C1000103A1BB2491CC9B2A142B7D363452ED0CA
:100C2000FF2F2CD0B9F1FF0F29D004280FD23AF8AA
:100C3000192000EB4001521C26F811203AF8172029
:100C400006EB4101521C4A80401C8B80C0B29FEDD4
:100C5000100A05EB8901042881ED000A05EB8701E4
:100C600081ED000A8CD30DE000EB4002401C26F819
:100C7000121006EB4202C0B25180918000E00021C8
:100C80000428F1D30098BDE8F88F0000B4140020C8
:100C90000000000038B504464079002520B1012845
:100CA0000CD0FE2819D138BD204600F019F80128D3
:100CB00002D06570FE202071607138BD00950C2354
:100CC00041F201212046E26A06F07CFD0128F4D1C0
:100CD000D4E90B010C22FFF707FF657138BD000056
:100CE00010B5044625482649026901F5347022B141
:100CF000012A15D0022A39D128E0A14201D10121CF
:100D000011E0A04232D11E490020E36ACA6A32F8DB
:100D1000102023F81020401C80B20C28F5D325E0C9
:100D2000A14204D102212046FFF7FAFE1EE0A042B4
:100D30001CD113490020E36ACA6A32F8102023F854
:100D40001020401C80B20C28F5D30FE0A1420DD03A
:100D5000A0420BD10A490020E36ACA6A32F8102087
:100D600023F81020401C80B20C28F5D3D4E90B01E5
:100D7000BDE810400C2200F005B80000B4140020BB
:100D8000AC15002070B504460020034609E000BF02
:100D900034F9135031F91360B54200D001205B1CC7
:100DA0009BB29342F4D370BD70B504460020034655
:100DB00009E000BF54F8235051F82360B54200D039
:100DC00001205B1C9BB29342F4D370BDF8B504467E
:100DD00040780026FE2520B1012815D0FE2821D11B
:100DE00022E0204600F02CF801280AD06088401C40
:100DF00080B26080FA2803D36680657026716571C1
:100E0000F8BD0120607018E0009604234FF44051B3
:100E10002046626906F0D6FCD4E903010222FFF7FE
:100E200071FE66806670F8BD6088401C80B260808C
:100E3000B0F57A7FF7D3668066702571DFE7000032
:100E400070B504464748484B0022056903F53470E5
:100E5000022125B1012D25D0022D4FD150E0A34212
:100E600004D16169E06806F089F819E0A04217D161
:100E70003D4A0020E568D36853F8203045F820301B
:100E80005369656933F8203025F8203001EB800381
:100E900055696669401CED5A0004F552000CE9D012
:100EA000012226E0A34209D16169E06806F066F8F4
:100EB00002226169E06806F011FA51E0A0424FD1C8
:100EC000294A0020E568D36853F8203045F82030DF
:100ED0005369656933F8203025F8203001EB800331
:100EE00055696669401CED5A80B2F5520228E9D373
:100EF00036E0D4E90301FFF757FF0246104670BD04
:100F0000A34213D10020E268636901EB800552F827
:100F10002020121423F82020E268636932F8202090
:100F2000401C80B25A530228EDD319E0A04217D1D9
:100F30000D4A0020E568D36853F8203045F820308A
:100F40005369656933F8203025F8203001EB8003C0
:100F500055696669401CED5A80B2F5520228E9D302
:100F60000222C6E7B4140020AC150020F0B500241E
:100F700026E000260123171B1CE000BF00EB8305C1
:100F8000D5ED000A15ED010AF4EEC00AF1EE10FAF3
:100F90000ED245ED010A85ED000A01EB430631F85A
:100FA00013C036F8025C26F802CC21F81350012653
:100FB0005B1CDBB29F42E1DC002E03D0641CE4B278
:100FC0009442D6D3F0BD0000F0B5002319E000250F
:100FD0000122CE1A0FE000BF00EB820750F822C0BA
:100FE00057F8044CA44504DA47F804CC40F82240F2
:100FF0000125521CD2B29642EEDC002D03D05B1CC0
:10100000DBB28B42E3D3F0BDFEE70000014800F005
:101010002BBA0000C0260020014800F025BA0000CD
:1010200000290020014800F01FBA0000002600201F
:10103000014800F019BA000060290020014800F0C2
:1010400013BA000060260020014800F00DBA00002D
:1010500040280020014800F007BA0000A028002026
:10106000014800F001BA000020270020014800F0EC
:10107000FBB90000C0290020014800F0F5B90000CC
:1010800080270020014800F0EFB90000202A00204E
:10109000014800F0E9B90000E027002001681823AA
:1010A000CAB2103AB2FBF3F2054B6FF30901032AFF
:1010B0009B5CC36500D9091D816508467047000027
:1010C0001C84000810B5014600208B698A6A4FF025
:1010D000C07453B1B3F5005F15D072B1012A0CD0C2
:1010E000022A0AD0032A09D104E01AB1012A06D043
:1010F000022A03D1C96AC90100D5012010BDC96AFD
:10110000A142FAD010BD002AF7D0012AF2D0022A5B
:10111000F3D0032AF3D010BD30B50468256825F458
:1011200080252560046863608368402B036803D0D2
:1011300099600068C26030BD9A600068C16030BDCF
:10114000704772B6FEE700009FED150A154A0029A8
:101150001FD100281DD003281BD202EB800090ED88
:10116000C20A1148016D71B10268A2F5DA436C3B05
:1011700009D1DFED0E0A60EE200A00EE101AB8EE7B
:10118000C01A80EE810AC06C20B1F2EE040A20EE93
:10119000200A7047F6EE000A30EE200A7047000081
:1011A0000000000050110020B414002000007A4418
:1011B00078B50024009490F83C20012A19D001222F
:1011C00080F83C200A6807230568092A13D9EE68CD
:1011D0000A3A02EB420293409E43EE600B788A6823
:1011E0000A3B03EB43039A400368DD682A43DA6055
:1011F00010E0022078BD2E6902EB420293409E432C
:101200002E610B788A6803EB43039A4003681D69DB
:101210002A431A614A681F23072A13D205686E6B96
:10122000521E02EB820293409E436E630B790A8842
:101230005B1E92B203EB83039A4003685D6B2A4303
:101240005A6327E005680D2A12D22E6BD21F02EBDB
:10125000820293409E432E630B790A88DB1F92B271
:1012600003EB83039A4003681D6B2A431A6311E062
:10127000EE6A0D3A02EB820293409E43EE620B79D6
:101280000A880D3B92B203EB83039A400368DD6A40
:101290002A43DA62164B0568144A9D4206D10D684E
:1012A000122D03D1556845F48005556005689D42AF
:1012B00018D10B68102B01D0112B13D1536843F4B4
:1012C00000035360096810290CD10A490A4A0968C9
:1012D000B1FBF2F101EB8101490000E0491E0091F0
:1012E0000029FBD180F83C40002078BD002301405C
:1012F000002001401800002040420F0070B504009B
:101300004FF0000503D0206C002610B107E001204B
:1013100070BD204600F01CF8666484F83C60206CC8
:10132000C00610D4206C20F4885040F002002064E5
:101330002046FFF76FF96664206C20F0020040F051
:101340000100206400E0012584F83C60284670BD5F
:1013500010B586B0044614216846FFF7F7F8114926
:10136000206888421BD110480021026842F4807234
:101370000260006800F4807005900B481438026821
:1013800042F002020260006800F0020005900320B3
:101390000090CDE901016946044800F0E9F906B082
:1013A00010BD00000020014044380240000402400B
:1013B0002DE9F0410446876D00F0DCFA064694F80A
:1013C00035000025022806D08020606584F834505E
:1013D0000120BDE8F0812068016821F0160101605C
:1013E0002068416921F080014161206C08B9A06C3E
:1013F00020B12068016821F00801016020680168BF
:1014000021F0010101600CE000F0B4FA801B052816
:1014100007D920206065032084F8350084F8345013
:10142000D7E720680068C007EED194F85C103F2031
:101430008840B860012084F8350084F834500020DA
:10144000C7E790F83510022903D0802141650120BB
:101450007047052180F835100068016821F001010E
:1014600001600020704700002DE9F84304464FF06A
:101470000009CDF8009063484FF41651A56D00683F
:10148000B0FBF1F72E6894F85C10082000FA01F127
:1014900031420FD021680A6852070BD50A6822F042
:1014A00004020A6094F85C108840A860606D40F007
:1014B0000100606594F85C104FF0010808FA01F033
:1014C000304208D021684969090604D5A860606DDA
:1014D00040F00200606594F85C10042088403042BF
:1014E00008D021680968890704D5A860606D40F0BC
:1014F0000400606594F85C1010208840304218D0D9
:1015000021680968090714D5A860206801684903A3
:1015100004D50068000308D5A16C07E00168C9057F
:1015200003D4016821F008010160216C09B1204653
:10153000884794F85C1020208840304231D02168E0
:101540000968C9062DD5A86094F8350005282068DB
:10155000016806D0490347D5006800031DD4616CBB
:101560001CE021F0160101602068416921F0800132
:101570004161206C08B9A06C20B12068016821F09D
:101580000801016094F85C103F208840A86084F84E
:10159000358084F83490216D1FE0E16B09B120465D
:1015A0008847606D00282BD0606DC00714D00520DF
:1015B00084F835002068016821F00101016000987D
:1015C000401C0090B84203D820680068C007F6D1DC
:1015D00084F8358084F83490E16C002910D001B093
:1015E0002046BDE8F04308470168C905D5D4016825
:1015F00021F01001016084F8358084F83490CCE744
:10160000BDE8F883180000202DE9F041044600F001
:10161000B1F906465CB1022084F83500002584F853
:1016200034502068016821F0010101600DE00120C3
:10163000BDE8F08100F09EF9801B052805D9202027
:101640006065032084F83500F2E720680068C00771
:10165000F0D12268116820480140D4E90103184301
:10166000D4E903363343184363691843A369184325
:10167000E3691843236A18430843616A042903D1C4
:10168000D4E90B1319430843106020684069666A67
:1016900020F0070130460E43012704280CD1A06A30
:1016A0000643E06A40B12046FFF70CFD20B1402020
:1016B000606584F83570BAE7206846612046FFF718
:1016C000EDFC94F85C203F2191408160656584F8D1
:1016D00035700020ACE700003F8010F02DE9F041AC
:1016E0000446866D90F83400002501280DD00120B5
:1016F00084F8340094F835700020012F07D084F866
:10170000340002252846BDE8F0810220FBE70227CD
:1017100084F8357060652046FFF7FEFC94F85C1095
:101720003F208840B0602068016841F016010160E8
:10173000206C20B12068016841F008010160206838
:10174000016841F001010160DCE7000070B504466A
:1017500000F010F90546601C02D0044800780444EB
:1017600000F008F9401BA042FAD370BD0C00002025
:101770002DE9F84FDFF8BCA10022012503264FF028
:101780000F090AF1040BAAF1040E00BF0B6805FA59
:1017900002F42340A34270D10F7907F00307012F11
:1017A00001D0022F16D187684FEA420806FA08FCDA
:1017B00027EA0C07D1F80CC00CFA08FC4CEA070C1D
:1017C000C0F808C04768A7430C79C4F300149440DC
:1017D0003C4344600C79E443A4070AD0C4684FEA50
:1017E000420C06FA0CF7BC438F6807FA0CF7274344
:1017F000C7600C7904F00304022C12D1D40800EB6A
:10180000840CDCF820405707FF0E09FA07F824EA99
:101810000804D1F8108008FA07F848EA0408CCF860
:10182000208004684FEA420C06FA0CF7BC430F799B
:1018300007F0030707FA0CF7274307604C6814F416
:10184000403F70D03C4C276847F4804727602468AD
:1018500022F0030704F480440094384C07EB040C96
:10186000DCF8084897074FEA177809FA08F7BC43ED
:10187000334FB84202D1002724E054E0314FB84240
:1018800001D101271EE0304FB84201D1022719E0F3
:101890002E4FB84201D1032714E02D4FB84201D199
:1018A00004270FE02B4FB84201D105270AE02A4F49
:1018B000B84201D1062705E0284FB84201D10727D9
:1018C00000E0082707FA08F72743CCF80878DAF889
:1018D00000405746D1F804C09C435FEACC2C00D5A9
:1018E0001C433C60DBF800405F46D1F804C09C43D9
:1018F0005FEA8C2C00D51C433C60DEF80040774644
:10190000D1F804C09C435FEA8C3C00D51C433C608A
:10191000084F083F3C68D1F804C09C435FEACC3CC8
:1019200000D51C433C60521C102AFFF42FAFBDE8C9
:10193000F88F0000083C014044380240003001406C
:10194000000002400004024000080240000C024077
:10195000001002400014024000180240001C024027
:101960000069084000D0012070470AB181617047CA
:101970000904FBE701488068704700000C00002064
:1019800070B58AB0040005D094F8F90225680026E5
:1019900018B107E001200AB070BD84F8F862204653
:1019A00000F028F8032084F8F902E86BC00500D4A1
:1019B0002661206802F03EFD04F1100128220D4648
:1019C0006846FEF791FD94E80F0002F0D9FC012172
:1019D000206802F0DBFD282229466846FEF784FDD8
:1019E00094E80F0002F06AFD012084F8F90200205B
:1019F000D1E7000030B587B0044614216846FEF7F1
:101A0000A5FD23680020254C02210322B3F1A04F3D
:101A10001FD0234DAB421AD1236843F00203236049
:101A2000236803F00203059393030093CDE90110AB
:101A30000C20CDE9032069461A48FFF799FE20687B
:101A400040F000502060206800F00050059007B082
:101A500030BD236843F001032360236803F00103D2
:101A600005934FF4C0530093CDE901100A20CDE94E
:101A7000032069460C48FFF77BFE0848001D0168FB
:101A800041F08001016005481430016841F4804153
:101A90000160006800F48040D8E700003038024060
:101AA00000000440000402400000024070B5040041
:101AB00025D094F83D00002520B984F83C502046FC
:101AC00000F0B4F9242084F83D002068016821F07A
:101AD000010101602068016841F400410160206853
:101AE000016821F40041016000F06CFB4D4A61681F
:101AF000914201D84C4900E04C49884201D2012072
:101B000070BD4B492368B0FBF1F15E6826F03F06DB
:101B10000E435E606368934206D94FF4967359434F
:101B20004FF47A73B1FBF3F12368491C1E6A26F067
:101B30003F06314319626168914210D84900401E46
:101B4000B0FBF1F2521CC2F30B02042A01D20420B2
:101B500022E0B0FBF1F0401CC0F30B001CE0A268D7
:101B6000F2B301EBC10303EB0116431EB3FBF6F323
:101B70005B1C43F480431B0549D092B301EBC102C7
:101B800002EB0111401EB0FBF1F0401CC0F30B0052
:101B900040F4804040F400402168CA694CF6FF736D
:101BA0009A431043C861D4E90710014320680268D2
:101BB00022F0C00211430160D4E90301014320680F
:101BC000826848F2FF339A4311438160D4E90501EA
:101BD00008432168CA6822F0FF021043C86001E090
:101BE0000EE016E02068016841F001010160256403
:101BF000202084F83D00256384F83E50002070BD0D
:101C000001EB4106431EB3FBF6F35B1CB3E7012077
:101C1000C2E701EB4101401EB0FBF1F0401CC0F3F4
:101C20000B00B7E7A086010080841E0000093D007C
:101C300040420F002DE9FF4F83B09A46DDE911972E
:101C400093460446DDF84080FFF794FE054694F87D
:101C50003D00202870D119230122714920460095AA
:101C600001F07AFB0028F5D194F83C00012863D0FC
:101C7000012084F83C0020680168C90703D101688D
:101C800041F0010101602068016821F400610160F8
:101C9000222084F83D00402084F83E00002626647F
:101CA000C4F82480A4F82A90608D20855D48E06205
:101CB000CDE9007553465A462046049901F0CEFA04
:101CC00000287CD1208DD0B1012821D002282068A5
:101CD00024D0416980690090208D032869D80128AB
:101CE0002BD0514902283B464FF00002009559D0B5
:101CF0008846204601F030FB002860D13CE0206897
:101D0000416981690091016841F40071016077E0E7
:101D10002068016821F480610160F0E7016821F426
:101D2000806101602068016841F400610160206801
:101D300041698069009063E06FE02A463946204699
:101D400001F089FB98BB20680069616A08704EE069
:101D50002068016841F40071016020680069616ACF
:101D60000870606A401C6062218D491E2185618D6A
:101D7000491E6185216838E02068016821F480618E
:101D8000016020680069616A0870606A401C6062D6
:101D9000208D401E2085608D401E60853B460022C0
:101DA00041460095204601F0D7FA00B9D0E706E099
:101DB000FFE72A463946204601F04DFB18B10120C5
:101DC00007B0BDE8F08F20680069616A0870606A3A
:101DD000401C6062218D491E2185618D491E6185EF
:101DE00021684A69D24352070AD409690170606ABE
:101DF000401C6062208D401E2085608D401E6085E5
:101E0000208D00287FF468AF202084F83D0084F8FE
:101E10003E6084F83C600020D2E70220D0E700005A
:101E2000020010000000FFFF0400010010B586B0A2
:101E3000044614216846FEF789FB1449206888424D
:101E400021D113480021026842F0020202600068BA
:101E500000F0020005904FF4407000901220CDE990
:101E60000101032003900420049069460948FFF70C
:101E70007FFC07481030016841F4001101600068E0
:101E800000F40010059006B010BD000000540040A2
:101E90003038024000040240024881680278114450
:101EA000816070470C0000200B4810B5016841F4B8
:101EB00000710160016841F480610160016841F4D2
:101EC00080710160032000F09FF80F2000F006F8F9
:101ED00000F050F8002010BD003C024030B505462F
:101EE0001F4887B00024016841F0100101600068BC
:101EF00006A900F01000009001A800F043F9049832
:101F0000A8B100F05FF940001649174AB0FBF1F1A3
:101F10001648491E026040F2E732C0E90324C0E9D6
:101F20000114846100F0A0FB040003D015E000F070
:101F300049F9E9E70D4800F0D9FB04000DD136203E
:101F400000F034F8102D07D200222946362000F088
:101F50003BF80748056000E0012407B0204630BD8B
:101F60004038024040420F000010004088300020FE
:101F7000100000200C4882B0016841F480410160EB
:101F8000006800F4804000900748001F016841F09D
:101F9000805101600068002200F0805000900F2105
:101FA000901E02B000F010B844380240002809DB4F
:101FB00000F01F02012191404009800000F1E02063
:101FC000C0F8001170470000F0B40E4B1B680C46BF
:101FD000C3F30223C3F10705042D00D90425191DFD
:101FE000072901D2002300E0DB1E012606FA05F1D5
:101FF000491E214099409E40761E16403143F0BC58
:1020000002F032BC0CED00E0064900F0070208685F
:102010004FF6FF03184040EA0220034A10430860CD
:10202000704700000CED00E00000FA05BFF34F8F91
:1020300005480168054A01F4E06111430160BFF3FE
:102040004F8F00BFFDE700000CED00E00400FA0533
:102050002DE9F0470E46050065D0DFF81481D8F869
:102060000000F7B200F00700B04207D288F8007015
:10207000D8F8000000F00700B04254D128683D4C69
:10208000810712D5400703D5206840F4E050206056
:102090002878000703D5206840F46040206020685D
:1020A000A96820F0F000084320602878C0072DD0F0
:1020B000304968680839012812D0022813D0032853
:1020C00011D00968890700292DDA216821F0030160
:1020D00001432160FFF74EFC814641F2883A0EE051
:1020E00009688903EFE709688901ECE7FFF742FC1B
:1020F000A0EB0901514502D90320BDE8F087206813
:10210000696800F00C00B0EB810FEFD1D8F8001037
:10211000404601F00701B14207D90770006800F09E
:102120000700B04201D00120E7E72878400705D535
:102130002068E96820F4E050084320602878000710
:1021400006D52068296920F4604040EAC10020607B
:1021500000F058F82168084AC1F30311515CC840E7
:102160000649086006480068FFF7B8FE0020C4E78B
:10217000003C024008380240248400081800002077
:10218000100000200F2202600C4A136803F00303C2
:102190004360136803F0F0038360136803F4E053B3
:1021A000C36012684FF4E05303EAD20202610448AC
:1021B000006800F00700086070470000083802401F
:1021C000003C02400448054900680968044AC1F31C
:1021D0008221515CC8407047180000200838024036
:1021E000348400080448054900680968044AC1F3BA
:1021F0004231515CC8407047180000200838024046
:1022000034840008154810B5006810F00C0214481A
:1022100013D01449042A0FD0082A0ED10F4C241FC2
:102220002268236802F03F025B0207D52068C0F3F2
:102230008810A0FB010106E0084610BD2168C1F32B
:102240008811A1FB00010023FEF792F82168C1F379
:102250000141491C4900B0FBF1F010BD08380240B3
:102260000024F40040787D012DE9F84F04006ED081
:102270002078DFF84C93C007A9F104054AD009F192
:1022800004000168C1F38101012908D00068C0F38E
:10229000810002280AD1D9F80000400206D528683A
:1022A000800337D560680028E1D033E06068B0F57E
:1022B000803F10D0B0F5A02F286810D020F48030D7
:1022C0002860286820F4802028606068A8B1FFF7A3
:1022D00051FB06460DE0286840F48030F4E740F4F6
:1022E00080202860F7E700BFFFF744FB801B6428CD
:1022F00073D828688003F7D50CE0FFF73BFB064650
:1023000005E000BFFFF736FB801B6428F0D8286883
:102310008003F7D42078DFF8AC8280074FF0000A02
:102320003ED5A748001D016811F00C0F08D00068C9
:10233000C0F3810002280BD1D9F80000400207D475
:102340002868800716D5E068012800D112E033E143
:10235000E068B8B10120C8F80000FFF70BFB0646A3
:1023600005E000BFFFF706FB801B0228C0D82868E5
:102370008007F7D52868216920F0F80040EAC100FD
:1023800028600DE0C8F800A0FFF7F4FA064604E064
:10239000FFF7F0FA801B02281FD828688007F7D4BF
:1023A0002078000722D5864F87486169703771B160
:1023B00001210160FFF7DEFA064604E0FFF7DAFAD2
:1023C000801B022809D838688007F7D50EE0C0F8CE
:1023D00000A0FFF7CFFA064605E082E0FFF7CAFA51
:1023E000801B02287DD838688007F7D42078400702
:1023F00068D5DFF8CCB100270BF13C0BDBF800000F
:10240000C0000BD4DBF8001041F08051CBF8001075
:10241000DBF80000012700F0805000906B4E306820
:10242000C00510D4306840F480703060FFF7A2FA25
:10243000009005E0FFF79EFA0099401A022850D854
:102440003068C005F6D55E4EA0686C3601280FD006
:102450000528306810D020F001003060306820F08E
:1024600004003060A068B8B1FFF784FA00900FE074
:10247000306840F00100F4E740F004003060F7E716
:10248000FFF778FA0099411A41F28830814266D804
:1024900030688007F4D50EE0FFF76CFA009007E093
:1024A000FFF768FA0099411A41F28830814256D804
:1024B00030688007F4D42FB1DBF8001021F0805190
:1024C000CBF80010A069C8B33D49091D0968C1F3E4
:1024D000810102294AD00228504607D0C8F860007E
:1024E00000E03CE0FFF746FA04463BE04746C8F808
:1024F0006000FFF73FFA064605E000BFFFF73AFA33
:10250000801B02282BD828688001F7D4D4E9070162
:102510000843A16A2E4A490802EB0141626A41EA76
:102520008211084394F82C1040EA0161C9F80010A8
:1025300001203866FFF71EFA044606E03EE000BFC1
:10254000FFF718FA001B022809D828688001F7D580
:1025500034E000BFFFF70EFA001B022802D9032067
:10256000BDE8F88F28688001F4D427E00128F7D06F
:10257000D9F80000E26900F4800191421CD1226A7E
:1025800000F03F01914217D147F6C071626A0140E5
:10259000B1EB821F10D1A26A4FF0FF3300F440313B
:1025A00003EB5202B1EB024F06D194F82C1000F06D
:1025B0007060B0EB016F01D00120D1E70020CFE7C0
:1025C0000438024000004742800E4742007000403D
:1025D0000000FFFF7047704770B590F83C20012A5B
:1025E00032D0012480F83C40022280F83D2003686C
:1025F0005A689D6822F070060A6832435A60134B8D
:1026000002689A4214D0B2F1804F11D0104B9A4216
:102610000ED0104B9A420BD00F4B9A4208D00F4B62
:102620009A4205D00E4B9A4202D00E4B9A4204D1E8
:10263000496825F080031943916080F83D400021EE
:1026400080F83C10084670BD022070BD00000140BB
:102650000004004000080040000C0040000401405D
:10266000004001400018004010B5040003D094F869
:102670003D0010B107E0012010BD002084F83C00AF
:10268000204600F01FF8022084F83D00211D20683C
:1026900001F08AFB012084F8460084F83E0084F8AB
:1026A0003F0084F8400084F8410084F8420084F838
:1026B000430084F8440084F8450084F83D0000207D
:1026C00010BD000008B500680649884208D10648D8
:1026D000016841F020010160006800F020000090D6
:1026E00008BD0000001400404038024090F83D1042
:1026F000012901D001207047022180F83D100168B6
:10270000CA6842F00102CA6000681149884214D0C8
:10271000B0F1804F11D00F4988420ED00E49884247
:102720000BD00E49884208D00D49884205D00D498A
:10273000884202D00C49884204D1816801F0070127
:10274000062903D0016841F00101016000207047B3
:10275000000001400004004000080040000C004060
:10276000000401400040014000180040704770B56F
:102770000446006801694FF00005C943890715D474
:10278000C168C943890711D4E91E0161012020777E
:10279000206880698007204602D0FFF7E7FF04E049
:1027A00000F098F8204600F096F825772068016937
:1027B000C943490717D4C168C943490713D46FF007
:1027C00004010161022020772068806910F4407FB5
:1027D000204602D0FFF7CAFF04E000F07BF8204655
:1027E00000F079F8257720680169C943090716D4F4
:1027F000C168C943090712D46FF0080101610420C0
:1028000020772068C0698007204602D0FFF7AEFF1E
:1028100004E000F05FF8204600F05DF825772068BE
:102820000169C943C90617D4C168C943C90613D48D
:102830006FF010010161082020772068C06910F452
:10284000407F204602D0FFF791FF04E000F042F8FD
:10285000204600F040F8257720680169C943C90780
:1028600008D1C168C943C90704D1891E0161204646
:1028700000F032F820680169C943090609D4C1682B
:10288000C943090605D46FF0800101612046FFF7B6
:10289000A1FE20680169C943490609D4C168C9433A
:1028A000490605D46FF040010161204600F01EF892
:1028B00020680169C94389060BD4C168C9438906E8
:1028C00007D46FF0200101612046BDE87040FFF79A
:1028D00082BE70BD7047704700680349884201D1CD
:1028E000FFF7DABA704700000010004070477047E9
:1028F00010B504460068406994F83D10C0F3C0105C
:10290000212911D180B12068143050E8001F21F036
:10291000800140E80012002AF5D1606B08B1FEF793
:1029200047FD204601F084FB2068406994F83E1082
:10293000C0F38010222911D180B12068143050E8F2
:10294000001F21F0400140E80012002AF5D1A06BE1
:1029500008B1FEF72DFD204601F043FB002010BD1D
:1029600070470000F8B5016804460868CA684B69FA
:1029700010F00F0F4FF000055AD003F0010602F4DB
:102980009077374365D0C10705D0D10503D5216CB9
:1029900041F001012164410705D5D90703D0216C1D
:1029A00041F002012164810705D5D90703D0216CCC
:1029B00041F004012164010707D502F020013143F1
:1029C00003D0216C41F008012164216C00293BD027
:1029D000800604D5900602D5204601F037FB20681A
:1029E0004069216CC0F3801001F0080101432046CA
:1029F0002BD001F0F6FA20684069400621D5206806
:102A0000143050E8001F21F0400140E80012002A75
:102A1000F5D1A06BA8B16C490165A06BFEF711FD63
:102A2000002811D0A06B016D01B0BDE8F04008474F
:102A300083060ED593060CD52046BDE8F84001F07C
:102A400005BB2046FFF78CFFF8BDFFF789FF256423
:102A5000F8BD266B2023012E79D1C60677D5D60680
:102A600075D50868486800904869400640D5A16B54
:102A7000086840680004000CEAD0A28D8242E7D9C1
:102A8000E085C869B0F5807F2DD020680C3050E813
:102A9000001F21F4807140E80012002AF5D120685F
:102AA000143050E8001F21F0010140E80012002A14
:102AB000F5D12068143050E8001F21F0400140E8B3
:102AC0000012002AF5D184F83E30256320680C30CE
:102AD00050E8001F21F0100140E80012002AF5D153
:102AE000A06BFEF765FCA08DE18D401A81B229E054
:102AF000A08DE18D401A81B2E08D0028A8D0002978
:102B0000A6D020680C3050E8002F22F4907240E8E4
:102B10000026002EF5D12068143050E8002F22F056
:102B2000010240E80026002EF5D184F83E302563EE
:102B300020680C3050E8002F22F0100240E80023FB
:102B4000002BF5D12046FFF7D2FEF8BDFFE70506C2
:102B50002BD5150629D594F83D002128F5D1A0687C
:102B6000B0F5805F01D12069B0B1206A411C2162BB
:102B7000216800784860E08C401E0004000CE0846E
:102B8000E3D12068C16821F08001C1602068C1687C
:102B900041F04001C160D8E7206A0088C0F3080016
:102BA0004860206A801C2062E5E74006CDD55006CB
:102BB000CBD5CA68204622F04002CA6084F83D3076
:102BC00000F010FBC1E70000A13E000870B5040052
:102BD00004D094F83D00002510B106E0012070BD3E
:102BE00084F83C50204600F023F8242084F83D006F
:102BF0002068C16821F40051C160204601F086FAC6
:102C00002068016921F4904101612068416921F047
:102C10002A0141612068C16841F40051C160256406
:102C2000202084F83D0084F83E00002070BD0000A4
:102C30002DE9F04F87B0044614216846FDF786FC65
:102C4000FE48FD4B1038D4F800C0FC4A022103278F
:102C5000002506154FF0080E4FF480794FF0400A1A
:102C60004FF0006B9C4548D1136843F40023136078
:102C7000126802F400220592026842F00402026027
:102C8000006800F004000590B8028DE8A340694692
:102C9000EB48FEF76DFDEC4FEA483860C7E901B537
:102CA000C7E903567D61C7E906593D6238467D6232
:102CB000FEF7AAFC08B1FEF744FAA763BC63E24F33
:102CC000E04860373030C7F808A0C7E903567D6197
:102CD000BD61FD613D627D62C7E9000B3846FEF7CC
:102CE00093FC08B1FEF72DFA67630022052134201A
:102CF000BC63FFF769F934206BE0D44B9C456DD180
:102D00001368A84643F480131360126802F480121B
:102D10000592026842F004020260026802F00402B6
:102D20000592026842F008020260006801A900F002
:102D3000080005904FF480500090022081E8A10027
:102D4000082004906946BE48FEF712FD042000905A
:102D500001A9022081E8A100082004906946BC482E
:102D6000FEF706FDB848B749C03030390160C0E908
:102D700001B5C0E903564561C0E9065905625F46E1
:102D80004562FEF741FC08B1FEF7DBF9AE48B14DF4
:102D9000C030A0638463AB48783085E88104C5E91E
:102DA0000386C5F81480C5F81880C5F81C80C5F8DE
:102DB00020802846C5F82480FEF726FC08B1FEF7DF
:102DC000C0F96563002205213520AC63FFF7FCF8EC
:102DD0003520FFF7EBF807B0BDE8F08F974BDFF831
:102DE00078821B1DC4455BD11A6842F010021A603C
:102DF0001A6802F010020592026842F002020260B4
:102E0000006800F002000590C0208DE8A3000720B4
:102E1000049069469148FEF7ABFCDFF83882904990
:102E200008F160084046C8F80010C0E901B5C0E9E3
:102E30000356C8F81450C0E90659C8F820505F4638
:102E4000C8F82450FEF7E0FB08B1FEF77AF9C4F8A1
:102E50003880C8F83840DFF8FC81814908F1C008A3
:102E600040467831C0E90356C8F81450C8F81850E5
:102E7000C8F81C50C8F8205088E88204C8F82450CC
:102E8000FEF7C2FB08B1FEF75CF9C4F834800022FB
:102E900005212520C8F83840FFF796F8252098E747
:102EA000DFF8C081C4454BD1136843F4003313608D
:102EB000126802F400320592026842F008020260D1
:102EC000006800F00800059060208DE8A30007204E
:102ED000049069465E48FEF74BFC5A48624F483002
:102EE0003860C7E901B5C7E903567D61C7E90659EE
:102EF0003D6238467D62FEF787FB08B1FEF721F997
:102F0000A763BC63584F4F4860376030C7F808A0CC
:102F1000C7E903567D61BD61FD613D627D62C7E920
:102F2000000B3846FEF770FB08B1FEF70AF967633D
:102F3000002205212620BC63FFF746F8262048E73B
:102F4000DFF82881C4455BD1136843F48023136004
:102F5000126802F480220592026842F008020260C0
:102F6000006800F0080005904FF440708DE8A30061
:102F70000720049069463648FEF7FAFBDFF8E88040
:102F8000304908F1C00818394046C8F80010C0E9B7
:102F900001B5C0E90356C8F81450C0E90659C8F88D
:102FA00020505F46C8F82450FEF72EFB08B1FEF70C
:102FB000C8F8C4F83880C8F83840DFF8B480214930
:102FC00040461831C0E90356C8F81450C8F81850E4
:102FD000C8F81C50C8F8205088E88204C8F824506B
:102FE000FEF712FB08B1FEF7ACF8C4F834800022FB
:102FF00005212720C8F83840FEF7E6FF2720E8E63D
:103000001C4A94457FF4E7AE1A6842F020021A6029
:103010001A6802F020020592026842F0040202607F
:10302000006800F004000590C0208DE8A3406946C8
:103030000348FEF79DFB1FE0004C00404038024073
:10304000000802404060024000260020005000407E
:10305000000C024020270020001001400004024024
:1030600040640240004400404028002000480040E6
:10307000602900200014014019481A4F18384FF0F9
:1030800020683860C7E90185C7E903567D61C7E953
:1030900006593D6238467D62FEF7B6FA08B1FEF782
:1030A00050F8A763BC630F4F0D4860376030C7E925
:1030B00003567D61BD61FD613D627D6287E801056A
:1030C0003846FEF7A1FA08B1FEF73BF86763002225
:1030D00005214720BC63FEF777FF472079E6000013
:1030E00040640240C029002090F83E30202B0ED1D1
:1030F00059B152B190F83C30012B08D0012380F82F
:103100003C300023036301F087B8012070470220A0
:10311000704790F83E30202B0ED159B152B190F843
:103120003C30012B08D0012380F83C30002303639E
:1031300001F0BCB801207047022070470449884262
:1031400004D10122BC390248FFF7E3BF70470000F9
:10315000F02400207047000070B5044690F83D0050
:10316000202836D191B38AB394F83C00012830D09E
:10317000012084F83C002162A284E28400252564B9
:10318000212084F83D00636B1348D863636B1348B8
:103190001864636B1248D864606B13460565266833
:1031A000606B321DFEF79AFA21686FF040000860EC
:1031B00084F83C502068143050E8001F41F0800132
:1031C00040E80012002AF5D1002070BDFFE7012081
:1031D000FBE70220F9E70000973F0008D93F00080D
:1031E000B13E0008416B09680A6822F001020A60DA
:1031F0000A4900680968884205D10948017821F028
:103200000201017070470549883909688842F9D17F
:1032100000224FF480610348FEF7A7BBF024002092
:1032200030200020000002407047FEE701684A6934
:10323000D24352050FD46FF480624A61002140F8F6
:10324000301F202242738173026942F0040202613E
:103250000173012070470020704700002DE9F84FEE
:103260000446006889460B9D01689846174641F45C
:10327000806101602068016841F4807101600095FF
:103280004FF0011B0022594620460A9B00F064F8CB
:103290004FF4007A40B120680068C00501D5C4F839
:1032A00040A00320BDE8F88F216809F0FE00086106
:1032B0002B46284920460A9A00F082F8F0BB206885
:1032C0004169806900902A4620460A9900F0F6F884
:1032D00040B1206C04283AD12068016841F40071A3
:1032E000016034E0FEB2B8F1010F09D02168380A5C
:1032F00008612A4620460A9900F0E0F80028E8D143
:10330000206806612A4620460A9900F0D7F800286E
:10331000DFD12068016841F48071016000950022CE
:10332000594620460A9B00F017F80028B3D12168BF
:1033300009F0FF0040F00100086100E007E02B46C3
:10334000044920460A9A00F03BF80028AAD0012040
:10335000A8E70000020001002DE9F0471E46904654
:103360000D460446C1F30747DDF8209008E0701CC5
:1033700006D0FEF7FFFAA0EB0900B0420FD876B1F5
:103380002068012F18D0806925EA00000004000C95
:1033900014D000214145EAD00020BDE8F08700208C
:1033A00044F8300F20216173A073216941F020019E
:1033B000216120730120F0E74069E5E70121E9E799
:1033C0002DE9F0479A4691460E46044600254FF0F7
:1033D0002008C1F3074725E020684069C043400545
:1033E00014D42068016841F40071016021686FF411
:1033F00080604861256384F83D8084F83E50206CED
:1034000040F00400206484F83C501FE0B9F1FF3F15
:1034100008D0FEF7AFFAA0EB0A0149450CD8B9F184
:10342000000F09D02068012F13D0806926EA000020
:103430000004000C0BD0CFE744F8305F84F80D8017
:10344000A573206940F02000206125730120BDE8AC
:10345000F0874069EAE72DE9F041002590460E46E5
:103460000446202717E04069C043C0060CD454F836
:10347000301B6FF01000486144F810596777A5774A
:10348000206A2062257717E0FEF774FAA0EB0800A7
:10349000B04208D83EB120684169C9434906E2D428
:1034A0000020BDE8F08144F8305F6773A5732069A0
:1034B00040F02000206125730120F2E770B5164628
:1034C0000D4604460DE02046FFF7B0FE08B101208E
:1034D00070BD681C05D0FEF74DFA801BA84207D8C6
:1034E00035B120684069C0430006ECD4002070BDAF
:1034F000002044F8300F20216173A073216941F04E
:10350000200121612073E2E770B56424054601299A
:1035100011D001F065FD6320401EFDD1284601F069
:103520006DFD611E491EFDD1284601F059FD641E46
:10353000641EFDD170BD01F061FD6320401EFDD110
:10354000284601F04DFD611E491EFDD1284601F0BF
:1035500055FD641E641EFDD170BD000070B50346AC
:1035600000200246012906D002290AD0032906D0EC
:10357000042907D101E0012204E0082202E004222C
:1035800000E00222082B15D2C3F1070101EBD1762E
:103590000B4DC6F34703042BEC5C0BD226F0010065
:1035A000081A10F0FF0F06D004F00F0141EA0210D4
:1035B000E854012070BD04F0F0001043F8E700006B
:1035C000411100207FB50024154800940194029415
:1035D0001249039401604FF48031C0E90114046181
:1035E000047680F820400F49C0E90A140125C5611E
:1035F000C46080F830404561FDF780FE08B1FDF7FA
:10360000A0FD0820CDE90005694602940448FDF7B5
:10361000CFFD002801D0FDF794FD7FBD00200140C3
:103620004C1F00200100000F394808B5016841F423
:1036300080010160016801F480010091016841F49A
:10364000001101600068002200F4001000900521C4
:103650000B20FEF7B9FC0B20FEF7A8FC0022052189
:103660000C20FEF7B1FC0C20FEF7A0FC0022052187
:103670000D20FEF7A9FC0D20FEF798FC0022052185
:103680000E20FEF7A1FC0E20FEF790FC0022052183
:103690000F20FEF799FC0F20FEF788FC0022052181
:1036A0001020FEF791FC1020FEF780FC002205217F
:1036B0001120FEF789FC1120FEF778FC002205217D
:1036C0002F20FEF781FC2F20FEF770FC0022052141
:1036D0003920FEF779FC3920FEF768FC002205212D
:1036E0003A20FEF771FC3A20FEF760FC002205212B
:1036F0004520FEF769FC4520FEF758FC0022052115
:103700004620FEF761FCBDE808404620FEF74EBCAF
:103710003038024010B58EB01C220B496846FCF7C9
:10372000E3FE0021684602F05BFE084C06491C22BD
:1037300020601C3107A8FCF7D7FE002107A802F083
:103740004FFE60600EB010BDE48300080000002052
:103750002DE9F04F87B014216846FCF7F7FE674863
:103760000025016841F010010160016801F01001BD
:103770000591016841F004010160016801F0040154
:103780000591016841F080010160016801F080014C
:103790000591016841F001010160016801F001013A
:1037A0000591016841F002010160016801F0020128
:1037B0000591016841F0080101600068DFF840A14F
:1037C00000F00800059000224FF67F015046FEF7FA
:1037D000CCF8DFF830B1002208215846FEF7C5F8D2
:1037E000012211464848FEF7C0F800224FF4AC61B0
:1037F0004548FEF7BAF848F2800900224946434896
:10380000FEF7B3F8012220214148FEF7AEF801246B
:103810004FF60400CDE90004029469465046039433
:10382000FDF7A6FF7B20CDE9000469465046CDE9AF
:103830000245FDF79DFF32200226CDE9000602AACF
:1038400003274FF00B0882E8A00169465846FDF7B0
:103850008FFF0820CDE9000469465846CDE90245AE
:10386000FDF786FF40F26150CDE900046946264825
:10387000CDE90245FDF77CFF8620CDE9000602AACE
:10388000694682E8A0012048FDF772FF1820CDE9C3
:103890000005694602941C48FDF76AFFA002CDE9C5
:1038A0000005694602945046FDF762FF4FF46050F0
:1038B000CDE9000602AA694682E8A0011448FDF796
:1038C00057FF46F20100CDE90005694602940F4812
:1038D000FDF74EFFCDE9009469460C48CDE902455D
:1038E000FDF746FF2020CDE9000402946946084810
:1038F0000394FDF73DFF07B0BDE8F08F303802407C
:10390000001002400008024000000240000C02408B
:10391000000402400D4810B50B4901600C4941609C
:1039200000214FF480428160C0E90312416181614E
:10393000C1610162FEF7BAF8002803D0BDE810406B
:10394000FDF7FFBB10BD000000540040941F002095
:10395000801A06001CB500240E4800940C490194FE
:1039600001605321C0E901144FF6FF718461C16009
:10397000FEF77AFE08B1FDF7E4FB009469460548BE
:103980000194FEF729FE002801D0FDF7DAFB1CBDEB
:1039900000140040E81F00200C4810B50A490160DF
:1039A0004FF4E1314160002181600C22C160C0E927
:1039B00004128161C161FFF709F9002803D0BDE855
:1039C0001040FDF7BEBB10BD004C00406824002035
:1039D0000C4810B50A4901604FF4E1314160002103
:1039E00081600C22C160C0E904128161C161FFF7EE
:1039F000EDF8002803D0BDE81040FDF7A2BB10BDD4
:103A000000500040AC2400200C4810B50A49016069
:103A10004FF4E1314160002181600C22C160C0E9B6
:103A200004128161C161FFF7D1F8002803D0BDE81D
:103A30001040FDF786BB10BD00100140F0240020AF
:103A40000C4810B50A4901604FF4E1314160002192
:103A500081600C22C160C0E904128161C161FFF77D
:103A6000B5F8002803D0BDE81040FDF76ABB10BDD3
:103A700000440040342500200C4810B50A4901607C
:103A80004FF4E1314160002181600C22C160C0E946
:103A900004128161C161FFF799F8002803D0BDE8E5
:103AA0001040FDF74EBB10BD0048004078250020B7
:103AB0000C4810B50A4901604FF4E1314160002122
:103AC00081600C22C160C0E904128161C161FFF70D
:103AD0007DF8002803D0BDE81040FDF732BB10BDD3
:103AE00000140140BC2500200B4810B54FF0A04148
:103AF00001600821816001210022C0E90312022136
:103B0000C0E90612FDF73CFF002803D0BDE81040D5
:103B1000FDF717BB10BD0000802A00200D4810B52E
:103B20000B4901600C2181600121C160002102224A
:103B30000161C0E906210162C1624163FDF720FF16
:103B4000002803D0BDE81040FDF7FBBA10BD00000F
:103B500000000440842D0020FEE700000C480B49C3
:103B600000F5417201604A61911C0268916102682E
:103B700000F58271D161026800F5017111620021C6
:103B8000A0F8041380F8061370470000BC1B002047
:103B900050110020FEE700000C4910B50B888C88FE
:103BA0000989234419440A4B89B240F2E57419602B
:103BB000024661430020C1F30B018A4204D142F264
:103BC000CD00C3E90120012010BD0000386F0020A6
:103BD0007C14002070B5174C01252078C0B1012855
:103BE00004D002280BD0032812D10CE0608808B161
:103BF00002202070A08860B10320207009E02046D8
:103C000000F01AF802E0204600F032F8012800D156
:103C10002570052001F0D2F9012802D1E088401C6E
:103C2000E080042001F0CAF9012802D12089401C5B
:103C3000208170BD5670002070B50C4C0146428842
:103C40006078002542B1521E4A8068B9092001F00F
:103C5000D5F90120607007E0012805D1092001F0A5
:103C6000BFF9002060700125284670BDF41C0020BB
:103C700070B50C4C014682882078002542B1521E56
:103C80008A8068B9092001F0B9F90120207007E0A5
:103C9000012805D1092001F0A3F900202070012599
:103CA000284670BDF41C0020012002F08DFBFBE7CC
:103CB000012002F089FB00F053FEF9E710B5502017
:103CC00080F31188BFF34F8FBFF36F8F04F0E0F8DC
:103CD00018B104494FF080500860002080F311882B
:103CE00010BD000004ED00E030B593B0302168460F
:103CF000FCF72CFC14210CA8FCF728FC1E4800251E
:103D0000016841F080510160006800F0805011901E
:103D10001A48016841F4804101600068022400F4FF
:103D20008040119001200090000401908001CDE9B5
:103D30000640192008904FF4A870CDE90904072027
:103D40000B906846FEF790FA08B172B6FEE70CA930
:103D50000F2081E831004FF4A0500F904FF48050B5
:103D6000109005210CA8FEF773F9002801D072B657
:103D7000FEE713B030BD0000403802400070004044
:103D80000248016841F470010160704788ED00E06D
:103D900003480168491C01600248FEF7E8BC0000C6
:103DA0000800002088300020F0B50268254C264D20
:103DB000264E274F274B4FF0804CA04209D060453C
:103DC00007D0A84205D0B04203D0B84201D09842F3
:103DD00004D122F0700E4A6842EA0E02A0421BD0C3
:103DE000604519D0A84217D0B04215D0B84213D0C0
:103DF000984211D0184DA8420ED0184DA8420BD0B1
:103E0000174DA84208D0174DA84205D0164DA8421C
:103E100002D0164DA84203D122F44075CA682A4345
:103E20004D6922F080022A4302608A68C2620A68F1
:103E30008262A04201D0984201D109690163012147
:103E40004161F0BD00000140000400400008004056
:103E5000000C0040000401400040014000440140CB
:103E60000048014000180040001C004000200040B5
:103E700010B5044800F03CFCBDE810400148FEF7D6
:103E800071BD00006824002010B5044800F064FCF7
:103E9000BDE810400148FEF765BD0000AC240020DD
:103EA00010B5806B0021C185C184FEF759FD10BD9E
:103EB00070B5846B2068406994F83D10C0F3C01061
:103EC0000025212904D118B1E584204600F0B0F87E
:103ED0002068406994F83E10C0F38010222904D174
:103EE00018B1E585204600F07CF8206C40F0100009
:103EF00020642046FEF734FD70BD10B50146806B8E
:103F000009680968C9052FD40021C18501680C31F1
:103F100051E8002F22F4807241E80023002BF5D1F4
:103F20000168143151E8002F22F0010241E800231A
:103F3000002BF5D10168143151E8002F22F0400226
:103F400041E80023002BF5D1202180F83E10016BC1
:103F5000012909D101680C3151E8002F22F010022B
:103F600041E80023002BF5D1016B012902D0FFF7B6
:103F7000E5F810BD818DFEF7BAFC10BD10B5806B61
:103F8000016B012902D0FFF7E5F810BD818D4908CA
:103F9000FEF7ADFC10BD10B50146806B09680968DD
:103FA000C90516D40021C1840168143151E8002FDD
:103FB00022F0800241E80023002BF5D101680C318A
:103FC00051E8002F42F0400241E80023002BF5D1D8
:103FD00010BDFFF707F910BD10B5806BFFF724F98E
:103FE00010BD01680C3151E8002F22F4907241E8B5
:103FF0000023002BF5D10168143151E8002F22F085
:10400000010241E80023002BF5D1016B012909D100
:1040100001680C3151E8002F22F0100241E8002322
:10402000002BF5D1202180F83E100021016370475C
:1040300001680C3151E8002F22F0C00241E8002352
:10404000002BF5D1202180F83D10704708B590F87D
:104050003E10222901D0022008BD82684FF480530F
:104060009A4201D1016921B1816A9A421BD04AB1B9
:104070000AE00268816A5268C2F308020A80816A13
:10408000891C08E0026972B10268526802F07F027E
:104090000A70816A491C8162C18D491E0904090C9C
:1040A000C18503D019E002685268F1E70168CA6867
:1040B00022F02002CA600168CA6822F48072CA60D5
:1040C00001684A6922F001024A61202180F83E100D
:1040D000016B012903D0FFF731F8002008BD002152
:1040E000016301680C3151E8002F22F0100241E811
:1040F0000023002BF5D101680A68D20602D50A68B0
:1041000049680091818DFEF7F2FBE6E770B5044641
:1041100000680169E26821F440511143016121699D
:10412000A068E26908436169114308432168CA68CD
:1041300049F20C639A430243CA6020684169A2694C
:1041400021F440711143416131492068884202D015
:104150003049884202D1FEF745F801E0FEF732F817
:10416000E2690023192164253226B2F5004F626806
:1041700028D0A0FB0101930F9200FCF7F9F801464B
:10418000B0FBF5F06FF01802504301EB800006EB36
:104190000010B0FBF5F000F0F002B1FBF5F002EB1F
:1041A0000012B1FBF5F06FF01803584301EB8000EB
:1041B00006EB0010B0FBF5F000F00F002168104492
:1041C000886070BDA0FB010192185B41FCF7D0F83C
:1041D0000146B0FBF5F00201B1FBF5F06FF01803FA
:1041E000584301EB800006EBC000B0FBF5F000F097
:1041F000F80002EB4002B1FBF5F0584301EB800000
:1042000006EBC000B0FBF5F000F00700D6E70000B9
:10421000001001400014014038B5816282850025FC
:10422000134604460564222084F83E00A26B1C4815
:10423000D063A26B1B481064A26B1B48D064A06BB8
:104240000A4605652168A06B091DFDF747FA20683D
:1042500001684068009084F83C50206948B12068AB
:104260000C3050E8001F41F4807140E80012002A31
:10427000F5D12068143050E8001F41F0010140E8FA
:104280000012002AF5D12068143050E8001F41F0D8
:10429000400140E80012002AF5D1002038BD00009E
:1042A000FB3E00087D3F0008B13E00088162828528
:1042B000C28500210164222280F83E2080F83C1053
:1042C000016921B10168CA6842F48072CA6001685C
:1042D0004A6942F001024A610068C16841F0200168
:1042E000C16000207047000010B5044800F07EF95E
:1042F000BDE810400148FEF735BB0000F024002067
:1043000010B5044800F09AF9BDE810400148FEF7E6
:1043100029BB00003425002010B5044800F0B6F990
:10432000BDE810400148FEF71DBB000078250020C5
:1043300010B5044800F044FABDE810400148FEF70B
:1043400011BB0000BC2500200C4810B590F8CC1023
:10435000D0F8C8209C309047084890F80011D0F859
:10436000FC20D0309047054890F83411D0F8302127
:10437000BDE8104000F5827010470000BC1B002013
:1043800070B5044606990A9E049D0D98012916D021
:10439000E06840F04000E060204600F02BF8A16BA0
:1043A0001EB321F48031A163012D07D1A16841F032
:1043B0000601A160A16841F02001A16070BDA16B60
:1043C00021F48031A163E168094A1140E160E168AC
:1043D00021F44011E160012803D1E06840F480102D
:1043E000E060204600F006F8DEE741F48031DAE7CD
:1043F000BFFFBDFF08B500220D490092009B5B1C6A
:1044000000938B420CD80369002BF7DA0092026903
:1044100042F001020261009A521C00928A4201D9C4
:10442000032008BD0269D207F5D1002008BD0000B5
:10443000400D0300816821F0010181600020704778
:1044400008B500220C490092009B5B1C00938B4234
:104450000AD80369002BF7DA009210220261009A51
:10446000521C00928A4201D9032008BD0269D2067B
:10447000F5D4002008BD0000400D030018B500234E
:104480000D4A0093009C641C009494420CD804696B
:10449000002CF7DA0093202343EA8111016100998F
:1044A000491C0091914201D9032018BD0169890678
:1044B000F5D4002018BD0000400D03002DE9F041A7
:1044C0000025DDF81880174604462E46C0F8005E29
:1044D000806B40F40010A063A06B20F40020A06368
:1044E000A06B20F48020A063E06BC00501D5012BF8
:1044F00004D0D4F8000420F0040103E0D4F8000450
:1045000040F004012046C4F800141021FFF7B6FF64
:1045100000B101252046FFF793FF00B101250020DF
:10452000411E06E004EB4012C2F80815C2F80C6503
:10453000401C8742F6D8A6616161E06BC00506D5D4
:104540004FF4007060620C48A0620C4804E08020C8
:1045500060620B48A0620B48C4F80001B8F1000F7C
:1045600003D1A06940F01000A061A069064908438A
:10457000A0612846BDE8F081000200010003E000D0
:1045800080006000E0004000080020A370B50446F1
:10459000C068002520F0C040E060012901D079B159
:1045A00020E0E06840F00050E0600120FDF7CEF828
:1045B00060696D1C10F0010F10D1322DF5D30DE0A4
:1045C000E06840F08040E0600120FDF7BFF86069DE
:1045D0006D1C10F0010F01D0322DF5D3322D01D01A
:1045E000002070BD012070BDFEE7000038B5114C01
:1045F0000168206881421CD10968C943C90618D4E2
:104600000168406800902046FEF772F9A06B0068D0
:10461000416809480122C1F5807180F85822A0F84C
:10462000561200F155012046BDE838401202FEF74F
:104630005BBD38BDF0240020AC15002038B5114C0E
:104640000168206881421CD10968C943C90618D491
:104650000168406800902046FEF74AF9A06B0068A8
:10466000416809480122C1F5807180F82825A0F829
:10467000261500F225312046BDE838401202FEF72B
:1046800033BD38BD34250020AC15002038B5164C9C
:1046900001682068814225D10A68D243D20616D427
:1046A0000168406800902046FEF722F9A06B006880
:1046B00041680E480122C1F180018272C17200F18D
:1046C0000C012046BDE838408022FEF70DBD0A6887
:1046D000D243520603D50968C943090602D40168CA
:1046E0004068009038BD00007825002056700020FA
:1046F00038B5174C01682068814227D10A68D24337
:10470000D20618D40168406800902046FEF7F0F801
:10471000A06B006841680F480122C1F5807180F8E4
:104720000623A0F8041300F501712046BDE83840C7
:104730001202FEF7D9BC0A68D243520603D50968B3
:10474000C943090602D401684068009038BD0000E2
:10475000682400205011002038B5174C01682068EB
:10476000814227D10A68D243D20618D40168406832
:1047700000902046FEF7BCF8A06B006841680F4827
:104780000122C1F5807180F80623A0F8041300F51A
:1047900001712046BDE838401202FEF7A5BC0A6848
:1047A000D243520603D50968C943090602D40168F9
:1047B0004068009038BD0000AC240020501100205B
:1047C00038B5164C01682068814225D10A68D24369
:1047D000D20616D40168406800902046FEF788F89B
:1047E000A06B006841680E480122C1F1800142724D
:1047F000017300F10D012046BDE838408022FEF72C
:1048000073BC0A68D243520603D50968C943090636
:1048100002D401684068009038BD0000BC2500202B
:10482000E47100201FB50D4B0FCB8DE80F000C4835
:104830000121027A12B1012A04D104E0052202709A
:10484000084A42600172817A012906D100218172F1
:10485000C27A40686946836A98471FBD90860008FF
:10486000E4710020C01C00200907090E002804DBA9
:1048700000F1E02080F80014704700F00F0000F114
:10488000E02080F8141D70470B49024600208B6D14
:104890000969062B0CD0082B09D10120002906D06C
:1048A0000320012903D10549914200D1012070471D
:1048B0000029FCD002207047B4140020AC15002061
:1048C0002DE9FE4F00278B468118B846B946B1F551
:1048D000804F3CD815460646DFF87CA022E000BF9A
:1048E00006EB080086B206F03F00C0F14004AC427F
:1048F00000D32C460A2000F04DFBDAF80C20DAF841
:1049000014100092CDE90141BAF804101023324688
:10491000DAF80000FDF78EF9070007D040F24111E8
:10492000AAF81810A5B1002FDAD011E00BEB09009E
:1049300022460A49FBF793FD09EB0400A0461FFA43
:1049400080F9A5EB080005042D0CC9D100E0012772
:104950003846BDE8FE8F0000B80A0020AC6E00208B
:10496000074810B50168491C016001F005FC00F022
:104970005DFCFFF72FF9BDE81040FFF753BF0000C3
:104980004C11002010B5002400212046FEF7E6FD62
:10499000641CE4B2082CF7D310BD000070B50C4DB8
:1049A000FF22134605F5807606E000BF10F8014BA4
:1049B0005C402B5D5340325D491EF7D24FF6FF70CD
:1049C00000EA022000F47F40184480B270BD00006D
:1049D0003C84000870B500242DED028B25469FED28
:1049E0001E8A2646D8B1012816D8401EC0B200F053
:1049F000ABFA00BF00EB85016D1CEDB24E630A2DD2
:104A0000F8D3002100EB8102491C82ED218AC9B252
:104A100082ED2C8A0B29F5D3BDEC028B70BD2046AC
:104A200000F092FA0146002001EB8002401CC0B267
:104A300056630A28F8D3002001EB8002401C82ED67
:104A4000218AC0B282ED2C8A0B28F5D3641C14F0A5
:104A5000FF04E4D0E0E700000000000030B50021D2
:104A6000134C0A460B4680B101280DD8401EC0B237
:104A700000EB800004EB001101EB4200521C83822A
:104A8000D2B203850A2AF7D330BD01EB81020020A0
:104A900004EB021202EB4005401CAB82C0B22B8536
:104AA0000A28F7D3491CC9B20229EED330BD000051
:104AB000A46F002010B50020064B052104461A1DE6
:104AC00023F8104022F81010401CC0B20228F7D37F
:104AD00010BD00002615002010B5B0F85A220024A1
:104AE0000A49A2F50453023B0ED1B0F85E2201241C
:104AF000A2F525435A3B07D10122A0F86022A1F874
:104B00006022104602F0CAFD204610BDAC15002000
:104B100010B5B0F85A2200210E2A05D10121A0F8C3
:104B2000B41202F0CDFD0121084610BD70B5044657
:104B3000B0F8B202002501280CD1B4F8C802012552
:104B400050B101280FD0022814D0002603281AD013
:104B5000A4F8C862284670BD204602F05BFB00281E
:104B6000F8D001200CE0204602F046FA0028F1D0EF
:104B7000022005E0204602F00FFB0028EAD00320C7
:104B8000A4F8C802E6E7204602F08EFA0028E1D039
:104B9000A4F8C862A4F8B2620025DBE7F0B50026ED
:104BA00090F8B9C2A1B0012304463146354601AAA6
:104BB000BCF1800F17D00CDCBF484FF00707BCF1E9
:104BC000090F74D2DFE80CF092A2B9D0737373F0BE
:104BD000EE00ACF1810CBCF1060FF2D2DFE80CF074
:104BE000152535455568B4F8B40208B1812056E161
:104BF000D4F898026421B0FBF1F201FB1200002806
:104C000002D1204602F016FC53E1D4E9A60181420C
:104C100002D90A1A282A04D28142F5D2401A282839
:104C2000F2D3204602F0F6FA3EE0D4E9A601814232
:104C300002D90A1A282A04D28142E5D2401A282829
:104C4000E2D3204602F0A8FA2EE0D4E9A601814280
:104C500002D90A1A282A04D28142D5D2401A282819
:104C6000D2D3204602F05DFA1EE0D4E9A6018142CB
:104C700002D90A1A282A04D28142C5D2401A282809
:104C8000C2D3204602F0B8F90EE0D4E9A601814271
:104C900002D90A1A282A04D28142B5D2401A2828F9
:104CA000B2D3204602F000FA00282ED101E1F9E04B
:104CB000D4E9A601814202D90B1A282B04D28142E1
:104CC00013D2401A282810D302230020411C09B215
:104CD00022F8101008469942F8DB43F601112046ED
:104CE000009502F0D5FD84F8B952E2E0D4E9A601BE
:104CF000814202D90A1A282A04D2814251D2401A8A
:104D000028284ED3204602F06BFBC5E0D4E9A60369
:104D1000834202D91F1A282F04D2834241D2C01ADB
:104D200028283ED322F81150491C09B20429F9DB86
:104D30008BB24FF440510095ABE0D4E9A603834217
:104D400002D91F1A282F04D283422AD2C01A282837
:104D500027D322F81150491C09B20229F9DB8BB282
:104D60004FF44451009594E0D4E9A603834204D95A
:104D7000A3EB000CBCF1280F04D2834211D2C01A5D
:104D800028280ED322F81150491C09B20C29F9DB4E
:104D90008BB241F201212046009502F079FD84F8A2
:104DA000B97286E014E0FFE7D4E9A6128A4202D97C
:104DB000571A282F04D28A427BD2891A282978D3FD
:104DC0000088ADF8040001AA4FF48051009560E01E
:104DD000D4E9A6128A4202D9531A282B04D28A4255
:104DE00067D2891A282964D38188ADF80410018913
:104DF000ADF8061090ED030A162301AABDEEC00A15
:104E000010EE101AADF8081030F8101FADF80A10A7
:104E10008188ADF80C100189ADF80E108189ADF8CC
:104E20001010018AADF81210818AADF8141090EDBF
:104E3000060ABDEEC00A10EE101AADF81610018F6A
:104E4000ADF81810818EADF81A10018EADF81C1057
:104E5000818BADF81E10018CADF82010818CADF85F
:104E6000221040F23531ADF82410ADF82610818FB4
:104E7000ADF82810B0F84010ADF82A10B0F8441082
:104E8000ADF82C10B0F84800ADF82E0041F20A0140
:104E90000095204602F0FCFC94F8B902401C84F80E
:104EA000B90206E0B4F8B602012802D1A4F8A4328F
:104EB000012621B03046F0BDB414002070B5044680
:104EC000B0F8A402002501280FD109480125006986
:104ED00010B10220A4F8BC02B4F9BC12204602F0C2
:104EE00021FA10B10020A4F8A402284670BD0000E9
:104EF000B414002070B5054690F84C000024122828
:104F000008D001242846FFF749FE012802D11220CB
:104F100085F84C00204670BD70B505460948002450
:104F20000068A0F50051CD3909D101242846FBF7CE
:104F30004DFF2846FBF748FD2846FBF7ABFE204611
:104F400070BD00008414002000487047C06D002030
:104F5000014890F8290370475011002010B5002037
:104F60000B4A014640F2231302EB4104B4F85C40C3
:104F70009C4207D002EB4100A0F85C3002EB8100BC
:104F8000007E10BD491CC9B20429EDD310BD00003C
:104F9000B414002000B501464FF47A7203E01046C5
:104FA000491E00F003F80029F9D100BD00EB800094
:104FB000C00000E0401E0028FCD17047064910B533
:104FC000064A31F8101052F82000FCF7C9FC0028FE
:104FD00000D0012010BD000084860008A41B002022
:104FE0000449054A31F8101052F820000122FCF75C
:104FF000BCBC0000708600087C1B00200449054AE8
:1050000031F8101052F820000022FCF7AEBC00006E
:10501000708600087C1B002010B500782C4C0328FB
:105020000BD0042824D0052851D171B3012947D0D1
:1050300010294FF0010244D137E039B101290CD0D9
:10504000102901D011290CD0012200E000224021BA
:105050002046FCF78AFC002201E0002202E0202129
:1050600029E0012240212046FCF77FFC0122F6E7DF
:1050700029B1012905D0102908D011290DD000220D
:1050800005E000220AE0082115E00DE001221021D0
:105090002046FCF76AFC0022F5E701221021204699
:1050A000FCF763FC0122EEE7002202212046FCF718
:1050B0005CFC002201212046BDE81040FCF755BCF5
:1050C000002202212046FCF750FC0122F2E710BD2D
:1050D0000010024070B5007814460D46012809D032
:1050E000022809D050B1032811D0042811D0052876
:1050F00011D013E00A480FE00A480DE001229102A6
:105100000948FCF732FC22462946084804E00848D2
:1051100002E0084800E00848FEF71EF8002070BDD5
:10512000F0240020342500200000024068240020E4
:1051300078250020AC240020BC2500202DE9F84370
:10514000DFF8B880002001464FEA0D0545F8201031
:10515000401C10F0FF00F9D0002601E0192E34D2D7
:105160000024601DC0B2FFF749FF641C14F0FF0467
:10517000F7D00A20FFF71AFF0024601DC0B2FFF726
:105180002FFF641C14F0FF04F7D00A20FFF70EFF76
:105190005FF00004671C55F82400400045F8240027
:1051A000F8B2FFF70BFF55F82410084445F8240027
:1051B00017F0FF04EED00024601DC0B2FFF71EFF01
:1051C000641C14F0FF04F7D002E01420FFF7EEFE99
:1051D000761CF6B21B2EC1D35FF0000303EB8300F5
:1051E000C0EB831255F8231008EB820001F0B6FCE7
:1051F0005B1C13F0FF03F1D0BDE8F883C06D002005
:1052000070B50024084DFFF799FF00BF04EB840040
:10521000C0EB841005EB800000F046F9641C14F02C
:10522000FF04F3D070BD0000C06D002010B54FF436
:10523000FA6000F07BF8012818D100F01DF8012871
:1052400014D10B4CA079002810D16079401CC0B259
:10525000607109280AD300F00FFA02F031FA05490B
:105260000120A071A1F8B602A1F8860510BD0000CA
:10527000A00A0020AC1500202DE9F0472A4D00249B
:105280000327E9780120A0462646052904D2DFE855
:1052900001F003050F1A4000E87041E0601DC0B244
:1052A000FFF79EFE641C14F0FF04F7D00220F3E722
:1052B000601DC0B2FFF7A2FE641C14F0FF04F7D01B
:1052C000EF702E822CE0298A40F28A22491C89B292
:1052D0002982914202D32E822E71DDE7DFF84890B9
:1052E00019F80400012805D1601CC0B2FFF766FE62
:1052F00001280CD0641C14F0FF04F1D02879411C63
:1053000029710A280CD90420E8702E7108E0EF708A
:10531000FBE7FFF775FFEF702E822E714FF001084B
:105320004046BDE8F0870000A00A00202DE9F05FAC
:105330005A4F01462DED028B0026388935468842AA
:105340007AD8401C3881787807F10E01002401F1E9
:10535000040B4FF0010808286ED2DFE800F0040FBC
:105360002398981B3271701DC0B2FFF747FE761C60
:1053700016F0FF06F7D087F8018089E0701DC0B2F3
:10538000FFF72EFE761C16F0FF06F7D0052078708A
:105390007C817DE07889401C80B278810A2877D9A9
:1053A000022072E08846701DC0B2FFF727FE28F881
:1053B0001640761C16F0FF06F5D006207870BC81EA
:1053C00066E0BA89B946521CBA818A46771CF8B29F
:1053D000FFF7F4FD20B93AF81610491C2AF8161008
:1053E00017F0FF06F2D0B9F80C0040F28A214A46C5
:1053F00088424DD39078002156465B464FEA080715
:1054000036F811C08046BCF1320F01EB410C9C44D0
:1054100002D30CF8007001E00CF80040491C11F0B8
:10542000FF01EDD008F10100C0B29070032804D351
:10543000072089F801002BE029E089F8014027E0E6
:10544000C246A0469FED168B144CD946002106EBB0
:105450004603084603EB0902135C401C1944C0B222
:10546000C9B20328F8D3084602F02EFE53EC182BDD
:1054700002F078FF02D804F806A001E004F80680E4
:10548000761C16F0FF06E1D00820787000E00125B8
:10549000BDEC028B2846BDE8F09F0000A00A00206A
:1054A000CCCCCCCCCCCC004030B504460020A1788C
:1054B00087B0012940D16D4604EB8001496845F869
:1054C0002010401CC0B20728F6D307212846FBF75E
:1054D0007BFD002020620220216A55F82020401C1C
:1054E0001144C0B221620528F6D30846032190FB7F
:1054F000F1F16162D4F8E020002000BF04EB8003EA
:105500005B6BDAB1994203DA401CC0B20A28F5D3CA
:1055100000EE901A04EB8000F8EEE00A90ED210A0C
:1055200020EE800AD0ED2C0A30EE800AD4ED390A44
:10553000C4ED3A0A84ED390A07B030BD9942E7DD7F
:10554000E2E70000020003494FF0000000D1486A82
:1055500070470000C06D002010B504462DED028B91
:10556000DFED158A1548B0EE688A806802F095FD77
:105570009FED131B53EC112B02F0F6FD02F050FDD2
:1055800000EE100A10492CB9D1ED390A91ED371A05
:1055900030EEC18AB4EEC08AF1EE10FA01DBB0EE53
:1055A000408A0A48005D08B9B0EE688AB0EE480A41
:1055B000BDEC028B10BD000000000000B414002000
:1055C0009A9999999999F13FC06D0020A00A0020FD
:1055D000F0B5244C00231A4603EB8300C0EB831084
:1055E000002104F8203004EB80008270C270026257
:1055F000C0F8242000EB8105491CC9B26A600A2961
:10560000F8D3194D002100BF00EB810755F8216048
:10561000FE654618491CC9B286F828200A29F3D32A
:1056200000219FED120ADFED120A00BF00EB810599
:10563000491C85ED210AC9B2C5ED2C0A0B29F5D309
:1056400001219FED0C0A5B1C80ED370AC0F8E020B9
:1056500080ED390A80ED3A0A417013F0FF03BBD0A8
:10566000F0BD0000C06D00203C860008124DA03A3D
:10567000E1DA85C30000000010B511495FF00000B9
:1056800000EB8002C2EB801201EB8202401C92ED23
:10569000390A10F0FF0082ED370AF1D0FFF70AFA5D
:1056A000FFF770F90020074A014600BF02EB4003F4
:1056B000401CC0B2A3F85C100428F7D310BD000052
:1056C000C06D0020B414002070B50446B0F85A0232
:1056D000002542F20111884214D1B4F85E0201257E
:1056E000A0F5E061E5390DD10120A4F86402A4F829
:1056F000660294F86C0204F51974FFF7AFF9207A8A
:10570000FFF768F9284670BDB0F85A220021B2F5BB
:10571000045F12D10022A0F86622B0F86C32B0F912
:105720005E220121934208D00123A0F86832012AA9
:1057300003DCB0F85E22A0F86C22084670472DE921
:10574000F04104460026B0F866023546012836D1FD
:10575000B4F85A02B0F5145F31D342F20A518842CC
:105760002DD2B4F95E120126A1F59052FE3A26D14F
:105770000121A4F8621294F8B812C7B241F00101F5
:1057800084F8B812B4F86C02E0B1012817D8401EB2
:10579000C0B2FFF7D7FEC11700EBD150451294F805
:1057A0006C023946401EC0B202F0D2F894F86C0286
:1057B0002BB2401EC0B20122394600F04BFE3046EB
:1057C000BDE8F0812846FFF7BDFEC11700EBD150C0
:1057D00044123946284602F0BBF823B2012239466A
:1057E000284600F037FE6D1C15F0FF05EAD00122B7
:1057F00023B239461046E0E72DE9F0410446B0F8FF
:105800005A024FF00008A0F5085046460A2835D243
:1058100094F8B812C7B241F0010184F8B812A4F8A4
:105820006E0204EB8701B4F95E02C1F87002B4F9AC
:105830005E52B4F86C024FF0010860B1401EC0B275
:105840002A46394601F030FF94F86C022A46401E81
:10585000C0B2394610E02A463946304601F024FFEE
:105860002A463946304600F009FE761C16F0FF063F
:10587000F1D02A463946304600F000FE4046BDE8E9
:10588000F081B0F85A32002141F20312934207D15D
:10589000B0F85E320121934202D10122A0F8AC227D
:1058A00008467047B0F85A32002141F20212934282
:1058B00007D1B0F85E320121934202D10122A0F853
:1058C000AA2208467047B0F85A32002141F201126C
:1058D000934207D1B0F85E320121934202D10122F6
:1058E000A0F8A4220846704710B5B0F85A2200214B
:1058F000A2F50453033B11D1B0F85E320121A3F5A8
:10590000E0640A46E53C04D0A3F58064B23C03D0D1
:1059100004E0A0F8A02201E0A0F8A622084610BDED
:10592000B0F85A220021A2F50453043B09D1B0F883
:105930005E220121A2F54073F23B02D10122A0F8C0
:10594000AE2208467047000010B5B0F85A22002475
:105950000A49A2F50453023B0ED1B0F85E2201249D
:10596000A2F525435A3B07D10122A0F86022A1F8F5
:105970006022104601F092FE204610BDAC150020BA
:1059800070B5B0F85A1200250A46A1F580511E29BB
:105990007BD801250B463E492C46202B62D2DFE8FE
:1059A00003F01061616161616161616114181C251E
:1059B00029616161612D363C4044486161614C550B
:1059C000595DB0F95E220A6059E0B0F95E224A6082
:1059D00055E0B0F95E228A6051E0B0F95E2200EE37
:1059E000102AB8EEC00A81ED030A48E0B0F95E2241
:1059F0000A6144E0B0F95E224A6140E0B0F95E22FB
:105A000000EE102AB8EEC00A81ED0A0A37E0B0F9BC
:105A10005E228A64A0F8B04231E0B0F95E224A64A6
:105A20002DE0B0F95E220A6429E0B0F95E22CA6274
:105A300025E0B0F95E220A6321E0B0F95E22CA6473
:105A40001449A0F8B242A1F8824518E0B0F95E22EC
:105A50000A6514E0B0F95E224A6510E0B0F95E22F2
:105A60008A650CE0A2F580530F3B032B07D801EBAE
:105A70008201A1F5A041B0F95E32C1F8DC3F90F897
:105A8000B81241F0020180F8B812284670BD00003B
:105A9000B4140020AC15002010B504460020B4F862
:105AA0005A12A1F5A852103A0AD1B4F95E02FEF7D3
:105AB00073F894F8B80240F0020084F8B8020120AC
:105AC00010BD10B5B0F85A120024A1F5CC42663AC8
:105AD00007D1B0F95E02A0F525415A3901D1FCF792
