:020000040800F2
:10000000508B002039030008AD470008993C0008D8
:1000100071470008F51000087D7900080000000015
:10002000000000000000000000000000790200084D
:100030007712000800000000D502000805490008FA
:100040005303000853030008530300085303000838
:100050005303000853030008530300085303000828
:10006000530300085303000853030008F910000865
:1000700005110008111100081D11000829110008C0
:10008000351100084111000853030008530300080C
:1000900053030008530300085303000853030008E8
:1000A00053030008530300085303000853030008D8
:1000B00053030008530300085303000853030008C8
:1000C00053030008530300085303000853030008B8
:1000D00053030008314F0008494F0008614F0008E2
:1000E0005303000853030008530300085303000898
:1000F0005303000853030008530300084D11000880
:100100005303000853030008530300085303000877
:10011000B94A0008D14A0008D94900085303000829
:100120005303000859110008651100085303000823
:100130005303000853030008530300085303000847
:10014000530300085303000853030008B147000895
:1001500053030008711100087D110008794F000851
:100160005303000853030008530300085303000817
:100170005303000853030008530300080000000065
:10018000530300085303000800F002F800F064F87D
:100190000AA090E8000C82448344AAF10107DA45E2
:1001A00001D100F059F8AFF2090EBAE80F0013F0D0
:1001B000010F18BFFB1A43F00103184780DA000053
:1001C000A0DA000010F8013B0A4413F0030408BF52
:1001D00010F8014B1D1108BF10F8015B641E05D01B
:1001E00010F8016B641E01F8016BF9D1002D15D0D8
:1001F00010F8014B03F00C030C2BA1EB04040ABF15
:1002000010F8013BA4EB8314A4EB032405F10103D4
:1002100014F8016B5B1E01F8016BF9D5914238BFF0
:1002200010F8013BD1D3704700230024002500269D
:10023000103A28BF78C1FBD8520728BF30C148BF49
:100240000B6070471FB50DF069FB9DE8030000F0DF
:100250003FFA1FBD10B510BD00F096FA1146FFF72A
:10026000F1FF0AF0C9F800F0B4FA03B4FFF7F2FFA7
:1002700003BC00F0E5FA00002C4B19680868B0E8F0
:10028000F04F80F30988BFF36F8F4FF0000080F3C9
:10029000118870470000000008480068006880F37B
:1002A00008884FF0000080F3148862B661B6BFF38F
:1002B0004F8FBFF36F8F00DF00BF00BF08ED00E07E
:1002C000DFF80C00016841F470010160704700BF65
:1002D00088ED00E0EFF30980BFF36F8F134B1A68CE
:1002E0001EF0100F08BF20ED108A20E9F04F1060BB
:1002F00009B44FF0500080F31188BFF34F8FBFF364
:100300006F8F0CF08BFB4FF0000080F3118809BC5D
:1003100019680868B0E8F04F1EF0100F08BFB0EC85
:10032000108A80F30988BFF36F8F70472000002088
:10033000EFF30580704700000948804709480047EF
:10034000FEE7FEE7FEE7FEE7FEE7FEE7FEE7FEE785
:10035000FEE7FEE704480549054A064B70470000E2
:10036000C94900088901000850830020508B0020F3
:10037000508700205087002070B5064600F08CF9A9
:10038000056806F10B0020F00704B4429CBF002072
:1003900070BD2B466A68BAB11068A04210D304F150
:1003A000080188423CBF5068586007D35168101953
:1003B00041601168091B016058601460101D70BD18
:1003C00013465268002AE7D12146284600F06CF90E
:1003D0000028DED170BD70B50446051F00F05CF941
:1003E0000068002C14BF446870BD002C18BFAC42DC
:1003F0003CBF20466468F8D301680A18AA4218BFB7
:10040000456003D12A6805461144016028684119F6
:10041000A1421CBF6C6070BD6168696021680844BE
:10042000286070BD53EA020C00F069802DE9F04BA2
:100430004FF00006002B1FBFB3FA83F503FA05F453
:1004400024FA05F65E4012BF1643B2FA82F502FAAC
:1004500005F4C5F120051EBF22FA05FC44EA0C0490
:10046000203556EA044C4FEA144418BF641C4FF080
:1004700000084FF00009904271EB030C39D30029BA
:1004800019BFB1FA81F701FA07F6B0FA80F700FA5E
:1004900007F6C7F120071EBF20FA07FC46EA0C0644
:1004A0002037B6FBF4FCA7EB0507103F07F01F0B46
:1004B000CBF120060CFA0BFB2CFA06F644BFB34630
:1004C0000026202FA4BF5E464FF0000B5BEA060C0F
:1004D00008BF4FF0010B19EB0B09ABFB027C48EB9B
:1004E0000608C01B06FB02CC0BFB03CC71EB0C0116
:1004F000C1E70B46024641464846BDE8F08B13B5BE
:100500004FF000004FF00001AFF30080BDE81C4049
:100510007047032A40F2308010F0030C00F0158081
:1005200011F8013BBCF1020F624498BF11F801CBF6
:1005300000F8013B38BF11F8013BA2F1040298BF5B
:1005400000F801CB38BF00F8013B11F0030300F0C5
:100550002580083AC0F0088051F8043B083A51F869
:1005600004CBA0E80810F5E7121D5CBF51F8043B6E
:1005700040F8043BAFF30080D20724BF11F8013BE1
:1005800011F801CB48BF11F8012B24BF00F8013B43
:1005900000F801CB48BF00F8012B704710B5203A96
:1005A000C0F00B80B1E81850203AA0E81850B1E82C
:1005B0001850A0E81850BFF4F5AF5FEA027C24BFE2
:1005C000B1E81850A0E8185044BF18C918C0BDE8D9
:1005D00010405FEA827C24BF51F8043B40F8043BA2
:1005E00008BF7047D20728BF31F8023B48BF11F857
:1005F000012B28BF20F8023B48BF00F8012B7047B1
:100600004FF000020429C0F0128010F0030C00F03B
:100610001B80CCF1040CBCF1020F18BF00F8012BB9
:10062000A8BF20F8022BA1EB0C0100F00DB85FEA87
:10063000C17C24BF00F8012B00F8012B48BF00F853
:10064000012B70474FF0000200B5134694469646C2
:10065000203922BFA0E80C50A0E80C50B1F12001D5
:10066000BFF4F7AF090728BFA0E80C5048BF0CC083
:100670005DF804EB890028BF40F8042B08BF7047E1
:1006800048BF20F8022B11F0804F18BF00F8012B53
:10069000704770477047704700487047F4820020E9
:1006A000704770477047704738B504460A460020C7
:1006B0006946AFF30080002808BF38BD02460099A4
:1006C000204600F03FF8012038BD012000F054B86A
:1006D000F8B5AFF30080054600200C46102000BF9F
:1006E0000646A819A0420DD9324669460020AFF34C
:1006F0000080070008BF00F03FF80098A04218BF34
:100700000546C419FFF7C8FF05600746F01D20F035
:1007100007004619284600F00AF8B44208BFF8BDA1
:10072000A21B31463868BDE8F84000F00BB8002144
:100730000160C0E901107047102070470048704701
:10074000EC820020034640688C46002818BF88428F
:100750003CBF03464068F8D318681844884207D065
:100760000CF1030020F00700001D411A521A014647
:10077000081D0A60FFF72FBE10B500F039F8BDE87C
:10078000104000F02FB870477546FFF7D7FFAE4610
:1007900005006946534620F00700854618B020B58D
:1007A000FFF7D8FDBDE820404FF000064FF00007EE
:1007B0004FF000084FF0000B21F00701AC46ACE809
:1007C000C009ACE8C009ACE8C009ACE8C0098D4676
:1007D000704710B50446AFF300802046BDE81040D6
:1007E000FFF743BD002801D000F02AB87047000091
:1007F00010B5012805D0002103A000F027F8012042
:1008000010BD09A1F8E7000053494752544D454D2A
:100810003A204F7574206F662068656170206D65A1
:100820006D6F7279000000003A2048656170206D9C
:10083000656D6F727920636F727275707465640094
:1008400001491820ABBEFEE72600020070B5054640
:100850000C460A2000E06D1C00F011F835B1287834
:100860000028F8D102E0641C00F009F814B12078E7
:100870000028F8D1BDE870400A20AFF3008008B529
:1008800069468DF800000320ABBE08BD464910B58F
:100890004A6822F440324A604A6843681A434A6010
:1008A00001684A6822F480724A6001684A680369F4
:1008B00042EA03224A6001684A6822F040724A60B4
:1008C00001684A6883681A434A6001688A6822F4AA
:1008D00000628A6001688A68C3681A438A60816A14
:1008E0006FF07062D14201688A6822F070628A609B
:1008F00001688A680CD0836A1A438A6001688A6832
:1009000022F040528A6001688A68C36A1A4301E093
:1009100022F040528A6001688A6822F002028A60EE
:1009200001688A68037E42EA43028A6090F82010D8
:10093000002901684A680FD042F400624A600168E9
:100940004A6822F460424A6001684A68174C436A68
:1009500004EB43331A4301E022F400624A60016869
:10096000CA6A22F47002CA620168CA6A838B104C98
:1009700004EB03531A43CA6201688A6822F40072C6
:100980008A6001688A6890F8303042EA43228A60BF
:1009900001688A6822F480628A6001688A68406916
:1009A00042EA8020886010BD0023014000E0FFFF84
:1009B0000000F0FF2DE9F04F00242DED048B83B0F3
:1009C0000F46D0E909B9D0F810A0D0F82080866988
:1009D0009A48D0ED038A90ED0A8AC06C012805D1AF
:1009E000B2EE040A68EE808A28EE008A022F7BD9D4
:1009F00003B0BDEC048BBDE8F08F00BF38F91430B4
:100A0000DDB2BD4244D25AF824105AF82500F1EE66
:100A1000680A0A1A00EE102AB8EEC00AB4EEE00A1C
:100A2000F1EE10FA34DB00EE102AB8EEC00AB4EE94
:100A3000E80AF1EE10FA2BD800EE101AF8EEC00A10
:100A4000B1EE480AF4EEC00AF1EE10FA08DD00EE4D
:100A5000901AF8EEE00AF4EEC80AF1EE10FA17D395
:100A600000EE900AF8EEE00AF4EEC00AF1EE10FA99
:100A700008DD00EE100AB8EEC00AB4EEC80AF1EEC6
:100A800010FA05D336F9141036F91500814229D031
:100A9000FF2B02D0FF2028F81400022D06D238F9CF
:100AA0001500FF2802D0FF2028F8150036F91400A1
:100AB00048B1C0B20AF046FB0021204603F0FEFA1E
:100AC000002026F81400022D0CD236F9150048B18A
:100AD000C0B20AF037FB0021284603F0EFFA0020ED
:100AE00026F81500641CE4B2BC4287D300242046DB
:100AF000B1EE489A25E000BF36F81010F9B95AF85F
:100B0000201000EE101AB8EEC00AB4EEC90AF1EED9
:100B100010FA08D300EE101AB8EEC00AB4EEC80AF4
:100B2000F1EE10FA0BDD00EE101A0BEB8401B8EEBB
:100B3000C00A81ED000A29F81400641CE4B2401CCC
:100B4000C0B2B842D8D322464946584600F084FA8B
:100B50000025641E6EE000BF09EB450019F815B0D2
:100B600080780090BB4563D20098B84260D25AF8B2
:100B70002B0000EE100AB8EEC00AB4EEC90AF1EE7E
:100B800010FA08D300EE100AB8EEC00AB4EEC80A94
:100B9000F1EE10FA4CDD00995AF8211000EE101A0F
:100BA000B8EEC00AB4EEC90AF1EE10FA08D300EEAE
:100BB000101AB8EEC00AB4EEC80AF1EE10FA37DD2A
:100BC000401A00EE100AF1EE680AB8EEC00AB4EE60
:100BD000E00AF1EE10FA2BDB00EE100AB8EEC00AC4
:100BE000B4EEE80AF1EE10FA22D808F01BFC0190EE
:100BF00026F81B00DDE9000126F81010009828F8FF
:100C00001B00009828F810B0019838B10098401CDB
:100C1000C1B20BF10100C0B20BF0A4F85846019923
:100C200003F04CFADDE9000103F048FA6D1CEDB267
:100C30006D1CEDB2A5428FDBDAE60000B014002097
:100C400038B504460079002520B1012810D0FE28CF
:100C50001BD138BD204600F01BF80146FE200129BB
:100C600002D02071657138BD01212171607138BDDC
:100C7000009502234FF444512046A2690BF090FBEB
:100C8000D4E90601022200F06BF8257138BD00009E
:100C900070B504462F48002203692F4800F53471CF
:100CA00023B1012B19D0022B32D133E0A04204D161
:100CB00001212046FFF77EFE0DE0A1420BD126491F
:100CC0000020A3698A6932F8102023F81020401C04
:100CD00080B20228F5D3012215E0A04204D10221FE
:100CE0002046FFF767FE32E0A14230D11A490020CA
:100CF000A3698A6932F8102023F81020401C80B2C2
:100D00000228F5D323E0D4E9060100F069F9024690
:100D1000104670BDA0420CD1104E002506EB4500D8
:100D20008178E8B203F0CAF96D1C2D042D0CF5D0C2
:100D30000DE0A1420BD108490020A3698A6932F86D
:100D4000102023F81020401C80B20228F5D3022284
:100D5000D9E70000B0140020A815002022150020BB
:100D600010B5002306E000BF30F8134021F813400F
:100D70005B1C9BB29342F7D310BD00002DE9F84FE6
:100D800000220092D0E90954A2460024C66A036AF0
:100D9000C268204614E000BF33F91070FF2F0DD158
:100DA00052F8207000EE107A05EB8407B8EEC00A06
:100DB00087ED000A2AF81400641CE4B2401CC0B29B
:100DC0008842E9D3012C04D922465146284600F036
:100DD00043F9DFF814B1002047F6FF7CFF27634694
:100DE000B946002146E000BF05EB81029BED0A0AEF
:100DF000D2ED000AF4EEC00AF1EE10FA06DAB1EE16
:100E0000401AF4EEC10AF1EE10FA31D84A1CD2B2FF
:100E1000B1EE401A10E000BF05EB8208D8ED001AD1
:100E2000F4EEC01AF1EE10FA08DAF4EEC11AF1EE9F
:100E300010FA03D9521CD2B2A242EDD3A14217D26A
:100E4000A24215D205EB820898ED000A70EE600A06
:100E500000EE103AB8EEC00AF4EEC00AF1EE10FA55
:100E600006D2BDEEE00A91460F4610EE103A1BB2D4
:100E7000491CC9B2A142B7D363452ED0FF2F2CD055
:100E8000B9F1FF0F29D004280FD23AF8192000EB4E
:100E90004001521C26F811203AF8172006EB4101B8
:100EA000521C4A80401C8B80C0B29FED100A05EB9B
:100EB0008901042881ED000A05EB870181ED000A14
:100EC0008CD30DE000EB4002401C26F8121006EB1C
:100ED0004202C0B25180918000E000210428F1D389
:100EE0000098BDE8F88F0000B0140020000000005A
:100EF00038B504464079002520B101280CD0FE28E1
:100F000019D138BD204600F019F8012802D06570CB
:100F1000FE202071607138BD00950C2341F2012143
:100F20002046E26A0BF03CFA0128F4D1D4E90B0127
:100F30000C22FFF715FF657138BD000010B504469F
:100F400025482649026901F5347022B1012A15D0DD
:100F5000022A39D128E0A14201D1012111E0A042A9
:100F600032D11E490020E36ACA6A32F8102023F801
:100F70001020401C80B20C28F5D325E0A14204D1FA
:100F800002212046FFF7FAFE1EE0A0421CD11349C1
:100F90000020E36ACA6A32F8102023F81020401CAF
:100FA00080B20C28F5D30FE0A1420DD0A0420BD1A6
:100FB0000A490020E36ACA6A32F8102023F8102098
:100FC000401C80B20C28F5D3D4E90B01BDE81040D9
:100FD0000C2200F005B80000B0140020A815002075
:100FE00070B504460020034609E000BF34F91350F1
:100FF00031F91360B54200D001205B1C9BB29342D3
:10100000F4D370BDF8B5124C0025124E6570A31CC8
:10101000617803EB410713F811207F78120202F484
:101020007F423A4426F81120491CC9B261701E293A
:10103000EED32178012909D12023064A4FF4A0419B
:1010400000950BF0ADF9012800D12570F8BD000026
:101050008800002068680020F0B5002426E0002603
:101060000123171B1CE000BF00EB8305D5ED000A30
:1010700015ED010AF4EEC00AF1EE10FA0ED245EDBC
:10108000010A85ED000A01EB430631F813C036F87A
:10109000025C26F802CC21F8135001265B1CDBB25F
:1010A0009F42E1DC002E03D0641CE4B29442D6D30C
:1010B000F0BD0000F0B5002319E000250122CE1A92
:1010C0000FE000BF00EB820750F822C057F8044C35
:1010D000A44504DA47F804CC40F822400125521C0C
:1010E000D2B29642EEDC002D03D05B1CDBB28B4209
:1010F000E3D3F0BDFEE70000014800F041BA000074
:1011000030270020014800F03BBA00007029002081
:10111000014800F035BA000070260020014800F0B8
:101120002FBA0000D0290020014800F029BA0000A1
:10113000D0260020014800F023BA0000B02800208B
:10114000014800F01DBA000010290020014800F0FD
:1011500017BA000090270020014800F011BA0000E3
:10116000302A0020014800F00BBA0000F0270020D0
:10117000014800F005BA0000902A0020014800F064
:10118000FFB900005028002001681823CAB2103AA5
:10119000B2FBF3F2054B6FF30901032A9B5CC365B5
:1011A00000D9091D816508467047000060D9000814
:1011B00010B5014600208B698A6A4FF0C07453B1A4
:1011C000B3F5005F15D072B1012A0CD0022A0AD003
:1011D000032A09D104E01AB1012A06D0022A03D158
:1011E000C96AC90100D5012010BDC96AA142FAD05F
:1011F00010BD002AF7D0012AF2D0022AF3D0032A28
:10120000F3D010BD30B50468256825F4802525602D
:10121000046863608368402B036803D099600068AA
:10122000C26030BD9A600068C16030BD00210022FC
:1012300000EB8103C3F88423491C1029F8D3002153
:10124000431883F81C21491CB1F5007FF8D30270C4
:10125000427001218170C0F8C4230176402383715C
:10126000427680F81C2380F81D1380F81F2380F835
:101270001E2300207047704772B6FEE7002200F080
:1012800001B8000010B4844601200E4B5C7A002C9B
:1012900016D1587A1C54587A03EB8000C0F804C069
:1012A000587A03F1080C00F80C20587A421C5A7244
:1012B000303008703A2048702F208870CC700020A1
:1012C00010BC7047E082002078B50024009490F8AC
:1012D0003C20012A19D0012280F83C200A6807230B
:1012E0000568092A13D9EE680A3A02EB42029340D4
:1012F0009E43EE600B788A680A3B03EB43039A40F7
:101300000368DD682A43DA6010E0022078BD2E69A8
:1013100002EB420293409E432E610B788A6803EBF6
:1013200043039A4003681D692A431A614A681F23D0
:10133000072A13D205686E6B521E02EB820293409D
:101340009E436E630B790A885B1E92B203EB8303A4
:101350009A4003685D6B2A435A6327E005680D2AAB
:1013600012D22E6BD21F02EB820293409E432E6359
:101370000B790A88DB1F92B203EB83039A40036860
:101380001D6B2A431A6311E0EE6A0D3A02EB8202EA
:1013900093409E43EE620B790A880D3B92B203EBB9
:1013A00083039A400368DD6A2A43DA62164B0568B4
:1013B000144A9D4206D10D68122D03D1556845F49B
:1013C0008005556005689D4218D10B68102B01D02F
:1013D000112B13D1536843F400035360096810299B
:1013E0000CD10A490A4A0968B1FBF2F101EB81010B
:1013F000490000E0491E00910029FBD180F83C40E3
:10140000002078BD00230140002001401C00002086
:1014100040420F0070B504004FF0000503D0206C6F
:10142000002610B107E0012070BD204600F01CF836
:10143000666484F83C60206CC00610D4206C20F4F4
:10144000885040F0020020642046FFF71FFA6664CF
:10145000206C20F0020040F00100206400E0012533
:1014600084F83C60284670BD10B586B0044614214F
:101470006846FFF7E7F81149206888421BD11048F9
:101480000021026842F480720260006800F48070FB
:1014900005900B481438026842F0020202600068AE
:1014A00000F00200059003200090CDE9010169469B
:1014B000044800F0E9F906B010BD0000002001402A
:1014C00044380240000402402DE9F0410446876D93
:1014D00000F0E4FA064694F835000025022806D00C
:1014E0008020606584F834500120BDE8F0812068D8
:1014F000016821F0160101602068416921F0800136
:101500004161206C08B9A06C20B12068016821F00D
:10151000080101602068016821F0010101600CE010
:1015200000F0BCFA801B052807D920206065032045
:1015300084F8350084F83450D7E720680068C00785
:10154000EED194F85C103F208840B860012084F808
:10155000350084F834500020C7E790F83510022990
:1015600003D08021416501207047052180F83510A6
:101570000068016821F0010101600020704700004F
:101580002DE9F84304464FF00009CDF80090634878
:101590004FF41651A56D0068B0FBF1F72E6894F872
:1015A0005C10082000FA01F131420FD021680A686E
:1015B00052070BD50A6822F004020A6094F85C1006
:1015C0008840A860606D40F00100606594F85C1090
:1015D0004FF0010808FA01F0304208D0216849694B
:1015E000090604D5A860606D40F00200606594F8BB
:1015F0005C1004208840304208D0216809688907BF
:1016000004D5A860606D40F00400606594F85C103B
:1016100010208840304218D021680968090714D585
:10162000A86020680168490304D50068000308D554
:10163000A16C07E00168C90503D4016821F0080125
:101640000160216C09B12046884794F85C10202085
:101650008840304231D021680968C9062DD5A8607C
:1016600094F8350005282068016806D0490347D55D
:10167000006800031DD4616C1CE021F016010160BC
:101680002068416921F080014161206C08B9A06C9B
:1016900020B12068016821F00801016094F85C1015
:1016A0003F208840A86084F8358084F83490216D0C
:1016B0001FE0E16B09B120468847606D00282BD000
:1016C000606DC00714D0052084F8350020680168DB
:1016D00021F0010101600098401C0090B84203D83D
:1016E00020680068C007F6D184F8358084F834900B
:1016F000E16C002910D001B02046BDE8F043084756
:101700000168C905D5D4016821F01001016084F891
:10171000358084F83490CCE7BDE8F8831C000020C5
:101720002DE9F041044600F0B9F906465CB102200B
:1017300084F83500002584F834502068016821F0D1
:10174000010101600DE00120BDE8F08100F0A6F983
:10175000801B052805D920206065032084F835000A
:10176000F2E720680068C007F0D1226811682048BD
:101770000140D4E901031843D4E903363343184345
:1017800063691843A3691843E3691843236A18433C
:101790000843616A042903D1D4E90B1319430843B0
:1017A000106020684069666A20F0070130460E43E9
:1017B000012704280CD1A06A0643E06A40B1204604
:1017C000FFF7F6FC20B14020606584F83570BAE779
:1017D000206846612046FFF7D7FC94F85C203F2143
:1017E00091408160656584F835700020ACE70000A9
:1017F0003F8010F02DE9F0410446866D90F83400EA
:10180000002501280DD0012084F8340094F83570AB
:101810000020012F07D084F8340002252846BDE8B7
:10182000F0810220FBE7022784F8357060652046CE
:10183000FFF7E8FC94F85C103F208840B060206817
:10184000016841F016010160206C20B12068016838
:1018500041F0080101602068016841F00101016068
:10186000DCE7000070B5044600F018F90546601C7E
:1018700002D004480078044400F010F9401BA04254
:10188000FAD370BD100000202DE9F84FDFF8BCA19D
:101890000022012503264FF00F090AF1040BAAF1DB
:1018A000040E00BF0B6805FA02F42340A34270D176
:1018B0000F7907F00307012F01D0022F16D1876897
:1018C0004FEA420806FA08FC27EA0C07D1F80CC0D8
:1018D0000CFA08FC4CEA070CC0F808C04768A7439C
:1018E0000C79C4F3001494403C4344600C79E44305
:1018F000A4070AD0C4684FEA420C06FA0CF7BC43AE
:101900008F6807FA0CF72743C7600C7904F00304CB
:10191000022C12D1D40800EB840CDCF820405707CD
:10192000FF0E09FA07F824EA0804D1F8108008FA33
:1019300007F848EA0408CCF8208004684FEA420C13
:1019400006FA0CF7BC430F7907F0030707FA0CF708
:10195000274307604C6814F4403F70D03C4C276824
:1019600047F480472760246822F0030704F480448A
:101970000094384C07EB040CDCF8084897074FEA52
:10198000177809FA08F7BC43334FB84202D1002751
:1019900024E054E0314FB84201D101271EE0304F1E
:1019A000B84201D1022719E02E4FB84201D10327D6
:1019B00014E02D4FB84201D104270FE02B4FB8425D
:1019C00001D105270AE02A4FB84201D1062705E0D8
:1019D000284FB84201D1072700E0082707FA08F787
:1019E0002743CCF80878DAF800405746D1F804C00D
:1019F0009C435FEACC2C00D51C433C60DBF80040E4
:101A00005F46D1F804C09C435FEA8C2C00D51C4390
:101A10003C60DEF800407746D1F804C09C435FEAA2
:101A20008C3C00D51C433C60084F083F3C68D1F813
:101A300004C09C435FEACC3C00D51C433C60521C74
:101A4000102AFFF42FAFBDE8F88F0000083C0140DA
:101A500044380240003001400000024000040240CF
:101A600000080240000C0240001002400014024036
:101A700000180240001C02400069084000D001200C
:101A80007047426921EA02030A4043EA0241816148
:101A900070470AB1816170470904FBE7014880681B
:101AA0007047000010000020D0F8000303F017BFBB
:101AB000D0F8000303F024BF006805F07DBC006887
:101AC00005F07EBC01EB410202EBC10100EB81009D
:101AD00090F86000704701EB410202EBC10100EB9E
:101AE0008100006D704710B5044690F8F802012897
:101AF00009D0012084F8F802206805F06CFC002071
:101B000084F8F80210BD022010BD2DE9FE43054601
:101B1000DDE90B7095F8F842DDF828C0012C1ED0E5
:101B200001EB410404EBC1044FF0010905EB84040F
:101B300085F8F892002684F83D6084F83830A4F8DF
:101B4000400084F8391084F83F7002F07F0884F870
:101B50003A805FEA026805D584F83B9004E00220F1
:101B6000BDE8FE8384F83B6084F83CC0CDF800C03B
:101B7000CDE90170286805F091FC85F8F862EFE77F
:101B8000D0F8000303F042BF2DE9F00301EB41045C
:101B9000DDE906C9DDE9087504EBC10400EB840446
:101BA000022684F83B2084F83F30BCF1000F0AD0B5
:101BB00084F8426000256BB1012B2FD0022B12D08C
:101BC000032B16D10FE04FF0030884F8428084F80D
:101BD0003D50EFE7BCF1010F0BD152B9DFB9012243
:101BE00084F8552003E0B2B194F85420B2B184F8DF
:101BF0004260C4F84490E76484F86050256584F836
:101C0000391084F86150027C04F138010068BDE8A5
:101C1000F00305F0CCBC94F85520E7E784F8425077
:101C2000E7E72DE9F04106680446304605F0CFFBB2
:101C3000012875D1206805F0DEFD002870D02068ED
:101C400005F0D9FD800203D521684FF400104861EA
:101C5000206805F0D0FDC00203D521684FF4801044
:101C60004861206805F0C7FD400103D521684FF0A9
:101C700080604861206805F0BEFD800702D52168BC
:101C800002204861206805F0B6FD800015D5216866
:101C90004FF000504861D6F84004C0070DD1102124
:101CA000304605F069FB304605F048FB012120680D
:101CB00005F086FD2046FFF7FBFE206805F09BFD42
:101CC000C00102D5204601F057FF206805F093FDC2
:101CD000000705D5204600F0C8F8216808204861B3
:101CE000206805F088FDC043C0060CD420688169D7
:101CF00021F010018161204601F088FF2068816990
:101D000041F010018161206805F075FD800123D547
:101D1000206805F048FC074600254FF0010814E054
:101D20001AE005F00F0108FA01F038420CD006EB7A
:101D30004510D0F80005E9B20004204602D501F0B4
:101D400018FD01E001F00AFE6D1CA068A842E8D869
:101D500021684FF000704861BDE8F08170B58AB02D
:101D6000040005D094F8F9022568002618B107E0B0
:101D700001200AB070BD84F8F862204600F028F80F
:101D8000032084F8F902E86BC00500D426612068BE
:101D900005F0A0FA04F1100128220D466846FEF76E
:101DA000FDFB94E80F0005F03BFA0121206805F0E7
:101DB0005EFD282229466846FEF7F0FB94E80F00F6
:101DC00005F096FC012084F8F9020020D1E700001C
:101DD00000B587B00021029103910491059106910D
:101DE0000068B0F1A04F2BD11648016841F0010105
:101DF0000160006800F0010001904FF4C0500290B3
:101E000002200390032005900A20069002A90E48A4
:101E1000FFF73AFD0D48016841F0800101600C4870
:101E2000016841F480410160006800F48040019045
:101E300000220521432000F06BFB432000F05AFBF9
:101E400007B000BD30380240000002403438024084
:101E500044380240D0F8000303F0F6BDD0F8000388
:101E600003F0F6BD006805F0E9BCD0F8000303F00C
:101E70009EBD10B5044690F8F80201280DD001204F
:101E800084F8F8020121206805F03CFA206805F08A
:101E90004FFA002084F8F80210BD022010BD10B5E2
:101EA000044690F8F802012809D0012084F8F802CD
:101EB000206805F00AFD002084F8F80210BD022019
:101EC00010BD000070B5040025D094F83D00002539
:101ED00020B984F83C50204600F04CFA242084F8C5
:101EE0003D002068016821F001010160206801685F
:101EF00041F4004101602068016821F40041016063
:101F000000F004FC4D4A6168914201D84C4900E060
:101F10004C49884201D2012070BD4B492368B0FB77
:101F2000F1F15E6826F03F060E435E6063689342FF
:101F300006D94FF4967359434FF47A73B1FBF3F11A
:101F40002368491C1E6A26F03F0631431962616806
:101F5000914210D84900401EB0FBF1F2521CC2F36E
:101F60000B02042A01D2042022E0B0FBF1F0401C55
:101F7000C0F30B001CE0A268F2B301EBC10303EB5A
:101F80000116431EB3FBF6F35B1C43F480431B05B1
:101F900049D092B301EBC10202EB0111401EB0FB2C
:101FA000F1F0401CC0F30B0040F4804040F40040CE
:101FB0002168CA694CF6FF739A431043C861D4E99B
:101FC000071001432068026822F0C002114301603B
:101FD000D4E9030101432068826848F2FF339A4341
:101FE00011438160D4E9050108432168CA6822F0E1
:101FF000FF021043C86001E00EE016E020680168AF
:1020000041F0010101602564202084F83D00256332
:1020100084F83E50002070BD01EB4106431EB3FB27
:10202000F6F35B1CB3E70120C2E701EB4101401E60
:10203000B0FBF1F0401CC0F30B00B7E7A086010035
:1020400080841E0000093D0040420F002DE9FF4F33
:1020500083B09A46DDE9119793460446DDF8408047
:10206000FFF71CFD054694F83D00202870D1192388
:10207000012271492046009501F01EFF0028F5D18C
:1020800094F83C00012863D0012084F83C002068CB
:102090000168C90703D1016841F0010101602068AE
:1020A000016821F400610160222084F83D00402095
:1020B00084F83E0000262664C4F82480A4F82A9000
:1020C000608D20855D48E062CDE9007553465A4633
:1020D0002046049901F0F8FD00287CD1208DD0B174
:1020E000012821D00228206824D04169806900900D
:1020F000208D032869D801282BD0514902283B465E
:102100004FF00002009559D08846204601F0D4FED9
:10211000002860D13CE02068416981690091016834
:1021200041F40071016077E02068016821F480616A
:102130000160F0E7016821F48061016020680168B6
:1021400041F400610160206841698069009063E0AA
:102150006FE02A463946204601F02DFF98BB2068E3
:102160000069616A08704EE02068016841F40071FE
:10217000016020680069616A0870606A401C6062E2
:10218000218D491E2185618D491E6185216838E0B8
:102190002068016821F48061016020680069616A3B
:1021A0000870606A401C6062208D401E2085608D32
:1021B000401E60853B46002241460095204601F0C6
:1021C0007BFE00B9D0E706E0FFE72A463946204605
:1021D00001F0F1FE18B1012007B0BDE8F08F2068D2
:1021E0000069616A0870606A401C6062218D491E46
:1021F0002185618D491E618521684A69D243520754
:102200000AD409690170606A401C6062208D401E1A
:102210002085608D401E6085208D00287FF468AF8A
:10222000202084F83D0084F83E6084F83C60002063
:10223000D2E70220D0E70000020010000000FFFFFC
:10224000040001002DE9FF4F83B09A46DDE91197A4
:1022500093460446DDF84080FFF720FC054694F8DD
:102260003D0020287FD119230122404920460095B6
:1022700001F022FE002876D194F83C00012872D0AB
:10228000012084F83C0020680168C90703D1016877
:1022900041F0010101602068016821F400610160E2
:1022A000212084F83D00402084F83E00002626646A
:1022B000C4F82480A4F82A90608D20852C48E06220
:1022C000CDE9007553465A462046049901F07AFD3F
:1022D00070B930E02A463946204601F09FFE58B1D9
:1022E000206C042804D12068016841F40071016069
:1022F000012007B0BDE8F08F606A216800780861AE
:10230000606A401C6062218D491E89B22185628D00
:10231000521E628522685369DB435B070BD469B1A7
:1023200000781061606A401C6062208D401E20852C
:10233000608D401E6085208D0028CBD12A4639460D
:10234000204601F093FD0028CAD154F83D0B0168E6
:1023500041F400710160202004F81E09E6776677D9
:102360000020C6E7FFE70220C3E7000002001000DC
:102370000000FFFF10B586B0044614216846FEF742
:1023800061F914492068884221D11348002102686C
:1023900042F002020260006800F0020005904FF473
:1023A000407000901220CDE9010103200390042029
:1023B000049069460948FFF767FA0748103001683A
:1023C00041F400110160006800F40010059006B0AF
:1023D00010BD0000005400403038024000040240AC
:1023E0000248816802781144816070471000002023
:1023F0000B4810B5016841F400710160016841F4B7
:1024000080610160016841F480710160032000F087
:102410009FF80F2000F006F800F050F8002010BDE3
:10242000003C024030B505461F4887B000240168D3
:1024300041F010010160006806A900F01000009052
:1024400001A800F043F90498A8B100F05FF940003A
:102450001649174AB0FBF1F11648491E026040F2D6
:10246000E732C0E90324C0E90114846100F0A0FB55
:10247000040003D015E000F049F9E9E70D4800F049
:10248000D9FB04000DD1362000F034F8102D07D20E
:1024900000222946362000F03BF80748056000E09E
:1024A000012407B0204630BD4038024040420F00B2
:1024B00000100040F02A0020140000200C4882B0D8
:1024C000016841F480410160006800F480400090A0
:1024D0000748001F016841F0805101600068002238
:1024E00000F0805000900F21901E02B000F010B854
:1024F00044380240002809DB00F01F02012191400E
:102500004009800000F1E020C0F800117047000091
:10251000F0B40E4B1B680C46C3F30223C3F107054E
:10252000042D00D90425191D072901D2002300E03C
:10253000DB1E012606FA05F1491E214099409E4006
:10254000761E16403143F0BC05F054BB0CED00E0A4
:10255000064900F0070208684FF6FF03184040EAFA
:102560000220034A10430860704700000CED00E0B1
:102570000000FA05BFF34F8F05480168054A01F4D2
:10258000E06111430160BFF34F8F00BFFDE7000022
:102590000CED00E00400FA052DE9F0470E460500B9
:1025A00065D0DFF81481D8F80000F7B200F007001A
:1025B000B04207D288F80070D8F8000000F0070099
:1025C000B04254D128683D4C810712D5400703D54D
:1025D000206840F4E05020602878000703D5206888
:1025E00040F4604020602068A96820F0F0000843B3
:1025F00020602878C0072DD0304968680839012844
:1026000012D0022813D0032811D0096889070029A5
:102610002DDA216821F0030101432160FFF73EFA22
:10262000814641F2883A0EE009688903EFE70968BC
:102630008901ECE7FFF732FAA0EB0901514502D915
:102640000320BDE8F0872068696800F00C00B0EB5B
:10265000810FEFD1D8F80010404601F00701B142D8
:1026600007D90770006800F00700B04201D00120D0
:10267000E7E72878400705D52068E96820F4E050AE
:10268000084320602878000706D52068296920F4CF
:10269000604040EAC100206000F058F82168084A14
:1026A000C1F30311515CC840064908600648006840
:1026B000FFF7B8FE0020C4E7003C024008380240A3
:1026C00068D900081C000020140000200F220260BE
:1026D0000C4A136803F003034360136803F0F0032C
:1026E0008360136803F4E053C36012684FF4E0534F
:1026F00003EAD20202610448006800F007000860A3
:102700007047000008380240003C02400448054978
:1027100000680968044AC1F38221515CC8407047CF
:102720001C0000200838024078D9000804480549F8
:1027300000680968044AC1F34231515CC8407047DF
:102740001C0000200838024078D90008154810B550
:10275000006810F00C02144813D01449042A0FD05A
:10276000082A0ED10F4C241F2268236802F03F0272
:102770005B0207D52068C0F38810A0FB010106E0CA
:10278000084610BD2168C1F38811A1FB0001002398
:10279000FDF748FE2168C1F30141491C4900B0FB27
:1027A000F1F010BD083802400024F40040787D01AB
:1027B0002DE9F84F04006ED02078DFF84C93C00765
:1027C000A9F104054AD009F104000168C1F38101AF
:1027D000012908D00068C0F3810002280AD1D9F885
:1027E0000000400206D52868800337D560680028BD
:1027F000E1D033E06068B0F5803F10D0B0F5A02F95
:10280000286810D020F480302860286820F48020C8
:1028100028606068A8B1FFF741F906460DE0286816
:1028200040F48030F4E740F480202860F7E700BFF0
:10283000FFF734F9801B642873D828688003F7D524
:102840000CE0FFF72BF9064605E000BFFFF726F97D
:10285000801B6428F0D828688003F7D42078DFF83C
:10286000AC8280074FF0000A3ED5A748001D0168E2
:1028700011F00C0F08D00068C0F3810002280BD1C2
:10288000D9F80000400207D42868800716D5E06810
:10289000012800D112E033E1E068B8B10120C8F8A6
:1028A0000000FFF7FBF8064605E000BFFFF7F6F86B
:1028B000801B0228C0D828688007F7D528682169BE
:1028C00020F0F80040EAC10028600DE0C8F800A040
:1028D000FFF7E4F8064604E0FFF7E0F8801B022863
:1028E0001FD828688007F7D42078000722D5864FA4
:1028F00087486169703771B101210160FFF7CEF837
:10290000064604E0FFF7CAF8801B022809D8386899
:102910008007F7D50EE0C0F800A0FFF7BFF8064625
:1029200005E082E0FFF7BAF8801B02287DD83868FE
:102930008007F7D42078400768D5DFF8CCB10027AE
:102940000BF13C0BDBF80000C0000BD4DBF80010EF
:1029500041F08051CBF80010DBF80000012700F0B7
:10296000805000906B4E3068C00510D4306840F441
:1029700080703060FFF792F8009005E0FFF78EF866
:102980000099401A022850D83068C005F6D55E4E2E
:10299000A0686C3601280FD00528306810D020F0D0
:1029A00001003060306820F004003060A068B8B1E9
:1029B000FFF774F800900FE0306840F00100F4E792
:1029C00040F004003060F7E7FFF768F80099411A1B
:1029D00041F28830814266D830688007F4D50EE035
:1029E000FFF75CF8009007E0FFF758F80099411AEC
:1029F00041F28830814256D830688007F4D42FB134
:102A0000DBF8001021F08051CBF80010A069C8B3AA
:102A10003D49091D0968C1F3810102294AD00228F4
:102A2000504607D0C8F8600000E03CE0FFF736F8F9
:102A300004463BE04746C8F86000FFF72FF806461B
:102A400005E000BFFFF72AF8801B02282BD8286872
:102A50008001F7D4D4E907010843A16A2E4A490846
:102A600002EB0141626A41EA8211084394F82C109A
:102A700040EA0161C9F8001001203866FFF70EF83E
:102A8000044606E03EE000BFFFF708F8001B0228FE
:102A900009D828688001F7D534E000BFFEF7FEFFB3
:102AA000001B022802D90320BDE8F88F28688001A6
:102AB000F4D427E00128F7D0D9F80000E26900F447
:102AC000800191421CD1226A00F03F01914217D14E
:102AD00047F6C071626A0140B1EB821F10D1A26A51
:102AE0004FF0FF3300F4403103EB5202B1EB024FE1
:102AF00006D194F82C1000F07060B0EB016F01D09B
:102B00000120D1E70020CFE704380240000047420F
:102B1000800E4742007000400000FFFF7047704782
:102B200070B590F83C20012A32D0012480F83C4056
:102B3000022280F83D2003685A689D6822F07006E2
:102B40000A6832435A60134B02689A4214D0B2F1B9
:102B5000804F11D0104B9A420ED0104B9A420BD09E
:102B60000F4B9A4208D00F4B9A4205D00E4B9A4217
:102B700002D00E4B9A4204D1496825F080031943D4
:102B8000916080F83D40002180F83C10084670BDFF
:102B9000022070BD00000140000400400008004019
:102BA000000C0040000401400040014000180040BB
:102BB00010B5040003D094F83D0010B107E00120E7
:102BC00010BD002084F83C00204600F01FF80220D1
:102BD00084F83D00211D206801F00AFF012084F8DF
:102BE000460084F83E0084F83F0084F8400084F8F2
:102BF000410084F8420084F8430084F8440084F8DB
:102C0000450084F83D00002010BD000008B50068B4
:102C10000649884208D10648016841F02001016058
:102C2000006800F02000009008BD00000014004083
:102C30004038024090F83D10012901D00120704732
:102C4000022180F83D100168CA6842F00102CA60A2
:102C500000681149884214D0B0F1804F11D00F495B
:102C600088420ED00E4988420BD00E49884208D0C7
:102C70000D49884205D00D49884202D00C4988424E
:102C800004D1816801F00701062903D0016841F0F1
:102C90000101016000207047000001400004004075
:102CA00000080040000C00400004014000400140CA
:102CB00000180040704770B50446006801694FF085
:102CC0000005C943890715D4C168C943890711D4D0
:102CD000E91E016101202077206880698007204675
:102CE00002D0FFF7E7FF04E000F098F8204600F07C
:102CF00096F8257720680169C943490717D4C16848
:102D0000C943490713D46FF0040101610220207701
:102D10002068806910F4407F204602D0FFF7CAFF88
:102D200004E000F07BF8204600F079F82577206871
:102D30000169C943090716D4C168C943090712D4F8
:102D40006FF008010161042020772068C0698007C6
:102D5000204602D0FFF7AEFF04E000F05FF8204607
:102D600000F05DF8257720680169C943C90617D4CA
:102D7000C168C943C90613D46FF01001016108206E
:102D800020772068C06910F4407F204602D0FFF70A
:102D900091FF04E000F042F8204600F040F825776B
:102DA00020680169C943C90708D1C168C943C90777
:102DB00004D1891E0161204600F032F820680169C3
:102DC000C943090609D4C168C943090605D46FF08F
:102DD000800101612046FFF7A1FE20680169C94317
:102DE000490609D4C168C943490605D46FF04001BA
:102DF0000161204600F01EF820680169C943890678
:102E00000BD4C168C943890607D46FF02001016162
:102E10002046BDE87040FFF782BE70BD7047704726
:102E200000680349884201D1FFF7DABA7047000011
:102E3000001000407047704710B5044600684069B4
:102E400094F83D10C0F3C010212911D180B1206841
:102E5000143050E8001F21F0800140E80012002AE1
:102E6000F5D1606B08B1FEF72FFB204601F004FF9F
:102E70002068406994F83E10C0F38010222911D1D7
:102E800080B12068143050E8001F21F0400140E874
:102E90000012002AF5D1A06B08B1FEF715FB204601
:102EA00001F0C3FE002010BD70470000F8B50168B6
:102EB00004460868CA684B6910F00F0F4FF0000510
:102EC0005AD003F0010602F49077374365D0C1076A
:102ED00005D0D10503D5216C41F0010121644107E2
:102EE00005D5D90703D0216C41F002012164810787
:102EF00005D5D90703D0216C41F0040121640107F5
:102F000007D502F02001314303D0216C41F00801C4
:102F10002164216C00293BD0800604D5900602D59F
:102F2000204601F0B7FE20684069216CC0F3801094
:102F300001F00801014320462BD001F076FE206805
:102F40004069400621D52068143050E8001F21F068
:102F5000400140E80012002AF5D1A06BA8B16C49ED
:102F60000165A06BFEF7F9FA002811D0A06B016D86
:102F700001B0BDE8F040084783060ED593060CD596
:102F80002046BDE8F84001F085BE2046FFF78CFFE3
:102F9000F8BDFFF789FF2564F8BD266B2023012EBD
:102FA00079D1C60677D5D60675D5086848680090E9
:102FB0004869400640D5A16B086840680004000CD1
:102FC000EAD0A28D8242E7D9E085C869B0F5807F5A
:102FD0002DD020680C3050E8001F21F4807140E8AB
:102FE0000012002AF5D12068143050E8001F21F0AB
:102FF000010140E80012002AF5D12068143050E8A1
:10300000001F21F0400140E80012002AF5D184F8A9
:103010003E30256320680C3050E8001F21F010017D
:1030200040E80012002AF5D1A06BFEF74DFAA08D02
:10303000E18D401A81B229E0A08DE18D401A81B264
:10304000E08D0028A8D00029A6D020680C3050E8D8
:10305000002F22F4907240E80026002EF5D120685F
:10306000143050E8002F22F0010240E80026002E24
:10307000F5D184F83E30256320680C3050E8002FED
:1030800022F0100240E80023002BF5D12046FFF784
:10309000D2FEF8BDFFE705062BD5150629D594F815
:1030A0003D002128F5D1A068B0F5805F01D12069ED
:1030B000B0B1206A411C2162216800784860E08C30
:1030C000401E0004000CE084E3D12068C16821F0B8
:1030D0008001C1602068C16841F04001C160D8E74B
:1030E000206A0088C0F308004860206A801C2062C3
:1030F000E5E74006CDD55006CBD5CA68204622F07C
:103100004002CA6084F83D3000F010FBC1E70000C7
:10311000E94A000870B5040004D094F83D00002589
:1031200010B106E0012070BD84F83C50204600F04C
:1031300023F8242084F83D002068C16821F4005160
:10314000C160204601F006FE2068016921F490412B
:1031500001612068416921F02A0141612068C1684C
:1031600041F40051C1602564202084F83D0084F8BA
:103170003E00002070BD00002DE9F04F87B00446EE
:1031800014216846FDF75EFAFE48FD4B1038D4F86E
:1031900000C0FC4A02210327002506154FF0080E47
:1031A0004FF480794FF0400A4FF0006B9C4548D1B6
:1031B000136843F400231360126802F4002205929E
:1031C000026842F004020260006800F0040005900A
:1031D000B8028DE8A3406946EB48FEF755FBEC4F7B
:1031E000EA483860C7E901B5C7E903567D61C7E918
:1031F00006593D6238467D62FEF792FA08B1FEF745
:103200003BF8A763BC63E24FE04860373030C7F853
:1032100008A0C7E903567D61BD61FD613D627D6225
:10322000C7E9000B3846FEF77BFA08B1FEF724F831
:103230006763002205213420BC63FFF769F934205D
:103240006BE0D44B9C456DD11368A84643F48013C2
:103250001360126802F480120592026842F00402C0
:103260000260026802F004020592026842F008025D
:103270000260006801A900F0080005904FF480503A
:103280000090022081E8A100082004906946BE4811
:10329000FEF7FAFA0420009001A9022081E8A100BB
:1032A000082004906946BC48FEF7EEFAB848B749D2
:1032B000C03030390160C0E901B5C0E9035645614D
:1032C000C0E9065905625F464562FEF729FA08B172
:1032D000FDF7D2FFAE48B14DC030A0638463AB4868
:1032E000783085E88104C5E90386C5F81480C5F8FF
:1032F0001880C5F81C80C5F820802846C5F82480B1
:10330000FEF70EFA08B1FDF7B7FF6563002205214D
:103310003520AC63FFF7FCF83520FFF7EBF807B07A
:10332000BDE8F08F974BDFF878821B1DC4455BD159
:103330001A6842F010021A601A6802F01002059230
:10334000026842F002020260006800F0020005908C
:10335000C0208DE8A3000720049069469148FEF73D
:1033600093FADFF83882904908F160084046C8F8BF
:103370000010C0E901B5C0E90356C8F81450C0E90F
:103380000659C8F820505F46C8F82450FEF7C8F91F
:1033900008B1FDF771FFC4F83880C8F83840DFF88D
:1033A000FC81814908F1C00840467831C0E90356E4
:1033B000C8F81450C8F81850C8F81C50C8F8205065
:1033C00088E88204C8F82450FEF7AAF908B1FDF78E
:1033D00053FFC4F83480002205212520C8F8384066
:1033E000FFF796F8252098E7DFF8C081C4454BD158
:1033F000136843F400331360126802F4003205923C
:10340000026842F008020260006800F008000590BF
:1034100060208DE8A3000720049069465E48FEF70F
:1034200033FA5A48624F48303860C7E901B5C7E9F6
:1034300003567D61C7E906593D6238467D62FEF755
:103440006FF908B1FDF718FFA763BC63584F4F48E9
:1034500060376030C7F808A0C7E903567D61BD61D9
:10346000FD613D627D62C7E9000B3846FEF758F901
:1034700008B1FDF701FF6763002205212620BC6328
:10348000FFF746F8262048E7DFF82881C4455BD1DE
:10349000136843F480231360126802F480220592BB
:1034A000026842F008020260006800F0080005901F
:1034B0004FF440708DE8A300072004906946364819
:1034C000FEF7E2F9DFF8E880304908F1C008183962
:1034D0004046C8F80010C0E901B5C0E90356C8F875
:1034E0001450C0E90659C8F820505F46C8F8245067
:1034F000FEF716F908B1FDF7BFFEC4F83880C8F82A
:103500003840DFF8B480214940461831C0E90356FD
:10351000C8F81450C8F81850C8F81C50C8F8205003
:1035200088E88204C8F82450FEF7FAF808B1FDF7DD
:10353000A3FEC4F83480002205212720C8F83840B3
:10354000FEF7E6FF2720E8E61C4A94457FF4E7AE45
:103550001A6842F020021A601A6802F020020592EE
:10356000026842F004020260006800F00400059066
:10357000C0208DE8A34069460348FEF785F91FE0A7
:10358000004C0040403802400008024040600240C9
:103590007026002000500040000C024090270020C0
:1035A000001001400004024040640240004400401A
:1035B000B028002000480040D0290020001401401D
:1035C00019481A4F18384FF020683860C7E901854C
:1035D000C7E903567D61C7E906593D6238467D62F9
:1035E000FEF79EF808B1FDF747FEA763BC630F4FD7
:1035F0000D4860376030C7E903567D61BD61FD61EC
:103600003D627D6287E801053846FEF789F808B11A
:10361000FDF732FE6763002205214720BC63FEF7F9
:1036200077FF472079E6000040640240302A0020FE
:1036300090F83E30202B0ED159B152B190F83C3069
:10364000012B08D0012380F83C300023036301F0F4
:1036500007BC012070470220704790F83E30202BB5
:103660000ED159B152B190F83C30012B08D0012352
:1036700080F83C300023036301F03CBC012070471C
:10368000022070470449884204D10122BC39024813
:10369000FFF7E3BF7047000060250020704700007F
:1036A00070B5044690F83D00202836D191B38AB316
:1036B00094F83C00012830D0012084F83C002162BD
:1036C000A284E28400252564212084F83D00636BF8
:1036D0001348D863636B13481864636B1248D8644B
:1036E000606B134605652668606B321DFEF782F835
:1036F00021686FF04000086084F83C502068143066
:1037000050E8001F41F0800140E80012002AF5D186
:10371000002070BDFFE70120FBE70220F9E7000071
:10372000DF4B0008214C0008F94A0008416B09688A
:103730000A6822F001020A600A49006809688842A2
:1037400005D10948017821F002010170704705494F
:10375000883909688842F9D100224FF48061034812
:10376000FEF797B960250020A0200020000002404D
:1037700070472DE9F047074600680D4600EB4116FB
:10378000D6F8080501EB4103420703EBC5014FF0F2
:1037900006004FF004084FF0050A07EB810401D53D
:1037A00041463CE0D6F80815C90507D54FF48070AE
:1037B000C6F80805072084F861001CE0D6F8081553
:1037C000890603D52020C6F8080518E0D6F80815A4
:1037D0000A074FF0080104D5C6F8081584F861A05F
:1037E00009E0D6F80825520514D54FF48060C6F8D4
:1037F000080584F861102946386803F0ECFDD6F816
:10380000080580050ED52946386803F0E4FD4FF41D
:103810000070A0E0D6F808150906F0D58021C6F89A
:103820000815C8E7D6F808054FF00001C0074FF0AB
:1038300010094FF001023BD0386930B1A06CD6F8C6
:103840001035C3F31203C01A206584F86120E165C6
:10385000C6F8082594F83F0030B1022804D00328A8
:1038600009D0012807D012E02946386803F0B3FDDB
:10387000C6F808950BE0D6F8000540F00050C6F8F1
:10388000000584F8602029463846FEF779F9386942
:10389000012806D1B4F84010A06CB0FBF1F0C007CD
:1038A00004D014F8540F80F001002070BDE8F087B8
:1038B000D6F80805800735D594F861000223012861
:1038C0000AD005280BD006280CD008280AD00328D7
:1038D0000FD0072818D01CE084F8602019E084F885
:1038E00060A016E0E06D401CE065022801D9E165AA
:1038F0000DE084F86030D6F8000520F0804040F0FC
:103900000040C6F8000504E0E06D401CE06584F866
:103910006080C6F8083594F8602029463846FEF7DE
:103920002FF9C3E7D6F80805C006BFD594F83F00C5
:10393000032803D020B1022802D00BE0E16505E0A6
:10394000E165386930B9032084F861002946386898
:1039500003F041FD4846C6F80805A7E72DE9F04702
:10396000026802EB4114D4F8082501EB4103550726
:1039700003EBC1034FF004024FF0060A00EB830390
:1039800004D5C4F8082583F861A051E0D4F808559F
:103990004FF00007AD064FF0020C0BD52022C4F803
:1039A000082593F83D20012A33D183F83D7083F830
:1039B00060C03DE0D4F80855AD0504D54FF4007261
:1039C000C4F8082534E0D4F808554FF001065FEA42
:1039D000C5784FF040050DD0DF65D4F808255206B4
:1039E00003D583F83D60C4F80855C4F8086583F82A
:1039F00061601DE0D4F808855FEA48680BD583F85C
:103A0000612083F83D60DF65006803F0E4FCC4F8E2
:103A10000855BDE8F087D4F808554FF008095FEA6B
:103A200005784FF0050508D5C4F8089583F861506E
:103A30000068BDE8F04703F0CEBCD4F808855FEA23
:103A4000C86810D50322DF6583F8612093F83D2014
:103A500022B993F83C200AB983F83D60006803F06E
:103A6000BAFC10201AE0D4F808855FEA086818D577
:103A7000056955B1DD6D6D1CDD65022D0BD9DF6566
:103A800083F86020FEF77CF807E083F861A0006807
:103A900003F0A1FC01E083F860C08020C4F80805B1
:103AA000B7E7D4F808855FEA485807D583F86190EE
:103AB000006803F090FC4FF48060EFE7D4F80885CD
:103AC0005FEA8878A5D593F86180B8F1010F0FD02F
:103AD000B8F1030F30D0B8F1040F2DD0B8F1050FB5
:103AE0002DD0B8F1060F2DD0B8F1080F2AD03CE048
:103AF00083F8606093F83F20022A01D0032A34D172
:103B000002692AB993F8552082F0010283F8552002
:103B10000269012A29D1DA6C3AB3B3F840502A4439
:103B2000521EB2FBF5F2D2071FD093F8552082F057
:103B3000010283F8552018E083F860C015E083F88F
:103B4000605012E0DD6D6D1CDD65022D03D9DF656F
:103B500083F8602009E083F860C0D4F8002522F0E3
:103B6000804242F00042C4F80025C4F808C593F82A
:103B70006020FEF705F84CE77CB504680546D4F8EC
:103B800040040190D4F8400420F02E0000900198E9
:103B9000800709D50198C00702D02846FDF784FFA9
:103BA000009840F0020000900198000724D500988A
:103BB00040F008000090019840071AD5A869022833
:103BC00003D0E86801280CD00FE00198C0F3414011
:103BD0000228286803D0012103F0F2FD05E002214C
:103BE000FAE74EF66020C4F804042846FEF736F9DA
:103BF00002E02846FEF72EF901988006009802D5CB
:103C000040F020000090C4F840047CBD2DE9F04154
:103C1000024600680646016AC1F3434301F00F07FC
:103C2000C1F30A15022B31D1002D2FD007EB47012C
:103C300001EBC70102EB8104616C002926D0226DE3
:103C4000E36C2A449A4223D82A4603F0D8FD606CDC
:103C500028446064206D2844206506EB4710D0F8A6
:103C60001015B4F84020C1F3C941AA420ED1002971
:103C70000CD0D0F8001521F0804141F00041C0F88F
:103C8000001514F8540F80F001002070BDE8F08199
:103C9000042084F86000F9E7FEE701684A69D2432E
:103CA00052050FD46FF480624A61002140F8301F42
:103CB000202242738173026942F00402026101739F
:103CC00001207047002070472DE9F84F0446006836
:103CD00089460B9D01689846174641F48061016052
:103CE0002068016841F48071016000954FF0011B6C
:103CF0000022594620460A9B00F0DEF84FF4007A75
:103D000040B120680068C00501D5C4F840A0032078
:103D1000BDE8F88F216809F0FE0008612B462849AC
:103D200020460A9A00F0FCF8F0BB206841698069DF
:103D300000902A4620460A9900F070F940B1206CA4
:103D400004283AD12068016841F40071016034E030
:103D5000FEB2B8F1010F09D02168380A08612A467D
:103D600020460A9900F05AF90028E8D12068066137
:103D70002A4620460A9900F051F90028DFD1206830
:103D8000016841F480710160009500225946204687
:103D90000A9B00F091F80028B3D1216809F0FF00D8
:103DA00040F00100086100E007E02B46044920468E
:103DB0000A9A00F0B5F80028AAD00120A8E7000070
:103DC000020001002DE9F843044600680D46DDE9D4
:103DD000089701689846164641F4807101604B4689
:103DE00000224FF001112046009700F065F848B11D
:103DF00020680068C00502D54FF4007020640320DD
:103E0000BDE8F883216805F0FE0008613B464A469C
:103E10001549204600F084F888B920684169806916
:103E200000903A464946204600F0F8F848B1206C28
:103E3000042804D12068016841F400710160012068
:103E4000DEE7F5B2B8F1010F09D02168300A086148
:103E50003A464946204600F0E1F80028E7D12068BC
:103E600005610020CCE700000200010070B5164695
:103E70000D4604460DE02046FFF70FFF08B1012074
:103E800070BD681C05D0FDF709FE801BA84207D84D
:103E900035B120684069C0434007ECD4002070BDB4
:103EA000002044F8300F20216173A073216941F094
:103EB000200121612073E2E72DE9F0471E4690467C
:103EC0000D460446C1F30747DDF8209008E0701C5A
:103ED00006D0FDF7E3FDA0EB0900B0420FD876B1A4
:103EE0002068012F18D0806925EA00000004000C2A
:103EF00014D000214145EAD00020BDE8F087002021
:103F000044F8300F20216173A073216941F0200132
:103F1000216120730120F0E74069E5E70121E9E72D
:103F20002DE9F0479A4691460E46044600254FF08B
:103F30002008C1F3074725E020684069C0434005D9
:103F400014D42068016841F40071016021686FF4A5
:103F500080604861256384F83D8084F83E50206C81
:103F600040F00400206484F83C501FE0B9F1FF3FAA
:103F700008D0FDF793FDA0EB0A0149450CD8B9F133
:103F8000000F09D02068012F13D0806926EA0000B5
:103F90000004000C0BD0CFE744F8305F84F80D80AC
:103FA000A573206940F02000206125730120BDE841
:103FB000F0874069EAE72DE9F041002590460E467A
:103FC0000446202717E04069C043C0060CD454F8CB
:103FD000301B6FF01000486144F810596777A577DF
:103FE000206A2062257717E0FDF758FDA0EB080056
:103FF000B04208D83EB120684169C9434906E2D4BD
:104000000020BDE8F08144F8305F6773A573206934
:1040100040F02000206125730120F2E770B51646BC
:104020000D4604460DE02046FFF737FE08B101209B
:1040300070BD681C05D0FDF731FD801BA84207D874
:1040400035B120684069C0430006ECD4002070BD43
:10405000002044F8300F20216173A073216941F0E2
:10406000200121612073E2E770B56424054601292F
:1040700011D005F0B7FA6320401EFDD1284605F0A7
:10408000BFFA611E491EFDD1284605F0ABFA641E39
:10409000641EFDD170BD05F0B3FA6320401EFDD152
:1040A000284605F09FFA611E491EFDD1284605F0FD
:1040B000A7FA641E641EFDD170BD000070B50346F2
:1040C00000200246012906D002290AD0032906D081
:1040D000042907D101E0012204E0082202E00422C1
:1040E00000E00222082B15D2C3F1070101EBD176C3
:1040F0000B4DC6F34703042BEC5C0BD226F00100FA
:10410000081A10F0FF0F06D004F00F0141EA021068
:10411000E854012070BD04F0F0001043F8E70000FF
:104120003F11002000B585B017A083684268016880
:10413000C06802930192009103900022164917482B
:1041400004F0D2FC18B1FDF797F805B000BD0A22C3
:104150001349144804F014FD18B1FDF78DF805B0AB
:1041600000BD04AB142210490E4804F06AFE049905
:1041700001B118B1FDF780F805B000BD094804F0A1
:1041800099FC05B000BD000068656C6C6F20776F0E
:10419000726C642100000000031D0020587B002089
:1041A000081D00208C7D0020291D00207FB50024E3
:1041B00015480094019402941249039401604FF44D
:1041C0008031C0E901140461047680F820400F4971
:1041D000C0E90A140125C561C46080F8304045611A
:1041E000FDF718F908B1FDF747F80820CDE90005FB
:1041F000694602940448FDF767F8002801D0FDF7EE
:104200003BF87FBD00200140BC1F00200100000FD3
:10421000394808B5016841F480010160016801F482
:1042200080010091016841F40011016000680022E2
:1042300000F40010009005210B20FEF769F90B2017
:10424000FEF758F9002205210C20FEF761F90C2039
:10425000FEF750F9002205210D20FEF759F90D2037
:10426000FEF748F9002205210E20FEF751F90E2035
:10427000FEF740F9002205210F20FEF749F90F2033
:10428000FEF738F9002205211020FEF741F9102031
:10429000FEF730F9002205211120FEF739F911202F
:1042A000FEF728F9002205212F20FEF731F92F20F3
:1042B000FEF720F9002205213920FEF729F93920DF
:1042C000FEF718F9002205213A20FEF721F93A20DD
:1042D000FEF710F9002205214520FEF719F94520C7
:1042E000FEF708F9002205214620FEF711F9BDE886
:1042F00008404620FEF7FEB830380240002805D0BE
:1043000001224FF400610248FDF7C3BB0022F8E729
:10431000000C024010B503490348FCF7AFFF034906
:10432000087010BD031D0020D4DB0008021D002012
:1043300010B58EB01C220B496846FCF72FF90021FE
:10434000684606F02FFA084C06491C2260601C31B2
:1043500007A8FCF723F9002107A806F023FAA060BC
:104360000EB010BD28D90008000000202DE9F04F44
:1043700087B014216846FCF765F97248002501688A
:1043800041F010010160016801F010010591016820
:1043900041F004010160016801F004010591016828
:1043A00041F080010160016801F080010591016820
:1043B00041F001010160016801F00101059101680E
:1043C00041F002010160016801F0020105910168FC
:1043D00041F0080101600068DFF86C9100F008000E
:1043E000059000224FF67F014846FDF752FBDFF8AB
:1043F0005CA1002208215046FDF74BFBDFF850B1CD
:10440000012211465846FDF744FB00224FF48C610F
:104410005846FDF73EFB002248F680014D48FDF767
:1044200038FB012220214C48FDF733FB01244FF6D5
:104430000400CDE900040294694648460394FDF760
:1044400023FA7B20CDE9000469464846CDE90245C0
:10445000FDF71AFA32200226CDE9000602AA032748
:104460004FF00B0882E8A00169465046FDF70CFAB0
:104470000820CDE9000469465046CDE90245FDF724
:1044800003FA40F26140CDE9000469465846CDE99F
:104490000245FDF7F9F98620CDE9000602AA694632
:1044A00082E8A0015846FDF7EFF91820CDE9000594
:1044B000694602945846FDF7E7F9A002CDE90005E8
:1044C000694602944846FDF7DFF94FF46050CDE9A4
:1044D000000602AA694682E8A0011F48FDF7D4F948
:1044E000B803CDE9000602950C20CDE903706946BA
:1044F0001948FDF7C9F9E0028DE831006946154811
:104500000395FDF7C1F946F20100CDE900056946C2
:1045100002941048FDF7B8F948F28000CDE9000494
:1045200069460C48CDE90245FDF7AEF92020CDE9FA
:1045300000040294694608480394FDF7A5F907B002
:10454000BDE8F08F30380240001002400008024001
:1045500000000240000C0240000402400D4810B56B
:104560000B4901600C49416000214FF48042816099
:10457000C0E9031241618161C1610162FDF7A2FCE2
:10458000002803D0BDE81040FCF776BE10BD000047
:104590000054004004200020801A06001CB50024AE
:1045A0000E4800940C49019401605321C0E90114A4
:1045B0004FF6FF718461C160FEF7FAFA08B1FCF7AB
:1045C0005BFE0094694605480194FEF7A9FA0028AD
:1045D00001D0FCF751FE1CBD001400405820002003
:1045E0000C4810B50A4901604FF4E13141600021E7
:1045F00081600C22C160C0E904128161C161FEF7D3
:1046000089FD002803D0BDE81040FCF735BE10BD81
:10461000004C0040D82400200C4810B50A49016025
:104620004FF4E1314160002181600C22C160C0E99A
:1046300004128161C161FEF76DFD002803D0BDE861
:104640001040FCF719BE10BD005000401C25002092
:104650000C4810B50A4901604FF4E1314160002176
:1046600081600C22C160C0E904128161C161FEF762
:1046700051FD002803D0BDE81040FCF7FDBD10BD82
:1046800000100140602500200C4810B50A49016067
:104690004FF4E1314160002181600C22C160C0E92A
:1046A00004128161C161FEF735FD002803D0BDE829
:1046B0001040FCF7E1BD10BD00440040A4250020DF
:1046C0000C4810B50A4901604FF4E1314160002106
:1046D00081600C22C160C0E904128161C161FEF7F2
:1046E00019FD002803D0BDE81040FCF7C5BD10BD82
:1046F00000480040E82500200C4810B50A49016038
:104700004FF4E1314160002181600C22C160C0E9B9
:1047100004128161C161FEF7FDFC002803D0BDE8F1
:104720001040FCF7A9BD10BD001401402C2600204C
:1047300010B501220B490C4801F086F808B1FCF7CE
:104740009BFD0A49084802F078FC08B1FCF794FD8B
:10475000054802F0B8FC002803D0BDE81040FCF783
:104760008BBD10BDDD70000874770020481D00204F
:10477000FEE700000C480B4900F5417201604A61F8
:10478000911C02689161026800F58271D161026832
:1047900000F5017111620021A0F8041380F80613DE
:1047A00070470000B81B00204C110020FEE70000FD
:1047B0000148FDF736BA0000BC7F00200C4910B557
:1047C0000B888C880989234419440A4B89B240F22A
:1047D000E5741960024661430020C1F30B018A426F
:1047E00004D142F2CD00C3E90120012010BD000038
:1047F000207200207814002070B5174C0125207815
:10480000C0B1012804D002280BD0032812D10CE03B
:10481000608808B102202070A08860B10320207059
:1048200009E0204600F01AF802E0204600F032F8D5
:10483000012800D12570052004F0B6FE012802D120
:10484000E088401CE080042004F0AEFE012802D184
:104850002089401C208170BD5674002070B50C4C1E
:10486000014642886078002542B1521E4A8068B9EC
:10487000092004F0C5FE0120607007E0012805D181
:10488000092004F0AFFE002060700125284670BDAD
:10489000F01C002070B50C4C014682882078002561
:1048A00042B1521E8A8068B9092004F0A9FE012095
:1048B000207007E0012805D1092004F093FE0020B4
:1048C00020700125284670BDF01C0020FFF730FF46
:1048D000074D084C0026012005F047FE20880C28D3
:1048E000F9D128780228F6D12680FFF71BFCF2E7E1
:1048F000071D002000000020012005F036FE03F017
:1049000089FAF9E710B5502080F31188BFF34F8F73
:10491000BFF36F8F08F08EFD18B104494FF080503F
:104920000860002080F3118810BD000004ED00E055
:1049300030B593B030216846FBF784FE14210CA8F3
:10494000FBF780FE1E480025016841F080510160A0
:10495000006800F0805011901A48016841F48041CD
:1049600001600068022400F4804011900120009052
:10497000000401908001CDE90640192008904FF411
:10498000A870CDE9090407200B906846FDF710FFD9
:1049900008B172B6FEE70CA90F2081E831004FF490
:1049A000A0500F904FF48050109005210CA8FDF7F7
:1049B000F3FD002801D072B6FEE713B030BD000051
:1049C00040380240007000400248016841F4700124
:1049D0000160704788ED00E003480168491C0160F0
:1049E0000248FEF768B900000C000020F02A002001
:1049F000F0B50268254C264D264E274F274B4FF029
:104A0000804CA04209D0604507D0A84205D0B042F2
:104A100003D0B84201D0984204D122F0700E4A6807
:104A200042EA0E02A0421BD0604519D0A84217D01E
:104A3000B04215D0B84213D0984211D0184DA842B8
:104A40000ED0184DA8420BD0174DA84208D0174DD4
:104A5000A84205D0164DA84202D0164DA84203D157
:104A600022F44075CA682A434D6922F080022A4325
:104A700002608A68C2620A688262A04201D09842DB
:104A800001D10969016301214161F0BD00000140CC
:104A90000004004000080040000C004000040140F9
:104AA000004001400044014000480140001800401F
:104AB000001C00400020004010B5044802F0E2FF56
:104AC000BDE810400148FEF7F1B90000D8240020ED
:104AD00010B5044803F00AF8BDE810400148FEF79D
:104AE000E5B900001C25002010B5806B0021C185B0
:104AF000C184FEF7D9F910BD70B5846B2068406998
:104B000094F83D10C0F3C0100025212904D118B13C
:104B1000E584204600F0B0F82068406994F83E1023
:104B2000C0F38010222904D118B1E585204600F099
:104B30007CF8206C40F0100020642046FEF7B4F9A9
:104B400070BD10B50146806B09680968C9052FD48E
:104B50000021C18501680C3151E8002F22F48072D8
:104B600041E80023002BF5D10168143151E8002FF2
:104B700022F0010241E80023002BF5D10168143135
:104B800051E8002F22F0400241E80023002BF5D12C
:104B9000202180F83E10016B012909D101680C31F8
:104BA00051E8002F22F0100241E80023002BF5D13C
:104BB000016B012902D0FEF765FD10BD818DFEF766
:104BC0003AF910BD10B5806B016B012902D0FEF7D8
:104BD00065FD10BD818D4908FEF72DF910BD10B59A
:104BE0000146806B09680968C90516D40021C18493
:104BF0000168143151E8002F22F0800241E80023BF
:104C0000002BF5D101680C3151E8002F42F0400231
:104C100041E80023002BF5D110BDFEF787FD10BD44
:104C200010B5806BFEF7A4FD10BD01680C3151E892
:104C3000002F22F4907241E80023002BF5D1016887
:104C4000143151E8002F22F0010241E80023002B2B
:104C5000F5D1016B012909D101680C3151E8002F10
:104C600022F0100241E80023002BF5D1202180F82A
:104C70003E1000210163704701680C3151E8002F9C
:104C800022F0C00241E80023002BF5D1202180F85A
:104C90003D10704708B590F83E10222901D002203F
:104CA00008BD82684FF480539A4201D1016921B155
:104CB000816A9A421BD04AB10AE00268816A52684E
:104CC000C2F308020A80816A891C08E0026972B195
:104CD0000268526802F07F020A70816A491C816290
:104CE000C18D491E0904090CC18503D019E0026871
:104CF0005268F1E70168CA6822F02002CA600168C0
:104D0000CA6822F48072CA6001684A6922F001020E
:104D10004A61202180F83E10016B012903D0FEF783
:104D2000B1FC002008BD0021016301680C3151E88D
:104D3000002F22F0100241E80023002BF5D101687A
:104D40000A68D20602D50A6849680091818DFEF78B
:104D500072F8E6E770B5044600680169E26821F47C
:104D60004051114301612169A068E269084361690A
:104D7000114308432168CA6849F20C639A4302430D
:104D8000CA6020684169A26921F440711143416100
:104D900031492068884202D03049884202D1FDF76B
:104DA000C5FC01E0FDF7B2FCE2690023192164258E
:104DB0003226B2F5004F626828D0A0FB0101930FA4
:104DC0009200FBF72FFB0146B0FBF5F06FF01802E5
:104DD000504301EB800006EB0010B0FBF5F000F053
:104DE000F002B1FBF5F002EB0012B1FBF5F06FF051
:104DF0001803584301EB800006EB0010B0FBF5F000
:104E000000F00F0021681044886070BDA0FB010114
:104E100092185B41FBF706FB0146B0FBF5F002017F
:104E2000B1FBF5F06FF01803584301EB800006EB7F
:104E3000C000B0FBF5F000F0F80002EB4002B1FB5F
:104E4000F5F0584301EB800006EBC000B0FBF5F035
:104E500000F00700D6E700000010014000140140F8
:104E600038B58162828500251346044605642220F8
:104E700084F83E00A26B1C48D063A26B1B481064F0
:104E8000A26B1B48D064A06B0A4605652168A06B25
:104E9000091DFCF7AFFC206801684068009084F8A9
:104EA0003C50206948B120680C3050E8001F41F4A4
:104EB000807140E80012002AF5D12068143050E8D3
:104EC000001F41F0010140E80012002AF5D12068DE
:104ED000143050E8001F41F0400140E80012002A61
:104EE000F5D1002038BD0000434B0008C54B000839
:104EF000F94A000881628285C2850021016422226C
:104F000080F83E2080F83C10016921B10168CA6830
:104F100042F48072CA6001684A6942F001024A6143
:104F20000068C16841F02001C160002070470000A6
:104F300010B5044802F024FDBDE810400148FDF71B
:104F4000B5BF00006025002010B5044802F040FD08
:104F5000BDE810400148FDF7A9BF0000A4250020CE
:104F600010B5044802F05CFDBDE810400148FDF7B3
:104F70009DBF0000E825002010B5044802F0EAFDBE
:104F8000BDE810400148FDF791BF00002C2600202D
:104F90000C4810B590F8CC10D0F8C8209C30904741
:104FA000084890F80011D0F8FC20D0309047054810
:104FB00090F83411D0F83021BDE8104000F582702F
:104FC00010470000B81B002070B504460D4620466F
:104FD00000F012F9A0F57F42FF3A07D000F00F026F
:104FE00004EB820245F40041C2F88413C0B270BDE4
:104FF00030B585B01D4601244FF0000C029201919E
:105000000223CDF80CC000942246294600F05BFD37
:1050100005B0002030BD30B585B08C4608991D46DE
:1050200090F81D43002C00D000210124029203912E
:105030000223CDF804C000940022294600F043FD6D
:1050400005B0002030BD10B500F040FC002010BDC0
:105050008278012A07D102220274012242740022BE
:1050600042828182C2820022114600F013B830B51C
:1050700085B01D464FF0000C012402920191634659
:10508000CDF80CC000942246294600F01CFD05B066
:10509000002030BD2DE9F04104460125A07801260D
:1050A0000327012802D0022825D10DE0A160A281AA
:1050B00026760220A0703946C4F8E0730022D4F8A6
:1050C000D80305F0BBFA16E0204600F003F90546C8
:1050D00025B1032D02D0022D04D004E0A6700020DB
:1050E000207600E0A6703946C4F8E0730022D4F8B8
:1050F000D80305F0A3FA2846BDE8F08130B585B0A5
:105100008C4608991D4690F81D43002C00D00021C4
:105110000124002302920391CDF804C000941A46A2
:10512000294600F0D0FC05B0002030BD10B584B099
:10513000144600234FF0080C019100931A46CDF855
:1051400008C00393214600F0BEFC04B0002010BD4F
:10515000FCF788BB30B4844600200CF54E7400EB9D
:10516000800C0CEBC00C04EB4C0C0CF10A0C9CF802
:1051700005508D4201D0FF290BD19CF80650954275
:1051800001D0FF2A05D19CF807C09C4506D0FF2B13
:1051900004D0401CC0B20228E1D3FF2030BC7047CD
:1051A000102907D200EB8100B0F88413C1F30E017F
:1051B000C0F884130020704730B48C46029984787C
:1051C000012C10D14CF0800C80F810C04FF0060C70
:1051D00080F811C0428202F47F42B2F5407F07D0CE
:1051E00000228282C1820A4630BC1946FFF752BFB4
:1051F00040F209428282F5E70146002001EB80027D
:10520000B2F8842312F4004F05D0401CC0B210281D
:10521000F4D34FF6FF7070470A8803781A440A8067
:10522000017808447047F8B505460E4605F11C04A0
:1052300023464FF40072002128460096FFF7BCFF7A
:10524000002806D1324621462846BDE8F84001F044
:1052500004BCF8BDF8B504460E4604F58E734FF451
:105260008072002120460096FFF7A6FF054635B95B
:10527000324604F58E7104F2263001F089FC28468E
:10528000F8BDF8B5044617461E4641F4407204F5D1
:105290008E73002120460096FFF78EFF05462DB93C
:1052A0003246394604F58E7001F006FD2846F8BDF9
:1052B00001460020002906D0012905D0022905D089
:1052C000032905D002207047022070470120704753
:1052D00002207047F8B504460125207E0C2880F096
:1052E0005C81DFE800F07F06104653808EC9D5EE62
:1052F000EDEC627904F110012046FFF717FF022060
:10530000207600F04AB96179204600F04CFB012874
:1053100005D0042821D002281FD000F03EB9207CFF
:1053200000F08000E18A39B1802802D00520207683
:1053300006E00320207603E080280BD007202076AB
:105340000321C4F8E0130022D4F8D80305F076F95D
:1053500000F023B909202076F2E70B202076032104
:10536000C4F8E0130022D4F8D80305F067F900F080
:1053700014B9D4F8C403E0812379A2892046A16836
:10538000FFF775FE0420207600F007B9217920464A
:1053900000F009FB0646012E09D1092020760321E1
:1053A000C4F8E0130022D4F8D80305F047F9052E1D
:1053B00003D0042E0CD000F0F0B803250321C4F86C
:1053C000E0130022D4F8D80305F038F900F0E5B86E
:1053D0000B2020760321C4F8E0130022D4F8D80370
:1053E00005F02CF9D9E0012000906379A2892046CC
:1053F000A168FFF783FED4F8C403E081062020767D
:10540000CBE06179204600F0CEFA012806D00528CD
:105410000FD0022819D0042822D0BEE00720207621
:105420000321C4F8E0130022D4F8D80305F006F9EC
:10543000B3E00C20207603250321C4F8E0130022FA
:10544000D4F8D80305F0FAF8A7E005202076032168
:10545000C4F8E0130022D4F8D80305F0EFF89CE07C
:105460000B20207602250321C4F8E0130022D4F893
:10547000D80305F0E3F890E0002223791146204696
:10548000FFF7F5FDD4F8C403E0810820207684E01E
:105490002179204600F087FA012804D0042811D091
:1054A00005281AD079E00D20207600250321C4F8C4
:1054B000E0130022D4F8D80305F0C0F86DE051E005
:1054C00023E014E00B2020760321C4F8E01300222F
:1054D000D4F8D80305F0B2F85FE003250321C4F83F
:1054E000E0130022D4F8D80305F0A8F855E0012015
:1054F00000900022637911462046FFF7FFFDD4F8A3
:10550000C403E0810A20207647E06179204600F05C
:105510004AFA012804D002280ED0042817D03CE013
:1055200000250D2020760321C4F8E0130022D4F8D2
:10553000D80305F083F830E0092020760321C4F871
:10554000E0130022D4F8D80305F078F825E00B200A
:1055500020760321C4F8E0130022D4F8D80305F024
:105560006DF81AE0607E401CC0B26076022803D855
:1055700001202076A07010E0D4F8D4230621204624
:1055800090470025657661792046FFF709FE21796D
:105590002046FFF705FE257002252846F8BD2DE9B7
:1055A000F04383B004460125607800260D27A94604
:1055B0004FF00508082880F03881DFE800F0044348
:1055C0006591B1D2F5F408212046FFF743FE18B1EA
:1055D000032821D000F029B994F82D03A07184F894
:1055E000019094F81D1302900196009194F81C33D9
:1055F00021798022204601F021FAA07994F81D1328
:1056000002900196009194F81C33617900222046A3
:1056100001F014FA00F009B994F81E03401CC0B25E
:1056200084F81E03032802D9277000F0FEB86179C0
:105630002046FFF7B5FD21792046FFF7B1FD267022
:1056400000F0F3B812212046FFF704FE18B103283A
:1056500005D000F0EAB80220607000F0E6B894F8D7
:105660001E03401CC0B284F81E03032801D9277012
:10567000DBE061792046FFF793FD21792046FFF7B3
:105680008FFD66702670D0E00121204601F0F1FC0C
:1056900010B1032821D0C8E00220FFF759FD4B4686
:1056A00084F81C9303206070A07994F81D13029075
:1056B0000196009121798022204601F0BFF9A0795E
:1056C00094F81D1302900196009194F81C336179AF
:1056D0000022204601F0B2F9A7E027706670A4E02E
:1056E00009212046FFF79FFD10B1032803D09CE05D
:1056F0000420607099E094F81E03401CC0B284F846
:105700001E03032801D927708FE061792046FFF737
:1057100047FD21792046FFF743FD6670267084E03F
:10572000B4F83A132046FFF77EFD10B1032803D0EA
:105730007BE084F8018078E094F81E03401CC0B23E
:1057400084F81E03032801D927706EE06179204692
:10575000FFF726FD21792046FFF722FD66702670AF
:1057600063E094F834130626F9B1FF2304F58E7232
:105770002046FFF786FD10B103280AD055E0667079
:105780004146C4F8E0830022D4F8D80304F056FF61
:105790004BE066704146C4F8E0830022D4F8D80399
:1057A00004F04CFF41E02EE009E066704146C4F889
:1057B000E0830022D4F8D80304F040FF35E094F8E9
:1057C00035130726A9B1FF2304F58E722046FFF793
:1057D00058FD10B1032802D027E0667025E06670FE
:1057E0004146C4F8E0830022D4F8D80304F026FF31
:1057F0001BE066704146C4F8E0830022D4F8D80369
:1058000004F01CFF11E094F8361369B1FF2304F58E
:105810008E722046FFF735FD10B1032802D004E058
:10582000002502E0002500E0002503B02846BDE881
:10583000F08301780B2905D1D0F87C13002901D021
:10584000896908477047000070B58CB004460E4661
:10585000002C36D084F8CC230025C4F87C53C4F83F
:1058600080532046FBF7E2FC84F8235384F820534E
:1058700084F8215384F822530EB1C4F8D463124D36
:1058800008AE95E80F000FC6002108A804F079FEC5
:10589000C4F8D80305F110006E6A90E80F10AD6AE5
:1058A000CDE905C6079501AD0FC5214601A804F055
:1058B00079FFC4F8DC03204600F080F80CB000202B
:1058C00070BD0CB0022070BDE8DB000810B5D0F848
:1058D000D003FCF708F9BDE81040FFF7E9BC10B5AC
:1058E000012180F82013002280F8212380F8222350
:1058F000C0F8E013D0F8D80304F0A0FE002010BDDB
:1059000070B50446012584F82153002084F8200353
:1059100084F82303204600F0CDF821792046FFF7D4
:105920003FFC61792046FFF73BFCC4F8E0530022BE
:105930002946D4F8D80304F081FE002070BD10B5CC
:1059400090F8CC03012802D10846FEF7D7FCC82006
:10595000FBF788FF002010BDD0F8D003FCF7BBB8E0
:1059600010B50124D0F8D003FCF7A9F820B1012824
:1059700005D0022803D101E0002400E002242046E3
:1059800010BDD0F8D00301EB410202EBC10100EBE6
:10599000810090F83B10002902D090F85400704725
:1059A00090F855007047D0F8D003FCF78BB8D0F8CA
:1059B000C413491CC0F8C413FFF73BBF10B504461D
:1059C00094F8CC0301281CD10F48C0F80043C4F858
:1059D000D0034FF0A0410160082181600121C16026
:1059E0000021016102228261C161FCF7B7F908B1AF
:1059F000FBF742FC0448FCF75FF80146204600F044
:105A00003AF8002010BD0000BC7F002010B5012135
:105A1000C0F8E013D0F8D803002204F00FFE0020F5
:105A200010BD30B583B0DDF818C0089D079CCDF8D7
:105A300000C002950194D0F8D003FCF766F803B0DB
:105A4000BDE83040FFF734BC002180F823137047D5
:105A5000012180F82313C0F8E013D0F8D803002206
:105A600004F0ECBD10B5D0F8D003FCF7FBF9BDE8AD
:105A70001040FFF71DBCC0F8C4137047D0F8D00326
:105A800001EB410303EBC10100EB810090F83B10F7
:105A9000002902D080F8542001E080F85520002031
:105AA000704710B5D0F8D003FCF7E3F9BDE810401B
:105AB000FFF7FEBB10B5D0F8D003FCF7F0F9BDE856
:105AC0001040FFF7F5BB70B584B0DDF820C00B9E29
:105AD0000A9D099CCDF800C0039602950194D0F868
