:020000040800F2
:10000000E0D00020310300083158000849420008C0
:10001000A1530008B9120008559400080000000020
:100020000000000000000000000000007102000855
:100030004F14000800000000CD0200089959000884
:100040004B0300084B0300084B0300084B03000858
:100050004B0300084B0300084B0300084B03000848
:100060004B0300084B0300084B030008BD120008B7
:10007000C9120008D5120008E1120008ED120008AC
:10008000F9120008051300084B0300084B03000891
:100090004B0300084B0300084B0300084B03000808
:1000A0004B0300084B0300084B0300084B030008F8
:1000B0004B0300084B0300084B0300084B030008E8
:1000C0004B0300084B0300084B0300084B030008D8
:1000D0004B030008C55F0008DD5F0008F55F0008FE
:1000E0004B0300084B0300084B0300084B030008B8
:1000F0004B0300084B0300084B03000811130008D2
:100100004B0300084B0300084B0300084B03000897
:100110004D5B0008655B00086D5A00084B03000842
:100120004B0300081D130008291300084B030008A7
:100130004B0300084B0300084B0300084B03000867
:100140004B0300084B0300084B0300083558000818
:100150004B03000835130008411300080D60000828
:100160004B0300084B0300084D5800084158000895
:100170004B030008595800084B030008000000001A
:100180004B0300084B03000800F002F800F060F891
:100190000AA090E8000C82448344AAF10107DA45E2
:1001A00001D100F055F8AFF2090EBAE80F0013F0D4
:1001B000010F18BFFB1A43F0010318474800010064
:1001C000680001000A444FF0000C10F8013B13F0E6
:1001D000070408BF10F8014B1D1108BF10F8015BA0
:1001E000641E05D010F8016B641E01F8016BF9D193
:1001F00013F0080F1EBF10F8014BAD1C0C1B09D1EA
:100200006D1E58BF01F801CBFAD505E014F8016B5B
:1002100001F8016B6D1EF9D59142D6D370470000ED
:100220000023002400250026103A28BF78C1FBD8FF
:10023000520728BF30C148BF0B6070471FB50FF091
:100240001FFE9DE8030000F06BFA1FBD10B510BD46
:1002500000F0C2FA1146FFF7F1FF0CF01DFA00F0B2
:10026000E0FA03B4FFF7F2FF03BC00F011FB00005B
:100270002C4B19680868B0E8F04F80F30988BFF389
:100280006F8F4FF0000080F311887047000000006E
:1002900008480068006880F308884FF0000080F389
:1002A000148862B661B6BFF34F8FBFF36F8F00DF64
:1002B00000BF00BF08ED00E0DFF80C00016841F46A
:1002C00070010160704700BF88ED00E0EFF3098026
:1002D000BFF36F8F134B1A681EF0100F08BF20ED8D
:1002E000108A20E9F04F106009B44FF0500080F3FD
:1002F0001188BFF34F8FBFF36F8F0EF0D7FD4FF014
:10030000000080F3118809BC19680868B0E8F04F54
:100310001EF0100F08BFB0EC108A80F30988BFF3FD
:100320006F8F70471C000020EFF3058070470000BE
:100330000948804709480047FEE7FEE7FEE7FEE779
:10034000FEE7FEE7FEE7FEE7FEE7FEE704480549B5
:10035000054A064B704700005D5A000889010008F5
:10036000E0B00020E0D00020E0C00020E0C000208D
:1003700070B5064600F0B8F9056806F10B0020F0EC
:100380000704B4429CBF002070BD2B466A68BAB116
:100390001068A04210D304F1080188423CBF5068A5
:1003A000586007D35168101941601168091B01603A
:1003B00058601460101D70BD13465268002AE7D1C2
:1003C0002146284600F098F90028DED170BD70B5AE
:1003D0000446051F00F088F90068002C14BF44682B
:1003E00070BD002C18BFAC423CBF20466468F8D3F7
:1003F00001680A18AA4218BF456003D12A68054659
:100400001144016028684119A1421CBF6C6070BD95
:100410006168696021680844286070BD53EA020C75
:1004200000F069802DE9F04B4FF00006002B1FBF54
:10043000B3FA83F503FA05F424FA05F65E4012BF19
:100440001643B2FA82F502FA05F4C5F120051EBF83
:1004500022FA05FC44EA0C04203556EA044C4FEA23
:10046000144418BF641C4FF000084FF0000990427C
:1004700071EB030C39D3002919BFB1FA81F701FAE6
:1004800007F6B0FA80F700FA07F6C7F120071EBF9B
:1004900020FA07FC46EA0C062037B6FBF4FCA7EB73
:1004A0000507103F07F01F0BCBF120060CFA0BFBE2
:1004B0002CFA06F644BFB3460026202FA4BF5E46A2
:1004C0004FF0000B5BEA060C08BF4FF0010B19EB75
:1004D0000B09ABFB027C48EB0608C01B06FB02CCF9
:1004E0000BFB03CC71EB0C01C1E70B460246414606
:1004F0004846BDE8F08B13B54FF000004FF0000107
:10050000AFF30080BDE81C40704710B54C1084EA82
:10051000530404D54042C1F1000138BF491E1B42BB
:1005200004D55242C3F1000338BF5B1EFFF776FFCC
:1005300014F0804F04D04042C1F1000138BF491E81
:1005400014F0004F04D05242C3F1000338BF5B1EC9
:1005500010BD032A40F2308010F0030C00F015802B
:1005600011F8013BBCF1020F624498BF11F801CBB6
:1005700000F8013B38BF11F8013BA2F1040298BF1B
:1005800000F801CB38BF00F8013B11F0030300F085
:100590002580083AC0F0088051F8043B083A51F829
:1005A00004CBA0E80810F5E7121D5CBF51F8043B2E
:1005B00040F8043BAFF30080D20724BF11F8013BA1
:1005C00011F801CB48BF11F8012B24BF00F8013B03
:1005D00000F801CB48BF00F8012B704710B5203A56
:1005E000C0F00B80B1E81850203AA0E81850B1E8EC
:1005F0001850A0E81850BFF4F5AF5FEA027C24BFA2
:10060000B1E81850A0E8185044BF18C918C0BDE898
:1006100010405FEA827C24BF51F8043B40F8043B61
:1006200008BF7047D20728BF31F8023B48BF11F816
:10063000012B28BF20F8023B48BF00F8012B704770
:1006400002F0FF0343EA032242EA024200F002B84A
:100650004FF000020429C0F0128010F0030C00F0EB
:100660001B80CCF1040CBCF1020F18BF00F8012B69
:10067000A8BF20F8022BA1EB0C0100F00DB85FEA37
:10068000C17C24BF00F8012B00F8012B48BF00F803
:10069000012B70474FF0000200B513469446964672
:1006A000203922BFA0E80C50A0E80C50B1F1200185
:1006B000BFF4F7AF090728BFA0E80C5048BF0CC033
:1006C0005DF804EB890028BF40F8042B08BF704791
:1006D00048BF20F8022B11F0804F18BF00F8012B03
:1006E00070477047704770470048704788B00020D7
:1006F000704770477047704738B504460A46002077
:100700006946AFF30080002808BF38BD0246009953
:10071000204600F03FF8012038BD012000F054B819
:10072000F8B5AFF30080054600200C46102000BF4E
:100730000646A819A0420DD9324669460020AFF3FB
:100740000080070008BF00F03FF80098A04218BFE3
:100750000546C419FFF7C8FF05600746F01D20F0E5
:1007600007004619284600F00AF8B44208BFF8BD51
:10077000A21B31463868BDE8F84000F00BB80021F4
:100780000160C0E9011070471020704700487047B1
:1007900080B00020034640688C46002818BF88427D
:1007A0003CBF03464068F8D318681844884207D015
:1007B0000CF1030020F00700001D411A521A0146F7
:1007C000081D0A60FFF703BE10B500F039F8BDE858
:1007D000104000F02FB870477546FFF7D7FFAE46C0
:1007E00005006946534620F00700854618B020B53D
:1007F000FFF7ACFDBDE820404FF000064FF00007CA
:100800004FF000084FF0000B21F00701AC46ACE8B8
:10081000C009ACE8C009ACE8C009ACE8C0098D4625
:10082000704710B50446AFF300802046BDE8104085
:10083000FFF717BD002801D000F02AB8704700006C
:1008400010B5012805D0002103A000F027F80120F1
:1008500010BD09A1F8E7000053494752544D454DDA
:100860003A204F7574206F662068656170206D6551
:100870006D6F7279000000003A2048656170206D4C
:10088000656D6F727920636F727275707465640044
:1008900001491820ABBEFEE72600020070B50546F0
:1008A0000C460A2000E06D1C00F011F835B12878E4
:1008B0000028F8D102E0641C00F009F814B1207897
:1008C0000028F8D1BDE870400A20AFF3008008B5D9
:1008D00069468DF800000320ABBE08BD464910B53F
:1008E0004A6822F440324A604A6843681A434A60C0
:1008F00001684A6822F480724A6001684A680369A4
:1009000042EA03224A6001684A6822F040724A6063
:1009100001684A6883681A434A6001688A6822F459
:1009200000628A6001688A68C3681A438A60816AC3
:100930006FF07062D14201688A6822F070628A604A
:1009400001688A680CD0836A1A438A6001688A68E1
:1009500022F040528A6001688A68C36A1A4301E043
:1009600022F040528A6001688A6822F002028A609E
:1009700001688A68037E42EA43028A6090F8201088
:10098000002901684A680FD042F400624A60016899
:100990004A6822F460424A6001684A68174C436A18
:1009A00004EB43331A4301E022F400624A60016819
:1009B000CA6A22F47002CA620168CA6A838B104C48
:1009C00004EB03531A43CA6201688A6822F4007276
:1009D0008A6001688A6890F8303042EA43228A606F
:1009E00001688A6822F480628A6001688A684069C6
:1009F00042EA8020886010BD0023014000E0FFFF34
:100A00000000F0FF2DE9F04F00242DED048B83B0A2
:100A10000F46D0E909B9D0F810A0D0F82080866937
:100A20009A48D0ED078A90ED0E8AC06D012805D155
:100A3000B2EE040A68EE808A28EE008A022F7BD983
:100A400003B0BDEC048BBDE8F08F00BF38F9143063
:100A5000DDB2BD4244D25AF824105AF82500F1EE16
:100A6000680A0A1A00EE102AB8EEC00AB4EEE00ACC
:100A7000F1EE10FA34DB00EE102AB8EEC00AB4EE44
:100A8000E80AF1EE10FA2BD800EE101AF8EEC00AC0
:100A9000B1EE480AF4EEC00AF1EE10FA08DD00EEFD
:100AA000901AF8EEE00AF4EEC80AF1EE10FA17D345
:100AB00000EE900AF8EEE00AF4EEC00AF1EE10FA49
:100AC00008DD00EE100AB8EEC00AB4EEC80AF1EE76
:100AD00010FA05D336F9141036F91500814229D0E1
:100AE000FF2B02D0FF2028F81400022D06D238F97F
:100AF0001500FF2802D0FF2028F8150036F9140051
:100B000048B1C0B20CF0BAFD0021204604F00CF947
:100B1000002026F81400022D0CD236F9150048B139
:100B2000C0B20CF0ABFD0021284604F0FDF8002017
:100B300026F81500641CE4B2BC4287D3002420468A
:100B4000B1EE489A25E000BF36F81010F9B95AF80E
:100B5000201000EE101AB8EEC00AB4EEC90AF1EE89
:100B600010FA08D300EE101AB8EEC00AB4EEC80AA4
:100B7000F1EE10FA0BDD00EE101A0BEB8401B8EE6B
:100B8000C00A81ED000A29F81400641CE4B2401C7C
:100B9000C0B2B842D8D322464946584600F03EFB80
:100BA0000025641E6EE000BF09EB450019F815B082
:100BB00080780090BB4563D20098B84260D25AF862
:100BC0002B0000EE100AB8EEC00AB4EEC90AF1EE2E
:100BD00010FA08D300EE100AB8EEC00AB4EEC80A44
:100BE000F1EE10FA4CDD00995AF8211000EE101ABF
:100BF000B8EEC00AB4EEC90AF1EE10FA08D300EE5E
:100C0000101AB8EEC00AB4EEC80AF1EE10FA37DDD9
:100C1000401A00EE100AF1EE680AB8EEC00AB4EE0F
:100C2000E00AF1EE10FA2BDB00EE100AB8EEC00A73
:100C3000B4EEE80AF1EE10FA22D80AF0C3FA0190F5
:100C400026F81B00DDE9000126F81010009828F8AE
:100C50001B00009828F810B0019838B10098401C8B
:100C6000C1B20BF10100C0B20DF0CAFA58460199A9
:100C700004F05AF8DDE9000104F056F86D1CEDB2FD
:100C80006D1CEDB2A5428FDBDAE600009414002063
:100C900038B504468079002520B1012810D0FE28FF
:100CA0001BD138BD204600F01BF80146FE2001296B
:100CB00002D0A071E57138BD0121A171E07138BD8C
:100CC000009502234FF444512046A2690DF0B0FD77
:100CD000D4E90601022200F06BF8A57138BD0000CE
:100CE00070B504462F480022036A2F4800F544716E
:100CF00023B1012B19D0022B32D133E0A04204D111
:100D000001212046FFF77EFE0DE0A1420BD12649CE
:100D10000020A3698A6932F8102023F81020401CB3
:100D200080B20228F5D3012215E0A04204D10221AD
:100D30002046FFF767FE32E0A14230D11A49002079
:100D4000A3698A6932F8102023F81020401C80B271
:100D50000228F5D323E0D4E9060100F077F9024632
:100D6000104670BDA0420CD1104E002506EB450088
:100D70008178E8B203F0D8FF6D1C2D042D0CF5D05E
:100D80000DE0A1420BD108490020A3698A6932F81D
:100D9000102023F81020401C80B20228F5D3022234
:100DA000D9E70000941400203C160020B61500205E
:100DB00010B5002306E000BF30F8134021F81340BF
:100DC0005B1C9BB29342F7D310BD000010B500230B
:100DD00006E000BF50F8234041F823405B1C9BB263
:100DE0009342F7D310BD00002DE9F84F0022009286
:100DF000D0E90954A2460024C66A036AC2682046A4
:100E000014E000BF33F91070FF2F0DD152F820709D
:100E100000EE107A05EB8407B8EEC00A87ED000AF1
:100E20002AF81400641CE4B2401CC0B28842E9D322
:100E3000012C04D922465146284600F0EFF9DFF88C
:100E400014B1002047F6FF7CFF276346B946002116
:100E500046E000BF05EB81029BED0E0AD2ED000AD1
:100E6000F4EEC00AF1EE10FA06DAB1EE401AF4EE32
:100E7000C10AF1EE10FA31D84A1CD2B2B1EE401AD2
:100E800010E000BF05EB8208D8ED001AF4EEC01A9E
:100E9000F1EE10FA08DAF4EEC11AF1EE10FA03D905
:100EA000521CD2B2A242EDD3A14217D2A24215D215
:100EB00005EB820898ED000A70EE600A00EE103A29
:100EC000B8EEC00AF4EEC00AF1EE10FA06D2BDEE9A
:100ED000E00A91460F4610EE103A1BB2491CC9B207
:100EE000A142B7D363452ED0FF2F2CD0B9F1FF0F0D
:100EF00029D004280FD23AF8192000EB4001521CE7
:100F000026F811203AF8172006EB4101521C4A80BE
:100F1000401C8B80C0B29FED100A05EB89010428AC
:100F200081ED000A05EB870181ED000A8CD30DE00D
:100F300000EB4002401C26F8121006EB4202C0B241
:100F40005180918000E000210428F1D30098BDE891
:100F5000F88F0000941400200000000038B504460B
:100F6000C079002520B101280CD0FE2819D138BD48
:100F7000204600F019F8012802D0E570FE20A0718B
:100F8000E07138BD00950C2341F201212046E26A50
:100F90000DF04EFC0128F4D1D4E90B010C22FFF72F
:100FA00007FFE57138BD000010B504462548264905
:100FB000026A01F5447022B1012A15D0022A39D102
:100FC00028E0A14201D1012111E0A04232D11E4905
:100FD0000020E36ACA6A32F8102023F81020401C6F
:100FE00080B20C28F5D325E0A14204D1022120468D
:100FF000FFF7FAFE1EE0A0421CD113490020E36A6D
:10100000CA6A32F8102023F81020401C80B20C2845
:10101000F5D30FE0A1420DD0A0420BD10A49002028
:10102000E36ACA6A32F8102023F81020401C80B20C
:101030000C28F5D3D4E90B01BDE810400C2200F0D8
:1010400005B80000941400203C16002070B504463A
:101050000020034609E000BF34F9135031F9136052
:10106000B54200D001205B1C9BB29342F4D370BD0B
:1010700070B504460020034609E000BF54F8235031
:1010800051F82360B54200D001205B1C9BB2934213
:10109000F4D370BD38B50446C078002510B10128DE
:1010A00023D114E0204600F023F80146FE20012958
:1010B0000AD0A188491C89B2A180FA2903D3A5804E
:1010C000E570A071E07138BD0121E170F9E700958C
:1010D00004234FF44051204662690DF0A9FBD4E986
:1010E00003010222FFF772FEA580E57038BD000003
:1010F00070B504464748484B0022056A03F5447022
:10110000022125B1012D25D0022D4FD150E0A3425F
:1011100004D16169E0680CF015FD19E0A04217D117
:101120003D4A0020E568D36853F8203045F8203068
:101130005369656933F8203025F8203001EB8003CE
:1011400055696669401CED5A0004F552000CE9D05F
:10115000012226E0A34209D16169E0680CF0F2FCAB
:1011600002226169E0680CF09DFE51E0A0424FD17F
:10117000294A0020E568D36853F8203045F820302C
:101180005369656933F8203025F8203001EB80037E
:1011900055696669401CED5A80B2F5520228E9D3C0
:1011A00036E0D4E90301FFF763FF0246104670BD45
:1011B000A34213D10020E268636901EB800552F875
:1011C0002020121423F82020E268636932F82020DE
:1011D000401C80B25A530228EDD319E0A04217D127
:1011E0000D4A0020E568D36853F8203045F82030D8
:1011F0005369656933F8203025F8203001EB80030E
:1012000055696669401CED5A80B2F5520228E9D34F
:101210000222C6E7941400203C160020F0B50024FA
:1012200026E000260123171B1CE000BF00EB83050E
:10123000D5ED000A15ED010AF4EEC00AF1EE10FA40
:101240000ED245ED010A85ED000A01EB430631F8A7
:1012500013C036F8025C26F802CC21F813500126A0
:101260005B1CDBB29F42E1DC002E03D0641CE4B2C5
:101270009442D6D3F0BD0000F0B5002319E000255C
:101280000122CE1A0FE000BF00EB820750F822C007
:1012900057F8044CA44504DA47F804CC40F822403F
:1012A0000125521CD2B29642EEDC002D03D05B1C0D
:1012B000DBB28B42E3D3F0BDFEE70000014800F053
:1012C00003BC0000DC500020014800F0FDBB000022
:1012D0001C530020014800F0F7BB00001C50002008
:1012E000014800F0F1BB00007C530020014800F0F1
:1012F000EBBB00007C500020014800F0E5BB000083
:101300005C520020014800F0DFBB0000BC5200200E
:10131000014800F0D9BB00003C510020014800F01A
:10132000D3BB0000DC530020014800F0CDBB00001F
:101330009C510020014800F0C7BB00003C54002035
:10134000014800F0C1BB0000FC51002001681823D7
:10135000CAB2103AB2FBF3F2054B6FF30901032A4C
:101360009B5CC36500D9091D816508467047000074
:10137000C4FE000810B5014600208B698A6A4FF050
:10138000C07453B1B3F5005F15D072B1012A0CD00F
:10139000022A0AD0032A09D104E01AB1012A06D090
:1013A000022A03D1C96AC90100D5012010BDC96A4A
:1013B000A142FAD010BD002AF7D0012AF2D0022AA9
:1013C000F3D0032AF3D010BD30B50468256825F4A6
:1013D00080252560046863608368402B036803D020
:1013E00099600068C26030BD9A600068C16030BD1D
:1013F000034A02EB400000F5805080F8E717704781
:10140000281F00200021002200EB8103C3F8842361
:10141000491C1029F8D30021431883F81C21491CCA
:10142000B1F5007FF8D30270427001218170C0F8DD
:10143000C423017640238371427680F81C2380F810
:101440001D1380F81F2380F81E230020704770476B
:1014500072B6FEE7074AD2F8102112F83030834204
:1014600006D1042303EBC003D258002A00D0104752
:1014700070470000081E002010B54B888C8802467B
:101480001348234488B0B3F5804F1DD801238DF84D
:1014900000304B788DF801304B88ADF802308B88E6
:1014A000ADF80430CB88ADF80630CB680393002349
:1014B000029309690491074906918DF81420694641
:1014C00000F02EF908B010BD4FF0FF30FAE7000031
:1014D000081E00205514000830B54C888D8803463E
:1014E000002218482C4487B0B4F5804F24D8847A61
:1014F000C4EBC40400EB8404247BFCB902228DF805
:1015000000204A788DF801204A88ADF802208A88A8
:10151000ADF80420CA88ADF80620002203928A683C
:10152000029209690491084906918DF814306946C0
:1015300000F0F6F8024601E04FF0FF3207B0104627
:1015400030BD0000081E00205514000870B5044688
:1015500090F8EC00002688B004F1EC05052863D271
:10156000DFE800F0033636305500E17A684601F0D6
:101570000701E172C1EBC10104EB81010A7B002A82
:1015800020D01C220C31FFF729F8E07AC0EBC00113
:1015900004EB81000C3000F05DF8E07A1C22401C66
:1015A00000F00701E17269462846FFF717F8206846
:1015B000606094F8EC00022806D0032804D00720CD
:1015C00009F018FF08B070BD072009F021FFF9E706
:1015D000204600F04DF801280AD07828F2D194F87E
:1015E000EC00012808D0022808D0C4F80C61E9E713
:1015F000284600F02FF8E5E7012100E00A21C4F8B1
:101600000C1184F80801042084F8EC00DAE7D4F81F
:101610000C0118B1401EC4F80C01D3E794F808017E
:1016200004F8EC0F2677CDE784F8EC60CAE70000F9
:1016300070B5074C2068401C2060207A012520B13D
:10164000012803D12046FFF781FF257270BD0000FD
:10165000081E002000210170A0224270418081807C
:10166000C180C1600A22016102758161704700007A
:10167000FEB50446B0F8F2000026E0B3B4F8EE2060
:1016800002F03F01C1F14005A84200D2054694F89E
:10169000EC10012902D0022922D10FE0B4F8F03079
:1016A000181AD4E93E3118440090CDE9015194F85C
:1016B000ED101023194800F0A1FF10E0B4F8F0304D
:1016C000D4F8FC10181AD4F8F43018440090CDE97E
:1016D000015194F8ED101023104801F08BF8782692
:1016E000B4F8EE002844A4F8EE00B4F8F200401B71
:1016F000A4F8F20008E0FFE7D4F8042101261AB1AB
:1017000094F8000131469047D4E90001401AD4F81A
:10171000FC10884200D380263046FEBDB049002030
:1017200010B50446407A0022B8B901206072A07A50
:1017300000F00700A072C0EBC00004EB8000037B48
:101740004BB91C220C30FEF749FFA07A401C00F078
:101750000700A072012200206072104610BD002216
:10176000AFF3008010B4844601200E4B5C7A002C4D
:1017700016D1587A1C54587A03EB8000C0F804C084
:10178000587A03F1080C00F80C20587A421C5A725F
:10179000303008703A2048702F208870CC700020BC
:1017A00010BC704764B000209FED150A154A00294F
:1017B0001FD100281DD003281BD202EB800090ED22
:1017C000C20A1148016E71B10269A2F5DA436C3B9D
:1017D00009D1DFED0E0A60EE200A00EE101AB8EE15
:1017E000C01A80EE810AC06D20B1F2EE040A20EE2C
:1017F000200A7047F6EE000A30EE200A704700001B
:1018000000000000301100209414002000007A44F1
:1018100078B50024009490F83C20012A19D00122C8
:1018200080F83C200A6807230568092A13D9EE6866
:101830000A3A02EB420293409E43EE600B788A68BC
:101840000A3B03EB43039A400368DD682A43DA60EE
:1018500010E0022078BD2E6902EB420293409E43C5
:101860002E610B788A6803EB43039A4003681D6975
:101870002A431A614A681F23072A13D205686E6B30
:10188000521E02EB820293409E436E630B790A88DC
:101890005B1E92B203EB83039A4003685D6B2A439D
:1018A0005A6327E005680D2A12D22E6BD21F02EB75
:1018B000820293409E432E630B790A88DB1F92B20B
:1018C00003EB83039A4003681D6B2A431A6311E0FC
:1018D000EE6A0D3A02EB820293409E43EE620B7970
:1018E0000A880D3B92B203EB83039A400368DD6ADA
:1018F0002A43DA62164B0568144A9D4206D10D68E8
:10190000122D03D1556845F48005556005689D4248
:1019100018D10B68102B01D0112B13D1536843F44D
:1019200000035360096810290CD10A490A4A096862
:10193000B1FBF2F101EB8101490000E0491E009189
:101940000029FBD180F83C40002078BD00230140F5
:10195000002001401800002040420F0070B5040034
:101960004FF0000503D0206C002610B107E00120E5
:1019700070BD204600F01CF8666484F83C60206C62
:10198000C00610D4206C20F4885040F0020020647F
:101990002046FEF7A3FF6664206C20F0020040F0B2
:1019A0000100206400E0012584F83C60284670BDF9
:1019B00010B586B0044614216846FEF76BFE114947
:1019C000206888421BD110480021026842F48072CE
:1019D0000260006800F4807005900B4814380268BB
:1019E00042F002020260006800F00200059003204D
:1019F0000090CDE901016946044800F0E9F906B01C
:101A000010BD0000002001404438024000040240A4
:101A10002DE9F0410446876D00F0DCFA064694F8A3
:101A200035000025022806D08020606584F83450F7
:101A30000120BDE8F0812068016821F016010160F5
:101A40002068416921F080014161206C08B9A06CD7
:101A500020B12068016821F0080101602068016858
:101A600021F0010101600CE000F0B4FA801B0528B0
:101A700007D920206065032084F8350084F83450AD
:101A8000D7E720680068C007EED194F85C103F20CB
:101A90008840B860012084F8350084F83450002074
:101AA000C7E790F83510022903D080214165012055
:101AB0007047052180F835100068016821F00101A8
:101AC00001600020704700002DE9F84304464FF004
:101AD0000009CDF8009063484FF41651A56D0068D9
:101AE000B0FBF1F72E6894F85C10082000FA01F1C1
:101AF00031420FD021680A6852070BD50A6822F0DC
:101B000004020A6094F85C108840A860606D40F0A0
:101B10000100606594F85C104FF0010808FA01F0CC
:101B2000304208D021684969090604D5A860606D73
:101B300040F00200606594F85C1004208840304258
:101B400008D021680968890704D5A860606D40F055
:101B50000400606594F85C1010208840304218D072
:101B600021680968090714D5A8602068016849033D
:101B700004D50068000308D5A16C07E00168C90519
:101B800003D4016821F008010160216C09B12046ED
:101B9000884794F85C1020208840304231D021687A
:101BA0000968C9062DD5A86094F835000528206875
:101BB000016806D0490347D5006800031DD4616C55
:101BC0001CE021F0160101602068416921F08001CC
:101BD0004161206C08B9A06C20B12068016821F037
:101BE0000801016094F85C103F208840A86084F8E8
:101BF000358084F83490216D1FE0E16B09B12046F7
:101C00008847606D00282BD0606DC00714D0052078
:101C100084F835002068016821F001010160009816
:101C2000401C0090B84203D820680068C007F6D175
:101C300084F8358084F83490E16C002910D001B02C
:101C40002046BDE8F04308470168C905D5D40168BE
:101C500021F01001016084F8358084F83490CCE7DD
:101C6000BDE8F883180000202DE9F041044600F09B
:101C7000B1F906465CB1022084F83500002584F8ED
:101C800034502068016821F0010101600DE001205D
:101C9000BDE8F08100F09EF9801B052805D92020C1
:101CA0006065032084F83500F2E720680068C0070B
:101CB000F0D12268116820480140D4E9010318439B
:101CC000D4E903363343184363691843A3691843BF
:101CD000E3691843236A18430843616A042903D15E
:101CE000D4E90B1319430843106020684069666A01
:101CF00020F0070130460E43012704280CD1A06ACA
:101D00000643E06A40B12046FFF734FB20B1402093
:101D1000606584F83570BAE7206846612046FFF7B1
:101D200015FB94F85C203F2191408160656584F843
:101D300035700020ACE700003F8010F02DE9F04145
:101D40000446866D90F83400002501280DD001204E
:101D500084F8340094F835700020012F07D084F8FF
:101D6000340002252846BDE8F0810220FBE7022767
:101D700084F8357060652046FFF726FB94F85C1008
:101D80003F208840B0602068016841F01601016082
:101D9000206C20B12068016841F0080101602068D2
:101DA000016841F001010160DCE7000070B5044604
:101DB00000F010F90546601C02D004480078044485
:101DC00000F008F9401BA042FAD370BD0C000020BF
:101DD0002DE9F84FDFF8BCA10022012503264FF0C2
:101DE0000F090AF1040BAAF1040E00BF0B6805FAF3
:101DF00002F42340A34270D10F7907F00307012FAB
:101E000001D0022F16D187684FEA420806FA08FC73
:101E100027EA0C07D1F80CC00CFA08FC4CEA070CB6
:101E2000C0F808C04768A7430C79C4F30014944075
:101E30003C4344600C79E443A4070AD0C4684FEAE9
:101E4000420C06FA0CF7BC438F6807FA0CF72743DD
:101E5000C7600C7904F00304022C12D1D40800EB03
:101E6000840CDCF820405707FF0E09FA07F824EA33
:101E70000804D1F8108008FA07F848EA0408CCF8FA
:101E8000208004684FEA420C06FA0CF7BC430F7935
:101E900007F0030707FA0CF7274307604C6814F4B0
:101EA000403F70D03C4C276847F480472760246847
:101EB00022F0030704F480440094384C07EB040C30
:101EC000DCF8084897074FEA177809FA08F7BC4387
:101ED000334FB84202D1002724E054E0314FB842DA
:101EE00001D101271EE0304FB84201D1022719E08D
:101EF0002E4FB84201D1032714E02D4FB84201D133
:101F000004270FE02B4FB84201D105270AE02A4FE2
:101F1000B84201D1062705E0284FB84201D1072772
:101F200000E0082707FA08F72743CCF80878DAF822
:101F300000405746D1F804C09C435FEACC2C00D542
:101F40001C433C60DBF800405F46D1F804C09C4372
:101F50005FEA8C2C00D51C433C60DEF800407746DD
:101F6000D1F804C09C435FEA8C3C00D51C433C6024
:101F7000084F083F3C68D1F804C09C435FEACC3C62
:101F800000D51C433C60521C102AFFF42FAFBDE863
:101F9000F88F0000083C0140443802400030014006
:101FA000000002400004024000080240000C024011
:101FB000001002400014024000180240001C0240C1
:101FC0000069084000D0012070470AB18161704764
:101FD0000904FBE701488068704700000C000020FE
:101FE000D0F8000304F09CBFD0F8000304F0A9BFB0
:101FF000006806F051BE006806F052BE01EB4102D7
:1020000002EBC10100EB810090F86000704701EB2A
:10201000410202EBC10100EB8100006D704710B579
:10202000044690F8F802012809D0012084F8F8024B
:10203000206806F040FE002084F8F80210BD02205F
:1020400010BD2DE9FE430546DDE90B7095F8F84219
:10205000DDF828C0012C1ED001EB410404EBC104C3
:102060004FF0010905EB840485F8F892002684F806
:102070003D6084F83830A4F8400084F8391084F8C2
:102080003F7002F07F0884F83A805FEA026805D565
:1020900084F83B9004E00220BDE8FE8384F83B60B6
:1020A00084F83CC0CDF800C0CDE90170286806F086
:1020B00065FE85F8F862EFE7D0F8000304F0F4BF9E
:1020C0002DE9F00301EB4104DDE906C9DDE90875FE
:1020D00004EBC10400EB8404022684F83B2084F85E
:1020E0003F30BCF1000F0AD084F8426000256BB18C
:1020F000012B2FD0022B12D0032B16D10FE04FF063
:10210000030884F8428084F83D50EFE7BCF1010FEA
:102110000BD152B9DFB9012284F8552003E0B2B1E6
:1021200094F85420B2B184F84260C4F84490E76453
:1021300084F86050256584F8391084F86150027C79
:1021400004F138010068BDE8F00306F0A0BE94F881
:102150005520E7E784F84250E7E72DE9F0410668AB
:102160000446304606F0A3FD012875D1206806F02C
:10217000B2FF002870D0206806F0ADFF800203D5C2
:1021800021684FF400104861206806F0A4FFC002E7
:1021900003D521684FF480104861206806F09BFF4A
:1021A000400103D521684FF080604861206806F047
:1021B00092FF800702D5216802204861206806F05E
:1021C0008AFF800015D521684FF000504861D6F88D
:1021D0004004C0070DD11021304606F03DFD3046C9
:1021E00006F01CFD0121206806F05AFF2046FFF78B
:1021F000FBFE206806F06FFFC00102D5204601F00B
:1022000093FF206806F067FF000705D5204600F021
:1022100004F9216808204861206806F05CFFC0438B
:10222000C0060CD42068816921F01001816120462C
:1022300001F0C4FF2068816941F0100181612068CC
:1022400006F049FF800123D5206806F01CFE0746F2
:1022500000254FF0010814E01AE005F00F0108FA1C
:1022600001F038420CD006EB4510D0F80005E9B279
:102270000004204602D501F054FD01E001F046FEC5
:102280006D1CA068A842E8D821684FF00070486132
:10229000BDE8F08170B58AB0040005D094F8F90269
:1022A0002568002618B107E001200AB070BD84F847
:1022B000F862204600F028F8032084F8F902E86B61
:1022C000C00500D42661206806F074FC04F11001FA
:1022D00028220D466846FEF781F994E80F0006F0C3
:1022E0000FFC0121206807F02DF8282229466846B6
:1022F000FEF774F994E80F0006F06AFE012084F8F6
:10230000F9020020D1E7000010B586B0002101914C
:1023100002910391049105910068354C022203213A
:10232000B0F1A04F38D0A0F18043B3F5802331D174
:10233000206840F002002060206800F00200009059
:1023400088030190029204910C20059001A929486C
:10235000FFF73EFD206840F000502060206800F04C
:1023600000500090002205214A2000F0A9FB4A20DD
:1023700000F098FB002205214B2000F0A1FB4B2030
:1023800000F090FB002205214D2000F099FB4D202C
:1023900000F088FB06B010BD206840F0010020600E
:1023A000206800F0010000904FF4C05001900292AC
:1023B00004910A20059001A90F48FFF709FD0F4875
:1023C000016841F0800101600D48016841F48041DD
:1023D0000160006800F48040009000220521432045
:1023E00000F06EFB432000F05DFB06B010BD000066
:1023F00030380240000402400000024034380240FD
:1024000044380240D0F8000304F06CBED0F800035A
:1024100004F06CBE006806F081BED0F8000304F042
:10242000EFBD10B5044690F8F80201280DD0012048
:1024300084F8F8020121206806F0D4FB206806F039
:10244000E7FB002084F8F80210BD022010BD10B593
:10245000044690F8F802012809D0012084F8F80217
:10246000206806F09DFF002084F8F80210BD0220CD
:1024700010BD000070B5040025D094F83D00002583
:1024800020B984F83C50204600F04CFA242084F80F
:102490003D002068016821F00101016020680168A9
:1024A00041F4004101602068016821F400410160AD
:1024B00000F004FC4D4A6168914201D84C4900E0AB
:1024C0004C49884201D2012070BD4B492368B0FBC2
:1024D000F1F15E6826F03F060E435E60636893424A
:1024E00006D94FF4967359434FF47A73B1FBF3F165
:1024F0002368491C1E6A26F03F0631431962616851
:10250000914210D84900401EB0FBF1F2521CC2F3B8
:102510000B02042A01D2042022E0B0FBF1F0401C9F
:10252000C0F30B001CE0A268F2B301EBC10303EBA4
:102530000116431EB3FBF6F35B1C43F480431B05FB
:1025400049D092B301EBC10202EB0111401EB0FB76
:10255000F1F0401CC0F30B0040F4804040F4004018
:102560002168CA694CF6FF739A431043C861D4E9E5
:10257000071001432068026822F0C0021143016085
:10258000D4E9030101432068826848F2FF339A438B
:1025900011438160D4E9050108432168CA6822F02B
:1025A000FF021043C86001E00EE016E020680168F9
:1025B00041F0010101602564202084F83D0025637D
:1025C00084F83E50002070BD01EB4106431EB3FB72
:1025D000F6F35B1CB3E70120C2E701EB4101401EAB
:1025E000B0FBF1F0401CC0F30B00B7E7A086010080
:1025F00080841E0000093D0040420F002DE9FF4F7E
:1026000083B09A46DDE9119793460446DDF8408091
:10261000FFF7E0FC054694F83D00202870D119230F
:10262000012271492046009501F01EFF0028F5D1D6
:1026300094F83C00012863D0012084F83C00206815
:102640000168C90703D1016841F0010101602068F8
:10265000016821F400610160222084F83D004020DF
:1026600084F83E0000262664C4F82480A4F82A904A
:10267000608D20855D48E062CDE9007553465A467D
:102680002046049901F0F8FD00287CD1208DD0B1BE
:10269000012821D00228206824D041698069009057
:1026A000208D032869D801282BD0514902283B46A8
:1026B0004FF00002009559D08846204601F0D4FE24
:1026C000002860D13CE0206841698169009101687F
:1026D00041F40071016077E02068016821F48061B5
:1026E0000160F0E7016821F4806101602068016801
:1026F00041F400610160206841698069009063E0F5
:102700006FE02A463946204601F02DFF98BB20682D
:102710000069616A08704EE02068016841F4007148
:10272000016020680069616A0870606A401C60622C
:10273000218D491E2185618D491E6185216838E002
:102740002068016821F48061016020680069616A85
:102750000870606A401C6062208D401E2085608D7C
:10276000401E60853B46002241460095204601F010
:102770007BFE00B9D0E706E0FFE72A46394620464F
:1027800001F0F1FE18B1012007B0BDE8F08F20681C
:102790000069616A0870606A401C6062218D491E90
:1027A0002185618D491E618521684A69D24352079E
:1027B0000AD409690170606A401C6062208D401E65
:1027C0002085608D401E6085208D00287FF468AFD5
:1027D000202084F83D0084F83E6084F83C600020AE
:1027E000D2E70220D0E70000020010000000FFFF47
:1027F000040001002DE9FF4F83B09A46DDE91197EF
:1028000093460446DDF84080FFF7E4FB054694F864
:102810003D0020287FD11923012240492046009500
:1028200001F022FE002876D194F83C00012872D0F5
:10283000012084F83C0020680168C90703D10168C1
:1028400041F0010101602068016821F4006101602C
:10285000212084F83D00402084F83E0000262664B4
:10286000C4F82480A4F82A90608D20852C48E0626A
:10287000CDE9007553465A462046049901F07AFD89
:1028800070B930E02A463946204601F09FFE58B123
:10289000206C042804D12068016841F400710160B3
:1028A000012007B0BDE8F08F606A216800780861F8
:1028B000606A401C6062218D491E89B22185628D4B
:1028C000521E628522685369DB435B070BD469B1F2
:1028D00000781061606A401C6062208D401E208577
:1028E000608D401E6085208D0028CBD12A46394658
:1028F000204601F093FD0028CAD154F83D0B016831
:1029000041F400710160202004F81E09E677667723
:102910000020C6E7FFE70220C3E700000200100026
:102920000000FFFF10B586B0044614216846FDF78D
:10293000B1FE14492068884221D113480021026861
:1029400042F002020260006800F0020005904FF4BD
:10295000407000901220CDE9010103200390042073
:10296000049069460948FFF733FA074810300168B8
:1029700041F400110160006800F40010059006B0F9
:1029800010BD0000005400403038024000040240F6
:102990000248816802781144816070470C00002071
:1029A0000B4810B5016841F400710160016841F401
:1029B00080610160016841F480710160032000F0D2
:1029C0009FF80F2000F006F800F050F8002010BD2E
:1029D000003C024030B505461F4887B0002401681E
:1029E00041F010010160006806A900F0100000909D
:1029F00001A800F043F90498A8B100F05FF9400085
:102A00001649174AB0FBF1F11648491E026040F220
:102A1000E732C0E90324C0E90114846100F0A0FB9F
:102A2000040003D015E000F049F9E9E70D4800F093
:102A3000D9FB04000DD1362000F034F8102D07D258
:102A400000222946362000F03BF80748056000E0E8
:102A5000012407B0204630BD4038024040420F00FC
:102A6000001000409C540020100000200C4882B050
:102A7000016841F480410160006800F480400090EA
:102A80000748001F016841F0805101600068002282
:102A900000F0805000900F21901E02B000F010B89E
:102AA00044380240002809DB00F01F020121914058
:102AB0004009800000F1E020C0F8001170470000DC
:102AC000F0B40E4B1B680C46C3F30223C3F1070599
:102AD000042D00D90425191D072901D2002300E087
:102AE000DB1E012606FA05F1491E214099409E4051
:102AF000761E16403143F0BC06F0CABD0CED00E076
:102B0000064900F0070208684FF6FF03184040EA44
:102B10000220034A10430860704700000CED00E0FB
:102B20000000FA05BFF34F8F05480168054A01F41C
:102B3000E06111430160BFF34F8F00BFFDE700006C
:102B40000CED00E00400FA052DE9F0470E46050003
:102B500065D0DFF81481D8F80000F7B200F0070064
:102B6000B04207D288F80070D8F8000000F00700E3
:102B7000B04254D128683D4C810712D5400703D597
:102B8000206840F4E05020602878000703D52068D2
:102B900040F4604020602068A96820F0F0000843FD
:102BA00020602878C0072DD030496868083901288E
:102BB00012D0022813D0032811D0096889070029F0
:102BC0002DDA216821F0030101432160FFF702FAA9
:102BD000814641F2883A0EE009688903EFE7096807
:102BE0008901ECE7FFF7F6F9A0EB0901514502D99D
:102BF0000320BDE8F0872068696800F00C00B0EBA6
:102C0000810FEFD1D8F80010404601F00701B14222
:102C100007D90770006800F00700B04201D001201A
:102C2000E7E72878400705D52068E96820F4E050F8
:102C3000084320602878000706D52068296920F419
:102C4000604040EAC100206000F058F82168084A5E
:102C5000C1F30311515CC84006490860064800688A
:102C6000FFF7B8FE0020C4E7003C024008380240ED
:102C7000CCFE000818000020100000200F22026087
:102C80000C4A136803F003034360136803F0F00376
:102C90008360136803F4E053C36012684FF4E05399
:102CA00003EAD20202610448006800F007000860ED
:102CB0007047000008380240003C024004480549C3
:102CC00000680968044AC1F38221515CC84070471A
:102CD0001800002008380240DCFE000804480549BE
:102CE00000680968044AC1F34231515CC84070472A
:102CF0001800002008380240DCFE0008154810B516
:102D0000006810F00C02144813D01449042A0FD0A4
:102D1000082A0ED10F4C241F2268236802F03F02BC
:102D20005B0207D52068C0F38810A0FB010106E014
:102D3000084610BD2168C1F38811A1FB00010023E2
:102D4000FDF76CFB2168C1F30141491C4900B0FB50
:102D5000F1F010BD083802400024F40040787D01F5
:102D60002DE9F84F04006ED02078DFF84C93C007AF
:102D7000A9F104054AD009F104000168C1F38101F9
:102D8000012908D00068C0F3810002280AD1D9F8CF
:102D90000000400206D52868800337D56068002807
:102DA000E1D033E06068B0F5803F10D0B0F5A02FDF
:102DB000286810D020F480302860286820F4802013
:102DC00028606068A8B1FFF705F906460DE028689D
:102DD00040F48030F4E740F480202860F7E700BF3B
:102DE000FFF7F8F8801B642873D828688003F7D5AC
:102DF0000CE0FFF7EFF8064605E000BFFFF7EAF842
:102E0000801B6428F0D828688003F7D42078DFF886
:102E1000AC8280074FF0000A3ED5A748001D01682C
:102E200011F00C0F08D00068C0F3810002280BD10C
:102E3000D9F80000400207D42868800716D5E0685A
:102E4000012800D112E033E1E068B8B10120C8F8F0
:102E50000000FFF7BFF8064605E000BFFFF7BAF82D
:102E6000801B0228C0D828688007F7D52868216908
:102E700020F0F80040EAC10028600DE0C8F800A08A
:102E8000FFF7A8F8064604E0FFF7A4F8801B022825
:102E90001FD828688007F7D42078000722D5864FEE
:102EA00087486169703771B101210160FFF792F8BD
:102EB000064604E0FFF78EF8801B022809D8386820
:102EC0008007F7D50EE0C0F800A0FFF783F80646AC
:102ED00005E082E0FFF77EF8801B02287DD8386885
:102EE0008007F7D42078400768D5DFF8CCB10027F9
:102EF0000BF13C0BDBF80000C0000BD4DBF800103A
:102F000041F08051CBF80010DBF80000012700F001
:102F1000805000906B4E3068C00510D4306840F48B
:102F200080703060FFF756F8009005E0FFF752F828
:102F30000099401A022850D83068C005F6D55E4E78
:102F4000A0686C3601280FD00528306810D020F01A
:102F500001003060306820F004003060A068B8B133
:102F6000FFF738F800900FE0306840F00100F4E718
:102F700040F004003060F7E7FFF72CF80099411AA1
:102F800041F28830814266D830688007F4D50EE07F
:102F9000FFF720F8009007E0FFF71CF80099411AAE
:102FA00041F28830814256D830688007F4D42FB17E
:102FB000DBF8001021F08051CBF80010A069C8B3F5
:102FC0003D49091D0968C1F3810102294AD002283F
:102FD000504607D0C8F8600000E03CE0FEF7FAFF7A
:102FE00004463BE04746C8F86000FEF7F3FF06469C
:102FF00005E000BFFEF7EEFF801B02282BD82868F3
:103000008001F7D4D4E907010843A16A2E4A490890
:1030100002EB0141626A41EA8211084394F82C10E4
:1030200040EA0161C9F8001001203866FEF7D2FFBE
:10303000044606E03EE000BFFEF7CCFF001B02287E
:1030400009D828688001F7D534E000BFFEF7C2FF39
:10305000001B022802D90320BDE8F88F28688001F0
:10306000F4D427E00128F7D0D9F80000E26900F491
:10307000800191421CD1226A00F03F01914217D198
:1030800047F6C071626A0140B1EB821F10D1A26A9B
:103090004FF0FF3300F4403103EB5202B1EB024F2B
:1030A00006D194F82C1000F07060B0EB016F01D0E5
:1030B0000120D1E70020CFE704380240000047425A
:1030C000800E4742007000400000FFFF70477047CD
:1030D00070B590F83C20012A32D0012480F83C40A1
:1030E000022280F83D2003685A689D6822F070062D
:1030F0000A6832435A60134B02689A4214D0B2F104
:10310000804F11D0104B9A420ED0104B9A420BD0E8
:103110000F4B9A4208D00F4B9A4205D00E4B9A4261
:1031200002D00E4B9A4204D1496825F0800319431E
:10313000916080F83D40002180F83C10084670BD49
:10314000022070BD00000140000400400008004063
:10315000000C004000040140004001400018004005
:1031600010B5040003D094F83D0010B107E0012031
:1031700010BD002084F83C00204600F01FF802201B
:1031800084F83D00211D206802F07CFC012084F8B9
:10319000460084F83E0084F83F0084F8400084F83C
:1031A000410084F8420084F8430084F8440084F825
:1031B000450084F83D00002010BD000008B50068FF
:1031C0000649884208D10648016841F020010160A3
:1031D000006800F02000009008BD000000140040CE
:1031E0004038024090F83D10012901D0012070477D
:1031F000022180F83D100168CA6842F00102CA60ED
:1032000000681149884214D0B0F1804F11D00F49A5
:1032100088420ED00E4988420BD00E49884208D011
:103220000D49884205D00D49884202D00C49884298
:1032300004D1816801F00701062903D0016841F03B
:1032400001010160002070470000014000040040BF
:1032500000080040000C0040000401400040014014
:1032600000180040704770B50446006801694FF0CF
:103270000005C943890715D4C168C943890711D41A
:10328000E91E0161012020772068806980072046BF
:1032900002D0FFF7E7FF04E000F098F8204600F0C6
:1032A00096F8257720680169C943490717D4C16892
:1032B000C943490713D46FF004010161022020774C
:1032C0002068806910F4407F204602D0FFF7CAFFD3
:1032D00004E000F07BF8204600F079F825772068BC
:1032E0000169C943090716D4C168C943090712D443
:1032F0006FF008010161042020772068C069800711
:10330000204602D0FFF7AEFF04E000F05FF8204651
:1033100000F05DF8257720680169C943C90617D414
:10332000C168C943C90613D46FF0100101610820B8
:1033300020772068C06910F4407F204602D0FFF754
:1033400091FF04E000F042F8204600F040F82577B5
:1033500020680169C943C90708D1C168C943C907C1
:1033600004D1891E0161204600F032F8206801690D
:10337000C943090609D4C168C943090605D46FF0D9
:10338000800101612046FFF7A1FE20680169C94361
:10339000490609D4C168C943490605D46FF0400104
:1033A0000161204600F01EF820680169C9438906C2
:1033B0000BD4C168C943890607D46FF020010161AD
:1033C0002046BDE87040FFF782BE70BD7047704771
:1033D00000680349884201D1FFF7DABA704700005C
:1033E000001000407047704710B5044600684069FF
:1033F00094F83D10C0F3C010212911D180B120688C
:10340000143050E8001F21F0800140E80012002A2B
:10341000F5D1606B08B1FEF7FBFA204602F076FCAE
:103420002068406994F83E10C0F38010222911D121
:1034300080B12068143050E8001F21F0400140E8BE
:103440000012002AF5D1A06B08B1FEF7E1FA204680
:1034500002F035FC002010BD70470000F8B501688F
:1034600004460868CA684B6910F00F0F4FF000055A
:103470005AD003F0010602F49077374365D0C107B4
:1034800005D0D10503D5216C41F00101216441072C
:1034900005D5D90703D0216C41F0020121648107D1
:1034A00005D5D90703D0216C41F00401216401073F
:1034B00007D502F02001314303D0216C41F008010F
:1034C0002164216C00293BD0800604D5900602D5EA
:1034D000204602F029FC20684069216CC0F380106E
:1034E00001F00801014320462BD002F0E8FB2068E0
:1034F0004069400621D52068143050E8001F21F0B3
:10350000400140E80012002AF5D1A06BA8B16C4937
:103510000165A06BFEF7C5FA002811D0A06B016D04
:1035200001B0BDE8F040084783060ED593060CD5E0
:103530002046BDE8F84002F0F7BB2046FFF78CFFBD
:10354000F8BDFFF789FF2564F8BD266B2023012E07
:1035500079D1C60677D5D60675D508684868009033
:103560004869400640D5A16B086840680004000C1B
:10357000EAD0A28D8242E7D9E085C869B0F5807FA4
:103580002DD020680C3050E8001F21F4807140E8F5
:103590000012002AF5D12068143050E8001F21F0F5
:1035A000010140E80012002AF5D12068143050E8EB
:1035B000001F21F0400140E80012002AF5D184F8F4
:1035C0003E30256320680C3050E8001F21F01001C8
:1035D00040E80012002AF5D1A06BFEF719FAA08D81
:1035E000E18D401A81B229E0A08DE18D401A81B2AF
:1035F000E08D0028A8D00029A6D020680C3050E823
:10360000002F22F4907240E80026002EF5D12068A9
:10361000143050E8002F22F0010240E80026002E6E
:10362000F5D184F83E30256320680C3050E8002F37
:1036300022F0100240E80023002BF5D12046FFF7CE
:10364000D2FEF8BDFFE705062BD5150629D594F85F
:103650003D002128F5D1A068B0F5805F01D1206937
:10366000B0B1206A411C2162216800784860E08C7A
:10367000401E0004000CE084E3D12068C16821F002
:103680008001C1602068C16841F04001C160D8E795
:10369000206A0088C0F308004860206A801C20620D
:1036A000E5E74006CDD55006CBD5CA68204622F0C6
:1036B0004002CA6084F83D3000F010FBC1E7000012
:1036C0007D5B000870B5040004D094F83D0000252F
:1036D00010B106E0012070BD84F83C50204600F097
:1036E00023F8242084F83D002068C16821F40051AB
:1036F000C160204602F078FB2068016921F4904106
:1037000001612068416921F02A0141612068C16896
:1037100041F40051C1602564202084F83D0084F804
:103720003E00002070BD00002DE9F04F87B0044638
:1037300014216846FCF7AEFFFE48FD4B1038D4F864
:1037400000C0FC4A02210327002506154FF0080E91
:103750004FF480794FF0400A4FF0006B9C4548D100
:10376000136843F400231360126802F400220592E8
:10377000026842F004020260006800F00400059054
:10378000B8028DE8A3406946EB48FEF721FBEC4FF9
:10379000EA483860C7E901B5C7E903567D61C7E962
:1037A00006593D6238467D62FEF75EFA08B1FDF7C4
:1037B0004FFEA763BC63E24FE04860373030C7F884
:1037C00008A0C7E903567D61BD61FD613D627D6270
:1037D000C7E9000B3846FEF747FA08B1FDF738FE97
:1037E0006763002205213420BC63FFF769F93420A8
:1037F0006BE0D44B9C456DD11368A84643F480130D
:103800001360126802F480120592026842F004020A
:103810000260026802F004020592026842F00802A7
:103820000260006801A900F0080005904FF4805084
:103830000090022081E8A100082004906946BE485B
:10384000FEF7C6FA0420009001A9022081E8A10039
:10385000082004906946BC48FEF7BAFAB848B74950
:10386000C03030390160C0E901B5C0E90356456197
:10387000C0E9065905625F464562FEF7F5F908B1F1
:10388000FDF7E6FDAE48B14DC030A0638463AB48A0
:10389000783085E88104C5E90386C5F81480C5F849
:1038A0001880C5F81C80C5F820802846C5F82480FB
:1038B000FEF7DAF908B1FDF7CBFD656300220521BB
:1038C0003520AC63FFF7FCF83520FFF7EBF807B0C5
:1038D000BDE8F08F974BDFF878821B1DC4455BD1A4
:1038E0001A6842F010021A601A6802F0100205927B
:1038F000026842F002020260006800F002000590D7
:10390000C0208DE8A3000720049069469148FEF787
:103910005FFADFF83882904908F160084046C8F83D
:103920000010C0E901B5C0E90356C8F81450C0E959
:103930000659C8F820505F46C8F82450FEF794F99D
:1039400008B1FDF785FDC4F83880C8F83840DFF8C5
:10395000FC81814908F1C00840467831C0E903562E
:10396000C8F81450C8F81850C8F81C50C8F82050AF
:1039700088E88204C8F82450FEF776F908B1FDF70C
:1039800067FDC4F83480002205212520C8F838409E
:10399000FFF796F8252098E7DFF8C081C4454BD1A2
:1039A000136843F400331360126802F40032059286
:1039B000026842F008020260006800F0080005900A
:1039C00060208DE8A3000720049069465E48FEF75A
:1039D000FFF95A48624F48303860C7E901B5C7E976
:1039E00003567D61C7E906593D6238467D62FEF7A0
:1039F0003BF908B1FDF72CFDA763BC63584F4F4856
:103A000060376030C7F808A0C7E903567D61BD6123
:103A1000FD613D627D62C7E9000B3846FEF724F97F
:103A200008B1FDF715FD6763002205212620BC6360
:103A3000FFF746F8262048E7DFF82881C4455BD128
:103A4000136843F480231360126802F48022059205
:103A5000026842F008020260006800F00800059069
:103A60004FF440708DE8A300072004906946364863
:103A7000FEF7AEF9DFF8E880304908F1C0081839E0
:103A80004046C8F80010C0E901B5C0E90356C8F8BF
:103A90001450C0E90659C8F820505F46C8F82450B1
:103AA000FEF7E2F808B1FDF7D3FCC4F83880C8F897
:103AB0003840DFF8B480214940461831C0E9035648
:103AC000C8F81450C8F81850C8F81C50C8F820504E
:103AD00088E88204C8F82450FEF7C6F808B1FDF75C
:103AE000B7FCC4F83480002205212720C8F83840EC
:103AF000FEF7E6FF2720E8E61C4A94457FF4E7AE90
:103B00001A6842F020021A601A6802F02002059238
:103B1000026842F004020260006800F004000590B0
:103B2000C0208DE8A34069460348FEF751F91FE025
:103B3000004C004040380240000802404060024013
:103B40001C50002000500040000C02403C5100205E
:103B50000010014000040240406402400044004064
:103B60005C520020004800407C53002000140140BB
:103B700019481A4F18384FF020683860C7E9018596
:103B8000C7E903567D61C7E906593D6238467D6243
:103B9000FEF76AF808B1FDF75BFCA763BC630F4F43
:103BA0000D4860376030C7E903567D61BD61FD6136
:103BB0003D627D6287E801053846FEF755F808B199
:103BC000FDF746FC6763002205214720BC63FEF732
:103BD00077FF472079E6000040640240DC53002074
:103BE00090F83E30202B0ED159B152B190F83C30B4
:103BF000012B08D0012380F83C300023036302F03E
:103C000079B9012070470220704790F83E30202B90
:103C10000ED159B152B190F83C30012B08D001239C
:103C200080F83C300023036302F0AEB901207047F6
:103C3000022070470449884204D10122BC3902485D
:103C4000FFF7E3BF704700000C4F002070470000F3
:103C500070B5044690F83D00202836D191B38AB360
:103C600094F83C00012830D0012084F83C00216207
:103C7000A284E28400252564212084F83D00636B42
:103C80001348D863636B13481864636B1248D86495
:103C9000606B134605652668606B321DFEF74EF8B3
:103CA00021686FF04000086084F83C5020681430B0
:103CB00050E8001F41F0800140E80012002AF5D1D1
:103CC000002070BDFFE70120FBE70220F9E70000BC
:103CD000735C0008B55C00088D5B0008416B0968E7
:103CE0000A6822F001020A600A49006809688842ED
:103CF00005D10948017821F002010170704705499A
:103D0000883909688842F9D100224FF4806103485C
:103D1000FEF75BB90C4F00204C4A00200000024027
:103D200070472DE9F047074600680D4600EB411645
:103D3000D6F8080501EB4103420703EBC5014FF03C
:103D400006004FF004084FF0050A07EB810401D587
:103D500041463CE0D6F80815C90507D54FF48070F8
:103D6000C6F80805072084F861001CE0D6F808159D
:103D7000890603D52020C6F8080518E0D6F80815EE
:103D80000A074FF0080104D5C6F8081584F861A0A9
:103D900009E0D6F80825520514D54FF48060C6F81E
:103DA000080584F861102946386804F084FFD6F8C5
:103DB000080580050ED52946386804F07CFF4FF4CD
:103DC0000070A0E0D6F808150906F0D58021C6F8E5
:103DD0000815C8E7D6F808054FF00001C0074FF0F6
:103DE00010094FF001023BD0386930B1A06CD6F811
:103DF0001035C3F31203C01A206584F86120E16511
:103E0000C6F8082594F83F0030B1022804D00328F2
:103E100009D0012807D012E02946386804F04BFF8A
:103E2000C6F808950BE0D6F8000540F00050C6F83B
:103E3000000584F8602029463846FEF73DF93869C8
:103E4000012806D1B4F84010A06CB0FBF1F0C00717
:103E500004D014F8540F80F001002070BDE8F08702
:103E6000D6F80805800735D594F8610002230128AB
:103E70000AD005280BD006280CD008280AD0032821
:103E80000FD0072818D01CE084F8602019E084F8CF
:103E900060A016E0E06D401CE065022801D9E165F4
:103EA0000DE084F86030D6F8000520F0804040F046
:103EB0000040C6F8000504E0E06D401CE06584F8B1
:103EC0006080C6F8083594F8602029463846FEF729
:103ED000F3F8C3E7D6F80805C006BFD594F83F004D
:103EE000032803D020B1022802D00BE0E16505E0F1
:103EF000E165386930B9032084F8610029463868E3
:103F000004F0D9FE4846C6F80805A7E72DE9F047B2
:103F1000026802EB4114D4F8082501EB4103550770
:103F200003EBC1034FF004024FF0060A00EB8303DA
:103F300004D5C4F8082583F861A051E0D4F80855E9
:103F40004FF00007AD064FF0020C0BD52022C4F84D
:103F5000082593F83D20012A33D183F83D7083F87A
:103F600060C03DE0D4F80855AD0504D54FF40072AB
:103F7000C4F8082534E0D4F808554FF001065FEA8C
:103F8000C5784FF040050DD0DF65D4F808255206FE
:103F900003D583F83D60C4F80855C4F8086583F874
:103FA00061601DE0D4F808855FEA48680BD583F8A6
:103FB000612083F83D60DF65006804F07CFEC4F892
:103FC0000855BDE8F087D4F808554FF008095FEAB6
:103FD00005784FF0050508D5C4F8089583F86150B9
:103FE0000068BDE8F04704F066BED4F808855FEAD3
:103FF000C86810D50322DF6583F8612093F83D205F
:1040000022B993F83C200AB983F83D60006804F0B7
:1040100052FE10201AE0D4F808855FEA086818D527
:10402000056955B1DD6D6D1CDD65022D0BD9DF65B0
:1040300083F86020FEF740F807E083F861A000688D
:1040400004F039FE01E083F860C08020C4F8080560
:10405000B7E7D4F808855FEA485807D583F8619038
:10406000006804F028FE4FF48060EFE7D4F808857C
:104070005FEA8878A5D593F86180B8F1010F0FD079
:10408000B8F1030F30D0B8F1040F2DD0B8F1050FFF
:104090002DD0B8F1060F2DD0B8F1080F2AD03CE092
:1040A00083F8606093F83F20022A01D0032A34D1BC
:1040B00002692AB993F8552082F0010283F855204D
:1040C0000269012A29D1DA6C3AB3B3F840502A4484
:1040D000521EB2FBF5F2D2071FD093F8552082F0A2
:1040E000010283F8552018E083F860C015E083F8DA
:1040F000605012E0DD6D6D1CDD65022D03D9DF65BA
:1041000083F8602009E083F860C0D4F8002522F02D
:10411000804242F00042C4F80025C4F808C593F874
:104120006020FDF7C9FF4CE77CB504680546D4F86C
:1041300040040190D4F8400420F02E000090019833
:10414000800709D50198C00702D02846FDF748FF2F
:10415000009840F0020000900198000724D50098D4
:1041600040F008000090019840071AD5A86902287D
:1041700003D0E86801280CD00FE00198C0F341405B
:104180000228286803D0012104F08AFF05E00221FB
:10419000FAE74EF66020C4F804042846FEF736F924
:1041A00002E02846FEF72EF901988006009802D515
:1041B00040F020000090C4F840047CBD2DE9F0419F
:1041C000024600680646016AC1F3434301F00F0747
:1041D000C1F30A15022B31D1002D2FD007EB470177
:1041E00001EBC70102EB8104616C002926D0226D2E
:1041F000E36C2A449A4223D82A4604F070FF606C8C
:1042000028446064206D2844206506EB4710D0F8F0
:104210001015B4F84020C1F3C941AA420ED10029BB
:104220000CD0D0F8001521F0804141F00041C0F8D9
:10423000001514F8540F80F001002070BDE8F081E3
:10424000042084F86000F9E7FEE701684A69D24378
:1042500052050FD46FF480624A61002140F8301F8C
:10426000202242738173026942F0040202610173E9
:1042700001207047002070472DE9F84F0446006880
:1042800089460B9D01689846174641F4806101609C
:104290002068016841F48071016000954FF0011BB6
:1042A0000022594620460A9B00F0DEF84FF4007ABF
:1042B00040B120680068C00501D5C4F840A00320C3
:1042C000BDE8F88F216809F0FE0008612B462849F7
:1042D00020460A9A00F0FCF8F0BB2068416980692A
:1042E00000902A4620460A9900F070F940B1206CEF
:1042F00004283AD12068016841F40071016034E07B
:10430000FEB2B8F1010F09D02168380A08612A46C7
:1043100020460A9900F05AF90028E8D12068066181
:104320002A4620460A9900F051F90028DFD120687A
:10433000016841F4807101600095002259462046D1
:104340000A9B00F091F80028B3D1216809F0FF0022
:1043500040F00100086100E007E02B4604492046D8
:104360000A9A00F0B5F80028AAD00120A8E70000BA
:10437000020001002DE9F843044600680D46DDE91E
:10438000089701689846164641F4807101604B46D3
:1043900000224FF001112046009700F065F848B167
:1043A00020680068C00502D54FF400702064032027
:1043B000BDE8F883216805F0FE0008613B464A46E7
:1043C0001549204600F084F888B920684169806961
:1043D00000903A464946204600F0F8F848B1206C73
:1043E000042804D12068016841F4007101600120B3
:1043F000DEE7F5B2B8F1010F09D02168300A086193
:104400003A464946204600F0E1F80028E7D1206806
:1044100005610020CCE700000200010070B51646DF
:104420000D4604460DE02046FFF70FFF08B10120BE
:1044300070BD681C05D0FDF7CDFD801BA84207D8D4
:1044400035B120684069C0434007ECD4002070BDFE
:10445000002044F8300F20216173A073216941F0DE
:10446000200121612073E2E72DE9F0471E469046C6
:104470000D460446C1F30747DDF8209008E0701CA4
:1044800006D0FDF7A7FDA0EB0900B0420FD876B12A
:104490002068012F18D0806925EA00000004000C74
:1044A00014D000214145EAD00020BDE8F08700206B
:1044B00044F8300F20216173A073216941F020017D
:1044C000216120730120F0E74069E5E70121E9E778
:1044D0002DE9F0479A4691460E46044600254FF0D6
:1044E0002008C1F3074725E020684069C043400524
:1044F00014D42068016841F40071016021686FF4F0
:1045000080604861256384F83D8084F83E50206CCB
:1045100040F00400206484F83C501FE0B9F1FF3FF4
:1045200008D0FDF757FDA0EB0A0149450CD8B9F1B9
:10453000000F09D02068012F13D0806926EA0000FF
:104540000004000C0BD0CFE744F8305F84F80D80F6
:10455000A573206940F02000206125730120BDE88B
:10456000F0874069EAE72DE9F041002590460E46C4
:104570000446202717E04069C043C0060CD454F815
:10458000301B6FF01000486144F810596777A57729
:10459000206A2062257717E0FDF71CFDA0EB0800DC
:1045A000B04208D83EB120684169C9434906E2D407
:1045B0000020BDE8F08144F8305F6773A57320697F
:1045C00040F02000206125730120F2E770B5164607
:1045D0000D4604460DE02046FFF737FE08B10120E6
:1045E00070BD681C05D0FDF7F5FC801BA84207D8FC
:1045F00035B120684069C0430006ECD4002070BD8E
:10460000002044F8300F20216173A073216941F02C
:10461000200121612073E2E770B590F8811090F8D5
:104620008220002402EB01218DB28021401C05F084
:1046300039F9A84200D10124204670BD10B50246C8
:104640000021084602EB410303F5805393F8E64747
:10465000012C05D193F8E707012801D0002010BDF7
:10466000491CC9B20A29EDD310BD00210B4600EB4D
:10467000410202F58052491C82F8E637C9B282F83D
:10468000E7370A29F3D3704710B5044688B0FF22F4
:104690008021401CFBF7D4FF8021601C05F002F94B
:1046A000010A84F8811084F88200A0208DF80100AE
:1046B0004FF40060ADF802008220ADF80400ADF8C0
:1046C0000600601C02904FF47A7004906946002046
:1046D000FCF702FFC0B2012803D10021204600F000
:1046E000C6FA08B010BD0000F0B50D4600EE105A35
:1046F00004460026444FB8EE400A00F0C5FA0246D0
:1047000004F58054FF2879D0D4F8FC070126032152
:1047100002720A20B5FBF0F300FB1353B5FBF0F572
:1047200001F14D0CD4F8FCE73033491E49B20EF8C4
:104730000C300029EEDAD4F8FC37282107EB0215FB
:1047400083F85110D4F8FC376D2183F85210D4F857
:10475000FC376C2183F85310D4F8FC37292183F8F7
:104760005410D4F8FC375B2183F85D1095ED000AF6
:10477000BCEEC00A10EE101A8AB20321B2FBF0F3AD
:1047800000FB1323B2FBF0F201F15E07D4F8FCC783
:104790003033491E49B20CF807300029EEDAD4F85C
:1047A000FC27202182F86210D4F8FC377E2283F89F
:1047B0006320D4F8FC2782F8641095ED020ABCEE61
:1047C000C00A10EE101A8AB25FF00301B2FBF0F3D8
:1047D00000FB1323B2FBF0F201F16505D4F8FC777E
:1047E0003033491E49B27B550029EFDAD4F8FC1763
:1047F0005D2081F869003046F0BDFFE7D4F8FC1772
:1048000058200872F7E700002837002070B5074DE0
:1048100000242846FFF700FF012806D0FF212A19AF
:10482000641CA4B25170802CF9D370BD281F0020E5
:10483000F0B587B00546A0268DF801604FF4006002
:10484000ADF802008220ADF80400ADF80600681C47
:104850004FF4FA67CDE9030769460120FCF70CFE27
:10486000C4B2012C39D10121284600F000FA8DF89C
:1048700001604FF41860ADF8020040F20240ADF85C
:104880000400ADF8060005F18300CDE90307694691
:104890000520FCF7F1FDC4B2012C1ED105212846EC
:1048A00000F0E5F98DF801604FF49050ADF802008A
:1048B0004FF49850ADF80400ADF8060005F28540BD
:1048C000CDE9030769460920FCF7D6FDC4B2012CE7
:1048D00003D10921284600F0CAF907B02046F0BDEF
:1048E0002DE9F0414D4F002607F580542DED028B48
:1048F0004FF0010894F8CE079FED498AA7F108050B
:1049000002287CD003DC08B3012877D158E0802846
:1049100002D081287DD104E03846FFF789FF81204D
:1049200068E03846FFF78AFE012804D1FFF76EFFE2
:1049300028B184F8CE67BDEC028BBDE8F081BDECF8
:10494000028B3846BDE8F041FFF79EBE002007F01D
:104950000DF8B0EE408A95ED000AB4EE480AF1EE8B
:1049600010FA05D085ED008A06F048FC686019E071
:1049700006F044FC6968401AB0F57A7F12D394F8C7
:10498000CF0778B927492868884203DD387801289D
:1049900002D007E03E7005E0B0EE480A00F074F97E
:1049A000FF28C8D0D4F8FC07202100F168020D30A0
:1049B00004F03EFCC0B20128BDD184F8CE87BAE72E
:1049C00095ED000ABCEEC00A10EE100A81B238461E
:1049D000FFF78AFE01281CD194F8E50748B938464C
:1049E000FFF743FE3846D4F8FC1700F01DF8012805
:1049F0000FD1022084F8CE079DE700E009E0384699
:104A0000FFF71CFE012896D13E7084F8CF8704F092
:104A10009FFB84F8CE6785ED008A8CE7281F002075
:104A200000007AC40000A0402DE9F047044604F5D8
:104A300080550F46002695F8E51788B030460029C6
:104A400018D1012285F8E5274FF00F0C211811F835
:104A5000013FBCEB131F06D197F8088000230E78A6
:104A60004CEA081C0DE0DB431B0704D0401C80B25D
:104A70008028EBD3F7E097F808C00E7801234CF0BC
:104A8000F00C06EA0C060E7003EB4001C9B2A5F863
:104A9000D01700F500614FF0A00820448DF8018088
:104AA000401CADF80210ADF804204FF47A79029062
:104AB000ADF806206946CDF810900020FCF70CFDFB
:104AC000C6B2012ED6D10021204600F0D0F88021B8
:104AD000601C04F0E7FE010A84F8811084F882006B
:104AE0008DF801804FF40860ADF802004FF0020A23
:104AF00004F18100ADF804A00290ADF806A069466B
:104B0000CDF810905046FCF7E7FCC6B2012E7DD1DF
:104B10000221204600F0ABF838793968020242EAF7
:104B20001160B5F8D01704EB810181F88300387962
:104B30003968020442EA1140B5F8D01704EB81014C
:104B400081F8840038793988020642EA1120B5F8E4
:104B5000D01704EB810181F88500B5F8D0173878BB
:104B600004EB810181F886008DF80180B5F8D0074B
:104B70004FF4186101EB8000ADF802000420ADF89D
:104B80000400ADF80600B5F8D007694604EB8000D4
:104B900083300290CDF810900420FCF79DFCC6B243
:104BA000012E60D10421204600F061F8B10204F129
:104BB000830004F077FE010A84F8831484F88404E7
:104BC0008DF801804FF45860ADF8020004F2834084
:104BD000ADF804A00290ADF806A06946CDF810909B
:104BE0000620FCF779FCC6B2012E3CD106212046F6
:104BF00000F03DF841F2D2702618202207F10D0195
:104C00003046FBF7A6FC04F5BD5000E02BE0D7F8DA
:104C10004D10C0F852101121304604F043FE010A35
:104C200085F8E31785F8E4078DF80180B5F8D0071B
:104C3000CDF8109000EB400101EB001000F5905012
:104C4000ADF802001320ADF80400ADF80600694687
:104C500008200296FCF740FCC6B2012E03D10821C1
:104C6000204600F004F808B03046BDE8F0870A227C
:104C7000B1FBF2F302FB131100EB410000F5805091
:104C8000012180F8E617704710B510EE103A104C6D
:104C90000021FF200D4AA34216DD00BFD2ED000A1D
:104CA000F4EEC00AF1EE10FA06D8D2ED020AF4EEE4
:104CB000C00AF1EE10FA04DA491CC9B21032082910
:104CC000ECD3062900D2084610BD0000283700208A
:104CD0000000A04070B564240546012911D006F0FB
:104CE00089FB6320401EFDD1284606F091FB611E22
:104CF000491EFDD1284606F07DFB641E641EFDD1D1
:104D000070BD06F085FB6320401EFDD1284606F0ED
:104D100071FB611E491EFDD1284606F079FB641E19
:104D2000641EFDD170BD000070B503460020024630
:104D3000012906D002290AD0032906D0042907D167
:104D400001E0012204E0082202E0042200E0022245
:104D5000082B15D2C3F1070101EBD1760B4DC6F339
:104D60004703042BEC5C0BD226F00100081A10F06C
:104D7000FF0F06D004F00F0141EA0210E8540120B1
:104D800070BD04F0F0001043F8E70000131100209C
:104D90007FB50024154800940194029412490394AD
:104DA00001604FF48031C0E901140461047680F899
:104DB00020400F49C0E90A140125C561C46080F88C
:104DC00030404561FCF7CAFD08B1FCF741FB082003
:104DD000CDE90005694602940448FCF719FD002856
:104DE00001D0FCF735FB7FBD002001406849002061
:104DF0000100000F394808B5016841F480010160E5
:104E0000016801F480010091016841F40011016022
:104E10000068002200F40010009005210B20FDF72F
:104E20004FFE0B20FDF73EFE002205210C20FDF772
:104E300047FE0C20FDF736FE002205210D20FDF770
:104E40003FFE0D20FDF72EFE002205210E20FDF76E
:104E500037FE0E20FDF726FE002205210F20FDF76C
:104E60002FFE0F20FDF71EFE002205211020FDF76A
:104E700027FE1020FDF716FE002205211120FDF768
:104E80001FFE1120FDF70EFE002205212F20FDF749
:104E900017FE2F20FDF706FE002205213920FDF721
:104EA0000FFE3920FDF7FEFD002205213A20FDF717
:104EB00007FE3A20FDF7F6FD002205214520FDF70B
:104EC000FFFD4520FDF7EEFD002205214620FDF700
:104ED000F7FDBDE808404620FDF7E4BD303802404C
:104EE000002805D001224FF400610248FDF76DB89B
:104EF0000022F8E7000C0240002805D000224FF401
:104F000080710248FDF761B80122F8E7000802400D
:104F100010B503490348FCF722FC0349087010BD93
:104F20004F410020980101084E41002010B58EB07D
:104F30001C220B496846FBF751FB0021684607F02D
:104F40004BFE084C06491C2220601C3107A8FBF7C9
:104F500045FB002107A807F03FFE60600EB010BDC2
:104F60008CFE0008000000202DE9F04F87B01421CE
:104F70006846FBF78FFB71480025016841F010017E
:104F80000160016801F010010591016841F0040120
:104F90000160016801F004010591016841F08001A0
:104FA0000160016801F080010591016841F0010193
:104FB0000160016801F001010591016841F0020101
:104FC0000160016801F002010591016841F00801EA
:104FD00001600068DFF868A100F008000590002279
:104FE0004FF67F015046FCF7F0FF00224FF484712A
:104FF0005448FCF7EAFFDFF8509101221146484679
:10500000FCF7E3FF00224FF48C614846FCF7DDFF1C
:10501000DFF838B1002248F680015846FCF7D5FF8A
:10502000012220214A48FCF7D0FF01244FF604005A
:10503000CDE900040294694650460394FCF7C8FE8B
:105040007B20CDE9000469465046CDE90245FCF7D6
:10505000BFFE32200226CDE9000602AA03274FF048
:105060000B0882E8A00169463648FCF7B1FE08202B
:10507000CDE9000469463348CDE90245FCF7A8FEB6
:1050800040F26140CDE9000469464846CDE9024559
:10509000FCF79EFE8620CDE9000602AA694682E85A
:1050A000A0014846FCF794FE1820CDE900056946AA
:1050B00002944846FCF78CFEA002CDE90005694643
:1050C00002945046FCF784FE4FF46050CDE9000690
:1050D00002AA694682E8A0011D48FCF779FEE002B9
:1050E0008DE83100694658460395FCF771FE46F29B
:1050F0000100CDE90005694602945846FCF768FEB8
:1051000048F28000CDE9000469465846CDE90245E1
:10511000FCF75EFE20028DE83100694609480395E0
:10512000FCF756FE2020CDE90004029469460848A9
:105130000394FCF74DFE07B0BDE8F08F3038024015
:10514000001002400008024000000240000C024033
:10515000000402400D4810B50B4901600C49416044
:1051600000214FF480428160C0E9031241618161F6
:10517000C1610162FDF77EF9002803D0BDE810404F
:10518000FCF766B910BD000000540040B049002093
:10519000801A06001CB500240E4800940C490194A6
:1051A00001605321C0E901144FF6FF718461C160B1
:1051B000FDF7D6FF08B1FCF74BF9009469460548A6
:1051C0000194FDF785FF002801D0FCF741F91CBDD3
:1051D00000140040044A00200C4810B50A49016040
:1051E0004FF4E1314160002181600C22C160C0E9CF
:1051F00004128161C161FEF765FA002803D0BDE8A1
:105200001040FCF725B910BD004C0040844E002032
:105210000C4810B50A4901604FF4E13141600021AA
:1052200081600C22C160C0E904128161C161FEF796
:1052300049FA002803D0BDE81040FCF709B910BDB9
:1052400000500040C84E00200C4810B50A490160CB
:105250004FF4E1314160002181600C22C160C0E95E
:1052600004128161C161FEF72DFA002803D0BDE868
:105270001040FCF7EDB810BD001001400C4F0020AD
:105280000C4810B50A4901604FF4E131416000213A
:1052900081600C22C160C0E904128161C161FEF726
:1052A00011FA002803D0BDE81040FCF7D1B810BDBA
:1052B00000440040504F00200C4810B50A490160DE
:1052C0004FF4E1314160002181600C22C160C0E9EE
:1052D00004128161C161FEF7F5F9002803D0BDE831
:1052E0001040FCF7B5B810BD00480040944F0020B6
:1052F0000C4810B50A4901604FF4E13141600021CA
:1053000081600C22C160C0E904128161C161FEF7B5
:10531000D9F9002803D0BDE81040FCF799B810BDBA
:1053200000140140D84F002010B50022164917483C
:1053300001F098FD08B1FCF78BF81549134803F00C
:10534000CAF908B1FCF784F8104803F00AFA08B16A
:10535000FCF77EF801220F490F4801F083FD08B1E8
:10536000FCF776F80D490C4803F0B5F908B1FCF7E5
:105370006FF8094803F0F5F9002803D0BDE81040A4
:10538000FCF766B810BD00007987000874A2002001
:10539000AC460020A187000858A60020F446002053
:1053A000FEE700000A48D0F80813491CC0F80813AB
:1053B0000849096A012907D0022903D00B2903D023
:1053C0000C2903D100F039B900F02AB87047000069
:1053D0003011002094140020D0F80813C822B1FB2B
:1053E000F2F302FB1311002916D1B0F8161341F0A5
:1053F0002001A0F816130949096A012902D00B29D6
:1054000005D101E0022100E00C2180F827130021E2
:10541000A0F81A1380F814137047000094140020A9
:1054200010B5044600F09CF8204600F0D6F801289C
:105430000BD1B4F8041304F20120085CA52804D1B0
:105440002046BDE8104000F04FB810BD70B50446CE
:105450000020B4F816138A0643D521F02000A4F8E2
:1054600016032048006A012801D00B2801D184F8D6
:10547000040194F8270384F80501062084F8060146
:105480002A2184F8071184F8080104F209100C217C
:1054900007F068FF94F8280384F82101002084F8BD
:1054A000280304F59170022108F0C8F804F59570FE
:1054B000022107F03FFF2B2104F5827084F82613A8
:1054C000054604F0EFF994F82613030A4A1C84F801
:1054D00026234B5594F826134A1C84F82623485556
:1054E000012070BD9414002030B502790021447968
:1054F000022A01D00C2A0CD1184B012C1B6A06D0B1
:105500000B2C06D10B2B04D10C2A03D003E0012B6A
:10551000FAD030BD02228379862BFAD1C379062BCB
:10552000F7D100EB820400BF00EB810204EB8103A2
:10553000157A83F80853557A83F80953957A83F8D6
:105540000A53491CD27A090483F80B23090CEBD0C7
:1055500000EB8101097A80F8291330BD94140020F2
:1055600070B50446FFF738FF94F81403012128B101
:10557000002501280DD002282AD11CE0B4F81A0316
:10558000401C80B2A4F81A030F2801D384F8141326
:1055900070BD2046FFF75AFF0128F9D1206894F822
:1055A000262304F58271836A9847022084F8140345
:1055B000A4F81C5370BDB4F81C03421CA4F81C23AF
:1055C0003C2801D384F8141394F806030128F1D180
:1055D00084F81453A4F81A5370BD2DE9F041044621
:1055E000002690F806033546012823D1002084F8D0
:1055F0000603B4F80413C81EFD281BD204F20220CF
:1056000004F20322085C8A5C891E02EB002087B248
:1056100004F5017004F046F9B84206D00AE06019BA
:105620006D1C90F804120171ADB2B4F80403A842E5
:10563000F5D801263046BDE8F08110B5044600F0EB
:1056400043F82046FFF7C9FF012804D12046BDE8F2
:10565000104000F001B810BD10B504460079617922
:10566000012801D00B282BD1022901D1012805D016
:10567000144A126A8A4223D10B2821D1A079062824
:105680001ED1E0792A281BD1207A062818D104F1EE
:1056900009000C2109F07EFC94F8210084F829030C
:1056A00004F12200022109F093FC04F12A000221F6
:1056B00009F052FCB4F8200340F02000A4F82003C5
:1056C00010BD00009414002070B5044690F81E032D
:1056D00018B10025012818D10BE0B4F82403401CB0
:1056E00080B2A4F824030A2802D3012084F81E0300
:1056F00070BD204600F00CF80128F9D1206894F81C
:10570000262304F58271836A984784F81E5370BD7E
:105710002DE9F04104460020B4F8201307468A061C
:105720005FD521F02000A4F82003324890F8201023
:1057300084F80411006A022855D00C2855D06079ED
:10574000862184F80611062684F8076104EB80059B
:10575000F8B206F00BF905EB87007F1C3F0480EDE3
:10576000C20A3F0CF4D0002005EB800104EB80025C
:1057700091F8083382F8083191F8093382F8093139
:1057800091F80A3382F80A31401C91F80B13000497
:1057900082F80B11000CE7D004EB800194F8282369
:1057A00081F80821002284F8282394F82A2381F81C
:1057B000092106EB8000C1B204F5827084F826133B
:1057C000054604F06FF894F82623030A511C84F868
:1057D0002613535594F826134A1C84F8262348555B
:1057E0000120BDE8F081012000E00B2084F80501D4
:1057F0000220A5E7941400200C480B4900F54172E3
:1058000001604A61911C02689161026800F5827131
:10581000D161026800F5017111620021A0F8041342
:1058200080F8061370470000CC1C002030110020C7
:10583000FEE700000148FCF790BC00003CAA0020F5
:105840000148FCF78ABC000040AD00200148FCF78D
:1058500084BC000040AD00200148FCF77EBC000085
:1058600040AD00200C4910B50B888C880989234471
:1058700019440A4B89B240F2E5741960024661434B
:105880000020C1F30B018A4204D142F2CD00C3E9EA
:105890000120012010BD0000E49B00205C140020CA
:1058A00070B5174C01252078C0B1012804D002281A
:1058B0000BD0032812D10CE0608808B102202070C0
:1058C000A08860B10320207009E0204600F01AF89B
:1058D00002E0204600F032F8012800D125700520B2
:1058E00005F076FD012802D1E088401CE08004200C
:1058F00005F06EFD012802D12089401C208170BD79
:10590000BA9E002070B50C4C014642886078002594
:1059100042B1521E4A8068B9092005F079FD012084
:10592000607007E0012805D1092005F063FD002023
:1059300060700125284670BD041E002070B50C4C17
:10594000014682882078002542B1521E8A8068B9BB
:10595000092005F05DFD0120207007E0012805D138
:10596000092005F047FD002020700125284670BD64
:10597000041E0020FFF7D8FC034C012007F00EF8AE
:10598000207802F0AFFFF8E7A0460020012007F0E2
:1059900005F803F047FFF9E710B5502080F31188B0
:1059A000BFF34F8FBFF36F8F09F0F6FF18B10449B3
:1059B0004FF080500860002080F3118810BD000077
:1059C00004ED00E030B593B030216846FAF762FE8E
:1059D00014210CA8FAF75EFE1E480025016841F06C
:1059E00080510160006800F0805011901A480168F1
:1059F00041F4804101600068022400F4804011906D
:105A000001200090000401908001CDE9064019209A
:105A100008904FF4A870CDE9090407200B90684660
:105A2000FDF79EF908B172B6FEE70CA90F2081E8D8
:105A300031004FF4A0500F904FF48050109005218A
:105A40000CA8FDF781F8002801D072B6FEE713B06C
:105A500030BD00004038024000700040024801683C
:105A600041F470010160704788ED00E0034801686F
:105A7000491C01600248FDF7F6BB00000800002049
:105A80009C540020F0B50268254C264D264E274F29
:105A9000274B4FF0804CA04209D0604507D0A84268
:105AA00005D0B04203D0B84201D0984204D122F0D0
:105AB000700E4A6842EA0E02A0421BD0604519D01F
:105AC000A84217D0B04215D0B84213D0984211D096
:105AD000184DA8420ED0184DA8420BD0174DA84221
