:020000040800F2
:10000000900B012031030008898A00089F640008D2
:10001000598400081F1600085BD10008000000008A
:100020000000000000000000000000007102000855
:10003000CB1F000800000000CD020008958C0008CE
:100040004B0300084B0300084B0300084B03000858
:100050004B0300084B0300084B0300084B03000848
:100060004B0300084B0300084B030008251600084B
:1000700035160008451600085516000865160008D4
:1000800075160008851600084B0300084B0300088E
:100090004B0300084B0300084B0300084B03000808
:1000A0004B0300084B0300084B0300084B030008F8
:1000B0004B0300084B0300084B0300084B030008E8
:1000C0004B0300084B0300084B0300084B030008D8
:1000D0004B03000899950008AD950008C1950008EC
:1000E0004B0300084B0300084B0300084B030008B8
:1000F0004B0300084B0300084B030008951600084B
:100100004B0300084B0300084B0300084B03000897
:10011000858E0008998E0008918D00084B03000819
:100120004B030008A5160008B51600084B0300088D
:100130004B0300084B0300084B0300084B03000867
:100140004B0300084B0300084B0300088D8A00088E
:100150004B030008C5160008D5160008D595000801
:100160004B0300084B030008AD8A00089D8A000875
:100170004B030008BD8A00084B0300080000000084
:100180004B0300084B03000800F002F800F060F891
:100190000AA090E8000C82448344AAF10107DA45E2
:1001A00001D100F055F8AFF2090EBAE80F0013F0D4
:1001B000010F18BFFB1A43F00103184798680100AC
:1001C000B86801000A444FF0000C10F8013B13F02E
:1001D000070408BF10F8014B1D1108BF10F8015BA0
:1001E000641E05D010F8016B641E01F8016BF9D193
:1001F00013F0080F1EBF10F8014BAD1C0C1B09D1EA
:100200006D1E58BF01F801CBFAD505E014F8016B5B
:1002100001F8016B6D1EF9D59142D6D370470000ED
:100220000023002400250026103A28BF78C1FBD8FF
:10023000520728BF30C148BF0B6070471FB516F08A
:1002400017FA9DE8030000F0AFFA1FBD10B510BD0E
:1002500000F006FB1146FFF7F1FF11F0D7F800F0B0
:1002600024FB03B4FFF7F2FF03BC00F055FB0000D2
:100270002C4B19680868B0E8F04F80F30988BFF389
:100280006F8F4FF0000080F311887047000000006E
:1002900008480068006880F308884FF0000080F389
:1002A000148862B661B6BFF34F8FBFF36F8F00DF64
:1002B00000BF00BF08ED00E0DFF80C00016841F46A
:1002C00070010160704700BF88ED00E0EFF3098026
:1002D000BFF36F8F134B1A681EF0100F08BF20ED8D
:1002E000108A20E9F04F106009B44FF0500080F3FD
:1002F0001188BFF34F8FBFF36F8F14F047FE4FF09D
:10030000000080F3118809BC19680868B0E8F04F54
:100310001EF0100F08BFB0EC108A80F30988BFF3FD
:100320006F8F704720000020EFF3058070470000BA
:100330000948804709480047FEE7FEE7FEE7FEE779
:10034000FEE7FEE7FEE7FEE7FEE7FEE704480549B5
:10035000054A064B704700007D8D000889010008A2
:1003600090EB0020900B012090FB002090FB0020E0
:1003700070B5064600F0FCF9056806F10B0020F0A8
:100380000704B4429CBF002070BD2B466A68BAB116
:100390001068A04210D304F1080188423CBF5068A5
:1003A000586007D35168101941601168091B01603A
:1003B00058601460101D70BD13465268002AE7D1C2
:1003C0002146284600F0DCF90028DED170BD70B56A
:1003D0000446051F00F0CCF90068002C14BF4468E7
:1003E00070BD002C18BFAC423CBF20466468F8D3F7
:1003F00001680A18AA4218BF456003D12A68054659
:100400001144016028684119A1421CBF6C6070BD95
:100410006168696021680844286070BD53EA020C75
:1004200000F069802DE9F04B4FF00006002B1FBF54
:10043000B3FA83F503FA05F424FA05F65E4012BF19
:100440001643B2FA82F502FA05F4C5F120051EBF83
:1004500022FA05FC44EA0C04203556EA044C4FEA23
:10046000144418BF641C4FF000084FF0000990427C
:1004700071EB030C39D3002919BFB1FA81F701FAE6
:1004800007F6B0FA80F700FA07F6C7F120071EBF9B
:1004900020FA07FC46EA0C062037B6FBF4FCA7EB73
:1004A0000507103F07F01F0BCBF120060CFA0BFBE2
:1004B0002CFA06F644BFB3460026202FA4BF5E46A2
:1004C0004FF0000B5BEA060C08BF4FF0010B19EB75
:1004D0000B09ABFB027C48EB0608C01B06FB02CCF9
:1004E0000BFB03CC71EB0C01C1E70B460246414606
:1004F0004846BDE8F08B13B54FF000004FF0000107
:10050000AFF30080BDE81C40704710B54C1084EA82
:10051000530404D54042C1F1000138BF491E1B42BB
:1005200004D55242C3F1000338BF5B1EFFF776FFCC
:1005300014F0804F04D04042C1F1000138BF491E81
:1005400014F0004F04D05242C3F1000338BF5B1EC9
:1005500010BD40EA010310B59B070FD1042A0DD34B
:1005600010C808C9121F9C42F8D020BA19BA884294
:1005700001D9012010BD4FF0FF3010BD1AB1D307D3
:1005800003D0521C07E0002010BD10F8013B11F809
:10059000014B1B1B07D110F8013B11F8014B1B1B32
:1005A00001D1921EF1D1184610BD10B5431C02E0D6
:1005B00010F8011B71B18107FAD14FF0013202C866
:1005C0008C1A8C4314EAC211F9D0C01A0A0603D05F
:1005D000C01E10BDC01A10BD0A0401D0801E10BD7F
:1005E0000902FCD0401E10BD032A40F2308010F0FA
:1005F000030C00F0158011F8013BBCF1020F6244BE
:1006000098BF11F801CB00F8013B38BF11F8013B4E
:10061000A2F1040298BF00F801CB38BF00F8013BFB
:1006200011F0030300F02580083AC0F0088051F86B
:10063000043B083A51F804CBA0E80810F5E7121D76
:100640005CBF51F8043B40F8043BAFF30080D20795
:1006500024BF11F8013B11F801CB48BF11F8012B61
:1006600024BF00F8013B00F801CB48BF00F8012B84
:10067000704710B5203AC0F00B80B1E81850203A0E
:10068000A0E81850B1E81850A0E81850BFF4F5AF32
:100690005FEA027C24BFB1E81850A0E8185044BFBC
:1006A00018C918C0BDE810405FEA827C24BF51F829
:1006B000043B40F8043B08BF7047D20728BF31F81D
:1006C000023B48BF11F8012B28BF20F8023B48BF6E
:1006D00000F8012B70474FF000020429C0F012808F
:1006E00010F0030C00F01B80CCF1040CBCF1020FE5
:1006F00018BF00F8012BA8BF20F8022BA1EB0C01BA
:1007000000F00DB85FEAC17C24BF00F8012B00F8AF
:10071000012B48BF00F8012B70474FF0000200B5D5
:10072000134694469646203922BFA0E80C50A0E814
:100730000C50B1F12001BFF4F7AF090728BFA0E8C2
:100740000C5048BF0CC05DF804EB890028BF40F88E
:10075000042B08BF704748BF20F8022B11F0804FD0
:1007600018BF00F8012B70477047704770470000B2
:100770000048704734EB002070477047704770475F
:1007800038B504460A4600206946AFF300800028C9
:1007900008BF38BD02460099204600F03FF801200E
:1007A00038BD012000F054B8F8B5AFF3008005461D
:1007B00000200C46102000BF0646A819A0420DD903
:1007C000324669460020AFF30080070008BF00F002
:1007D0003FF80098A04218BF0546C419FFF7C8FFAC
:1007E00005600746F01D20F007004619284600F076
:1007F0000AF8B44208BFF8BDA21B31463868BDE80C
:10080000F84000F00BB800210160C0E9011070470A
:1008100010207047004870472CEB002003464068CA
:100820008C46002818BF88423CBF03464068F8D376
:1008300018681844884207D00CF1030020F0070024
:10084000001D411A521A0146081D0A60FFF7BFBD7C
:1008500010B500F039F8BDE8104000F02FB870472F
:100860007546FFF7D7FFAE4605006946534620F0B0
:100870000700854618B020B5FFF768FDBDE82040A9
:100880004FF000064FF000074FF000084FF0000B4C
:1008900021F00701AC46ACE8C009ACE8C009ACE8FF
:1008A000C009ACE8C0098D46704710B50446AFF3E7
:1008B00000802046BDE81040FFF7D3BC002801D0DF
:1008C00000F02AB87047000010B5012805D00021BB
:1008D00003A000F027F8012010BD09A1F8E70000EF
:1008E00053494752544D454D3A204F7574206F6619
:1008F0002068656170206D656D6F72790000000081
:100900003A2048656170206D656D6F727920636F64
:10091000727275707465640001491820ABBEFEE701
:100920002600020070B505460C460A2000E06D1C4A
:1009300000F011F835B128780028F8D102E0641CE5
:1009400000F009F814B120780028F8D1BDE8704013
:100950000A20AFF3008008B569468DF80000032037
:10096000ABBE08BD55494A6822F440324A604A6825
:1009700043681A434A600268526822F4807203682E
:100980005A6002685368026943EA022203685A60A7
:100990000268526822F0407203685A600268526826
:1009A00083681A4303685A600268926822F40062FE
:1009B00003689A6002689268C3681A4303689A6081
:1009C0003F4B826A9A4218D00268926822F07062A5
:1009D00003689A6002689268836A1A4303689A609F
:1009E0000268926822F0405203689A600268926836
:1009F000C36A1A4303689A600BE00268926822F0A7
:100A0000706203689A600268926822F0405203683C
:100A10009A600268926822F0020203689A60026893
:100A20009368027E43EA420203689A602022125CC5
:100A3000A2B10268526842F4006203685A60026818
:100A4000526822F4604203685A6002685368426A3E
:100A5000521E43EA423203685A6005E00268526857
:100A600022F4006203685A600268D26A22F47002BB
:100A70000368DA620268D36A828B521E43EA02522A
:100A80000368DA620268926822F4007203689A606E
:100A90000268936890F8302043EA422203689A6023
:100AA0000268926822F4806203689A600268936820
:100AB000426943EA822203689A607047002301403A
:100AC0000100000F10B50A4C2068401C2060207AFD
:100AD00010B1012809D102E00120207206E0204671
:100AE00001F002FB0120207200E000BF00BF10BD3A
:100AF000682000202DE9F04F2DED028B87B0834652
:100B00008946002006900590002500240027DBF888
:100B10001460DBF81C80DBF824A0DBF828000490CC
:100B2000DBF82C00039000200290C64890ED070AE5
:100B3000F0EE408A90ED0E0AB0EE408A002001905F
:100B4000C048C06D012810D1BE4890ED070AF2EEF2
:100B5000040A20EE200AF0EE408A90ED0E0AF2EE32
:100B6000040A20EE200AB0EE408AB9F1020F7DDCC3
:100B700000279AE0002006903D461AF815404C45A3
:100B80005CDA56F8250056F82410401A00EE100AD8
:100B9000B8EEC00AF1EE680AB4EEE00AF1EE10FA1F
:100BA00049DB56F8250056F82410401A00EE100ACA
:100BB000B8EEC00AB4EEE80AF1EE10FA3BD856F8E7
:100BC000250000EE100AB8EEC00AF1EE480AB4EEB5
:100BD000E00AF1EE10FA0ADD56F8250000EE100AE0
:100BE000B8EEC00AB4EEC80AF1EE10FA17D356F800
:100BF000240000EE100AB8EEC00AF1EE480AB4EE86
:100C0000E00AF1EE10FA0DDD56F8240000EE100AAD
:100C1000B8EEC00AB4EEC80AF1EE10FA02D2012012
:100C200006900DE038F9150038F91410884207D005
:100C30000120069004E00120069001E001200690CA
:100C4000069801282FD13AF91500FF2802D0FF207D
:100C50002AF81500022C06DA3AF91400FF2802D00F
:100C6000FF202AF8140038F8150000E0E5E050B144
:100C700018F8150011F0F0FD0021284607F03EF8A5
:100C8000002028F81500022C0DDA38F8140050B1B5
:100C900018F8140011F0E0FD0021204607F02EF8AE
:100CA000002028F81400781CC7B24F45FFF662AF49
:100CB00000200590002730E038F8170058BB56F8A0
:100CC000270000EE100AB8EEC00AF1EE480AB4EEB2
:100CD000E00AF1EE10FA0AD356F8270000EE100AE7
:100CE000B8EEC00AB4EEC80AF1EE10FA13DD56F8F9
:100CF000270000EE100AB8EEC00ADDE9040100EB9F
:100D0000810080ED000A0599039820F8117005987C
:100D1000401CC0B20590781CC7B24F45CCDBDDE962
:100D20000402039900F008FC002002907FE0DDE956
:100D3000021010F81150DDE90201401C11F81040BA
:100D40004D4570DA4C456EDA56F8250000EE100A73
:100D5000B8EEC00AF1EE480AB4EEE00AF1EE10FA7D
:100D60000AD356F8250000EE100AB8EEC00AB4EE19
:100D7000C80AF1EE10FA56DD56F8240000EE100A0B
:100D8000B8EEC00AF1EE480AB4EEE00AF1EE10FA4D
:100D90000AD356F8240000EE100AB8EEC00AB4EEEA
:100DA000C80AF1EE10FA3EDD56F8250056F8241078
:100DB000401A00EE100AB8EEC00AF1EE680AB4EE6E
:100DC000E00AF1EE10FA2EDB56F8250056F8241052
:100DD000401A00EE100AB8EEC00AB4EEE80AF1EECE
:100DE00010FA20D80EF07AFA0190019828F8150030
:100DF000019828F814002AF815402AF81450019890
:100E000028B1621CD1B26A1CD0B212F03DFD284656
:100E1000019906F073FF2046019906F06FFF0298D2
:100E2000401CC0B202900298401CC0B202900598CB
:100E3000401E029988423FF77AAF07B0BDEC028BA3
:100E4000BDE8F08FC016002010B50446207A20B10E
:100E5000012811D0FE2813D111E0204600F016F829
:100E6000012804D120722072FE20607203E0FE206F
:100E700020720020607206E00020207203E002E091
:100E80000020207200BF00BF10BD00002DE9F0411E
:100E9000054600273948006A20B1012821D00228E0
:100EA00066D13DE03648A84204D101212846FFF72B
:100EB00021FE0FE03348A8420CD1314E002407E058
:100EC000F06930F81410E86920F81410601C84B23E
:100ED000022CF5DB0122D5E9070100F017FA0746DD
:100EE00047E02748A84204D102212846FFF702FE26
:100EF0000FE02448A8420CD1214E002407E0F069FD
:100F000030F81410E86920F81410601C84B2022C28
:100F1000F5DB0222D5E9070100F0F8F9074628E0E1
:100F20001748A8420DD1002408E0621C164B13F8A4
:100F30001210E0B206F0E2FE601C84B2012CF4DB79
:100F40000FE01048A8420CD10D4E002407E0F069D4
:100F500030F81410E86920F81410601C84B2022CD8
:100F6000F5DB0222D5E9070100F0D0F9074600E0E1
:100F700000BF00BF3846BDE8F0810000C016002069
:100F800018180020141B0020641E002010B5034612
:100F9000002000BF05E033F8104021F81040441C49
:100FA000A0B29042F7DB10BD10B50346002000BF91
:100FB00005E053F8204041F82040441CA0B2904284
:100FC000F7DB10BD2DE9F34F87B081460020069076
:100FD000D9F810000590D9F824000490D9F82850C9
:100FE000D9F82CB000200390FF2002900190002639
:100FF000D9F830A0002700244FF0000800BF00BF40
:1010000015E0049830F91400FF280ED1059850F827
:10101000240000EE100AB8EEC00A05EB870080ED50
:10102000000A2BF81740781CC7B2601CC4B208989D
:101030008442E6DB012F04DD3A465946284600F09B
:101040007BFA0026ADE047F6FF700390FF20029088
:10105000019000246BE005EB840090ED000A5F48EE
:10106000D0ED0E0AB4EEE00AF1EE10FA0DDA05EB5F
:10107000840090ED000A5948D0ED0E0AF1EE600AA6
:10108000B4EEE00AF1EE10FA4FD8601C00F0FF0851
:101090001EE005EB880090ED000A5048D0ED0E0AE6
:1010A000B4EEE00AF1EE10FA0DDA05EB880090EDEF
:1010B000000A4A48D0ED0E0AF1EE600AB4EEE00AEA
:1010C000F1EE10FA00D805E008F1010000F0FF0889
:1010D000B845DEDB00BFBC4227DAB84525DA05EBB0
:1010E000880090ED000A05EB8400D0ED000A70EE58
:1010F000600A9DED030AB8EEC00AF4EEC00AF1EEF4
:1011000010FA12D205EB880090ED000A05EB84007E
:10111000D0ED000A30EE600ABDEEC00A10EE100AF3
:1011200000B20390CDF804800294601CC4B2BC42AB
:1011300091DB47F6FF710398884231D00298FF286F
:101140002ED00198FF282BD0042E1ADA01983BF8F4
:101150001000401C01B206EB46002AF8101002985D
:101160003BF81000401C01B206EB4600401C2AF878
:10117000101006EB4601891C03982AF81100701C18
:10118000C6B29FED170A019805EB800080ED000ABA
:101190009FED130A029805EB800080ED000A00E045
:1011A00002E0042EFFF64FAF00BF10E0002106EB77
:1011B00046002AF8101006EB4600401C2AF81010D2
:1011C00006EB4600801C2AF81010701CC6B2042ED4
:1011D000ECDB069809B0BDE8F08F0000C0160020D7
:1011E0000000000038B50446607A20B101280FD015
:1011F000FE2821D11FE0204600F024F8012801D16B
:10120000607204E000202071FE202072607216E0FF
:10121000002000900C2341F201212046226B12F0A5
:10122000CDFE012806D10C22D4E90C01FFF7AEFE59
:101230000020607203E002E00020607200BF00BF87
:1012400038BD00002DE9F041054600272C48006A12
:1012500020B101281BD0022846D131E02948A842FC
:1012600004D101212846FFF7ADFE0FE02648A84231
:101270000CD1244E002407E0306B30F81410286B9A
:1012800020F81410601C84B20C2CF5DB2DE01D48F6
:10129000A84204D102212846FFF794FE0FE01A4825
:1012A000A8420CD1174E002407E0306B30F8141020
:1012B000286B20F81410601C84B20C2CF5DB14E0B1
:1012C0001048A8420FD01048A8420CD10D4E00245F
:1012D00007E0306B30F81410286B20F81410601CF5
:1012E00084B20C2CF5DB00E000BF00BF0C22D5E976
:1012F0000C0100F00BF807463846BDE8F08100000D
:10130000C016002018180020141B002070B50346DA
:101310000C460020002100BF08E033F9115034F9D9
:101320001160B54200D001204D1CA9B29142F4DBFE
:1013300070BD70B503460C460020002100BF08E0D8
:1013400053F8215054F82160B54200D001204D1CC3
:10135000A9B29142F4DB70BD10B50446207910B1FA
:10136000012820D116E0204600F022F8012804D1FF
:101370002071FE20207260720BE0E088401CE0804B
:10138000E088FA2805DB0020E0802071FE20207232
:1013900060720BE00222D4E90401FFF705FE002091
:1013A000E080207102E00020207100BF00BF10BD6E
:1013B0002DE9F041054600275C48006A20B101286C
:1013C00033D002287ED166E05948A84204D1A969E9
:1013D000286911F0C3FD21E05648A8421ED1544EA1
:1013E000002419E0306950F82410286940F82410CE
:1013F0006000B16931F810106000AA6922F810107D
:101400006000401CB16931F810106000401CAA69EE
:1014100022F81010601C84B2012CE3DB0122D5E914
:101420000401FFF786FF07467CE04148A84209D146
:10143000A969286911F092FD0222A969286911F0B1
:10144000E7FF21E03B48A8421ED1394E002419E0B5
:10145000306950F82410286940F824106000B16900
:1014600031F810106000AA6922F810106000401CCA
:10147000B16931F810106000401CAA6922F8101000
:10148000601C84B2022CE3DB0222D5E90401FFF7E1
:1014900050FF074646E02648A84219D1002414E030
:1014A000286950F8240000146100AA6922F811008C
:1014B000286930F8240001B26000401CAA6922F8B3
:1014C000101000E02DE0601C84B2022CE8DB21E06B
:1014D0001848A8421ED1164E002419E0306950F871
:1014E0002410286940F824106000B16931F8101008
:1014F0006000AA6922F810106000401CB16931F840
:1015000010106000401CAA6922F81010601C84B200
:10151000022CE3DB0222D5E90401FFF70AFF0746AC
:1015200000E000BF00BF3846BDE8F081C0160020D3
:1015300018180020141B0020F0B5034600250024D5
:101540000020DFED210AB0EE600A002600BF37E080
:10155000002501202DE003EB8007D7ED000A471E90
:1015600003EB870797ED001AF4EEC10AF1EE10FACB
:101570001DD2471E03EB8707D7ED000AB0EE600AC5
:1015800003EB8007D7ED000A471E03EB8707C7ED83
:10159000000A03EB800787ED000A471E31F9176048
:1015A00031F810C021F817C021F810600125471C40
:1015B000F8B2171B8742CEDC05B9F0BD671CFCB240
:1015C0009442C5DB00BFF8E700000000F0B502461A
:1015D000002400230020002500BF1CE0002401207F
:1015E00012E052F82070461E52F82660B74209DA1F
:1015F000461E52F8265052F8207042F8267042F8E3
:1016000020500124461CF0B2CE1A8642E9DC04B90F
:10161000F0BD5E1CF3B28B42E0DB00BFF8E700BF19
:10162000FEE7000010B5024801F0D6F810BD00003A
:101630001485002010B5024801F0CEF810BD00005E
:101640005487002010B5024801F0C6F810BD000014
:101650005484002010B5024801F0BEF810BD00000F
:10166000B487002010B5024801F0B6F810BD0000A4
:10167000B484002010B5024801F0AEF810BD00009F
:101680009486002010B5024801F0A6F810BD0000B5
:10169000F486002010B5024801F09EF810BD00004D
:1016A0007485002010B5024801F096F810BD0000C6
:1016B0001488002010B5024801F08EF810BD00001B
:1016C000D485002010B5024801F086F810BD000056
:1016D0007488002010B5024801F07EF810BD0000AB
:1016E000348600200146087810381823B0FBF3F246
:1016F0000848805CC865032A05D908686FF30900AB
:10170000001D886503E008686FF309008865886D2F
:1017100070470000BC660108014600208A6A8B6998
:10172000CBB932B1012A0DD0022A03D0032A10D13D
:101730000EE000BFCB6A03F08073B3F1807F00D16D
:10174000012007E0CB6AB3F1C07F00D1012001E0A6
:1017500000E000BF34E08B69B3F5005F1AD132B10D
:10176000012A07D0022A03D0032A11D10AE000BFC0
:1017700001200EE0CB6A03F08073B3F1807F00D1CB
:10178000012006E0CB6AB3F1C07F00D1012000E068
:1017900000BF15E032B1012A05D0022A04D0032A85
:1017A0000CD103E000BF00BF012008E0CB6A03F0CA
:1017B0008073B3F1807F00D1012000E000BF00BF43
:1017C000704730B50468246824F4802405682C60D0
:1017D000046863608468402C04D10468A2600468D3
:1017E000E16003E00468A1600468E26030BD0000CD
:1017F0002DE9F34F97B004460020169014901590F1
:101800008346804613900027069007908146002665
:101810000590049003900025029044F63E3030F984
:1018200004A087E3BAF1000F7EDB44F64030005F8E
:10183000504579DD0020049003900AEB4A00C0EB8C
:101840004A101FFA80F800BF1420139013984044E8
:1018500087B200200690079041F612102118C85D4B
:10186000DDE9062C80184CF10002CDE90602DDE925
:101870000612100240EA11600A02CDE9062041F684
:1018800012102118781C085CDDE9062C80184CF138
:101890000002CDE90602DDE90612100240EA1160FD
:1018A0000A02CDE9062041F612102118B81C085C86
:1018B000DDE9062C80184CF10002CDE90602DDE9D5
:1018C0000612100240EA11600A02CDE9062041F634
:1018D00012102118F81C085CDDE9062C80184CF168
:1018E0000002CDE906021B2013901398404487B2F2
:1018F00041F61210204410F807904FF6FF7000EAEE
:10190000092909F47F4941F612102118781C085C56
:1019100048441FFA80F91A2013901398404487B264
:1019200041F61210221800E003E3D05D0590182064
:1019300013901398404487B2002641F612102044B9
:10194000C05D06444FF6FF7000EA062641F612100D
:101950002118781C085C304486B24FF0000B1DE063
:10196000FE4800EB0B10C068A0B9FC4800EB0B1060
:10197000006848450BD0F94800EB0B104068B042B6
:1019800008D8F64800EB0B108068B04202D3012063
:10199000049006E00BF101001FFA80FBBBF10A0F77
:1019A000DEDB00BF41F270400159001D0259DDE944
:1019B0000630591A90410DDB41F2784050F804C0CE
:1019C000011D0859DDE90621BCEB0202884101DB5B
:1019D00001200390049901297ED103990129FBD1AB
:1019E0000599481EC11700EB5171C910A0EBC10247
:1019F0000121914041F28242125B114000296BD0DB
:101A0000002541F61210204410F8080044F6F82191
:101A10002144485541F61210211808F10100095CD3
:101A200044F6F8202218681C115441F612102118AF
:101A300008F10200095C44F6F8202218A81C115491
:101A400041F61210211808F10300095C44F6F82051
:101A50002218E81C1154002144F6F8202218281DF1
:101A6000115444F6F8202218681D1154AD1D0420AD
:101A700013900020029012E0139808EB00010298E6
:101A8000084441F612112144095C0298284444F6A6
:101A9000F822224411540298401CC0B202900298CD
:101AA0001028E9DB05F11000C5B206A80FF074FD9F
:101AB0002C220146019008A8FEF7DBFD4FF47A7155
:101AC0000D9890FBF1F0303044F6F8212144485550
:101AD0004FF47A710D9800E012E290FBF1F201FBF5
:101AE0001200642190FBF1F03030C1B244F6F820CE
:101AF0002218681C115464210D9890FBF1F201FB2F
:101B000012000A2190FBF1F03030C1B244F6F82007
:101B10002218A81C11540A210D9890FBF1F201FB28
:101B200012003030C1B244F6F8202218E81C1154DB
:101B30002F2144F6F8202218281D115464210C98F6
:101B400090FBF1F201FB12000A2190FBF1F0303022
:101B5000C1B244F6F8202218681D11540A210C98CD
:101B600090FBF1F201FB12003030C1B244F6F820D4
:101B70002218A81D11542F2144F6F8202218E81D20
:101B8000115464210B9890FBF1F201FB12000A2121
:101B900090FBF1F03030C1B244F6F820221805F184
:101BA000080011540A210B9890FBF1F201FB12007E
:101BB0003030C1B244F6F820221805F10900115462
:101BC000202144F6F820221805F10A00115464215E
:101BD0000A9890FBF1F201FB12000A2190FBF1F050
:101BE0003030C1B244F6F820221805F10B00115430
:101BF0000A210A9890FBF1F201FB12003030C1B2C9
:101C000044F6F820221805F10C0011543A2144F64C
:101C1000F820221805F10D0011546421099890FB59
:101C2000F1F201FB12000A2190FBF1F03030C1B259
:101C300044F6F820221805F10E0011540A210998E3
:101C400090FBF1F201FB12003030C1B244F6F820F3
:101C5000221805F10F0011543A2144F6F8202218F9
:101C600005F1100011546421089890FBF1F201FB7A
:101C700012000A2190FBF1F03030C1B244F6F82096
:101C8000221805F1110011540A21089890FBF1F275
:101C900001FB12003030C1B244F6F820221805F1E1
:101CA00012001154002144F6F820221805F1130007
:101CB0001154401CC5B2202044F6F8212144485557
:101CC000202144F6F8202218681C115444F6F8200C
:101CD0002218A81C115444F6F8202218E81C1154AC
:101CE000B6F57A7F08DB4FF47A7096FBF0F030306F
:101CF00044F6F82121444855642E0FDB4FF47A70E6
:101D000096FBF0F100FB1160642190FBF1F03030A4
:101D1000C1B244F6F8202218681C11540A2E0EDBBA
:101D2000642096FBF0F100FB11600A2190FBF1F0BA
:101D30003030C1B244F6F8202218A81C1154002EED
:101D40000BDB0A2096FBF0F100FB11603030C1B2D2
:101D500044F6F8202218E81C115401E05417002022
:101D6000281DC5B24FF47A7096FBF0F0503044F65F
:101D7000F8212144485505983030C1B244F6F82086
:101D80002218681C11540598012806D002280AD090
:101D900003280ED0042816D110E06B4814904FF0A1
:101DA0002030159014E0694814904FF020301590C1
:101DB0000EE0674814906448159009E06448149058
:101DC0006248159004E04FF020301490159000BF49
:101DD00000BF1498000E44F6F8216218A91C505454
:101DE0001498C0F3074144F6F8202218E81C115457
:101DF0001498C0F3072144F6F8202218281D115426
:101E00001498C1B244F6F8202218681D1154159890
:101E1000000E44F6F8216218A91D50541598C0F31D
:101E2000074144F6F8202218E81D11541598C0F314
:101E3000072144F6F820221805F1080011541598DE
:101E4000C1B244F6F820221805F109001154FF210F
:101E500044F6F820221805F10A00115444F6F8203F
:101E6000221805F10B001154401CC5B2202044F685
:101E7000F82121444855B9F1640F0FDB642099FB28
:101E8000F0F00A2190FBF1F201FB12003030C1B2F8
:101E900044F6F8202218681C115405E0202144F66D
:101EA000F8202218681C11540A2099FBF0F00A212E
:101EB00090FBF1F201FB12003030C1B244F6F82081
:101EC0002218A81C11540A2099FBF0F100FB119074
:101ED0003030C1B244F6F8202218E81C11546D21AC
:101EE00044F6F8202218281D11546C2144F6F820DD
:101EF0002218681D1154012016901898A0F800A00F
:101F000044F63930005D012804D10AF101000FFACE
:101F100080FA09E044F63930005D20B9AAF10100E9
:101F20000FFA80FA00E009E044F63E3020F804A001
:101F300000E003E0169800283FF474AC00BF169848
:101F400019B0BDE8F08F0000ACBDCACFACBDF9B18F
:101F5000F0C3A1B2034A41F2AA43134403EB400386
:101F600059707047A021002070B50A2805DA034A8D
:101F700002EB001291E8780078C270BD306D00204D
:101F80000021002200EB8103C3F88423491C10299F
:101F9000F8D30021431883F81C21491CB1F5007FB8
:101FA000F8D30270427001218170C0F8C423017619
:101FB00040238371427680F81C2380F81D1380F83B
:101FC0001F2380F81E2300207047704772B600BFA1
:101FD000FEE7000070B504460E460B4DD5F83401FF
:101FE00010F83400A0420DD1D5F8340100EBC40044
:101FF000406838B1D5F8340100EBC400314642687E
:102000002046904770BD000068200020F0B589B0E0
:1020100005460C460026154F218960680844B0F536
:10202000804F1DD801208DF8040060788DF80500E0
:10203000606802902089ADF80C006089ADF80E0050
:102040002069059000200490606906908DF81C506E
:102050000748089001A9384600F07BF9064601E0E0
:102060004FF0FF36304609B0F0BD00006820002078
:10207000D51F0008F0B589B006460C460027184D5C
:10208000218960680844B0F5804F24D8A97A05F109
:102090000C0000EB41100078F8B902208DF8040024
:1020A00060788DF80500606802902089ADF80C001A
:1020B0006089ADF80E0000200590E068049060692A
:1020C00006908DF81C600748089001A9284600F08A
:1020D00040F9074601E04FF0FF37384609B0F0BD40
:1020E00068200020D51F000830B589B004460025BF
:1020F00094F80C0105285FD2DFE800F00321224CA0
:102100004D0001A9204600F0F3F8012816D1202245
:1021100001A904F58670FEF7ACFA2068606094F8B7
:102120000C01022803D094F80C01032803D10720E6
:102130000DF0FCF902E007200DF0E8F940E000BFE7
:10214000204600F04FF80546012D04D104F58670B5
:1021500000F039F81DE0782D1BD194F80C0101280E
:1021600002D1C4F830010AE094F80C01022803D12E
:102170000A20C4F8300102E00020C4F83001D4F88D
:10218000300130B194F80C0184F82C01042084F85B
:102190000C0115E014E0D4F8300128B1D4F8300176
:1021A000401EC4F8300106E094F82C0184F80C01BC
:1021B000002084F82C0103E0002084F80C0100BF0B
:1021C00000BF09B030BD00210170A0214170002185
:1021D000416001814181016141611021017600214D
:1021E000C1617047FEB50446002600254FF48B7090
:1021F000005B002862DD4FF48870005D00F03F0056
:10220000C0F140054FF48B70005BA84202DA4FF436
:102210008B70055B94F80C01012802D002283CD198
:102220001DE04FF4907000594FF48A710A5B891CCD
:10223000095B521A4FF48E7109591144CDE900150A
:1022400002904FF48870005B82B240F20D10015D85
:102250001023264801F080FA064678261EE04FF447
:10226000907000594FF48A710A5B891C095B521AFD
:102270004FF48C7109591144CDE9001502904FF4C7
:102280008870005B82B240F20D10015D1023174888
:1022900001F0DCFB0646782600E000BF00BF4FF4EB
:1022A0008870005941194FF488700151801D005BFE
:1022B000401B81B24FF48B7001530BE001264FF4A9
:1022C0009470005930B14FF49271085D091D0A599C
:1022D00031469047D4E90001411A4FF490700059FB
:1022E000814200D380263046FEBD0000E87D0020FC
:1022F00070B504460D460026E07AC11700EB517117
:10230000C910A0EBC101E172E17A04F10C0000EB0D
:1023100041100078D8B1E27A04F10C0000EB4211D0
:1023200020222846FEF7A5F9E27A04F10C0101EB20
:102330004210FFF748FFE07A401CE072E07AC117D4
:1023400000EB5171C910A0EBC101E17201263046CA
:1023500070BD70B504460D460026607A50BB012062
:102360006072607A012823D1A07AC11700EB517105
:10237000C910A0EBC101A172A17A04F10C0000EB1D
:1023800041100078A0B9A27A04F10C0101EB4210CF
:1023900020222946FEF76DF9A07A401CA072A07A8F
:1023A000C11700EB5171C910A0EBC101A172012648
:1023B00000206072304670BD002200F001B80000BD
:1023C00010B4844601200E4B5C7A002C16D1587A4A
:1023D0001C54587A03EB8000C0F804C0587A03F10B
:1023E000080C00F80C20587A421C5A7230300870E1
:1023F0003A2048702F208870CC70002010BC7047A5
:1024000010EB002010B5DFED1F0AB0EE600A1E4A87
:10241000012936DA012834DB032832DA431E02F5BB
:10242000437404EB830303EB8103D3ED000AB0EEA6
:10243000600A164B1B6EA3B1144B1B6946F66C5415
:10244000A3420ED1DFED120A60EE200AB0EE600A60
:102450000E4BD3ED180AF8EEE00A80EE201AB0EE2B
:10246000410A0A4BDB6D33B9F6EE000A70EE200A22
:10247000B0EE600A05E0F2EE040A60EE200AB0EE6B
:10248000600A10BD0000000060130020C01600208C
:1024900000007A4438B502460020009000BF92F850
:1024A0003C00012801D1022038BD012082F83C0007
:1024B00000BF0868092816D91068C0680C780A3C63
:1024C00004EB44050724AC40A0431468E0600C789A
:1024D0000A3C04EB44048868A0401468E468204384
:1024E0001468E06013E0106800690C7804EB4405A0
:1024F0000724AC40A043146820610C7804EB44042A
:102500008868A040146824692043146820614868E2
:10251000072817D21068406B0C79641E04EB840501
:102520001F24AC40A04314686063088880B20C7913
:10253000641E04EB8404A0401468646B2043146898
:10254000606331E048680D2817D21068006B0C7981
:10255000E41F04EB84051F24AC40A04314682063EF
:10256000088880B20C79E41F04EB8404A04014684E
:10257000246B20431468206316E01068C06A0C794D
:102580000D3C04EB84051F24AC40A0431468E062BA
:10259000088880B20C790D3C04EB8404A0401468D8
:1025A000E46A20431468E062194B1A4C1068A04298
:1025B00006D10868122803D1586840F4800058609A
:1025C000144C1068A0421CD10868102802D008687A
:1025D000112816D1586840F4000058600868102887
:1025E0000FD10D4800680D4CB0FBF4F000EB8000FB
:1025F0004000009002E00098401E009000980028E3
:10260000F9D100BF002082F83C0000BF00BF4BE7BB
:1026100000230140002001401C00002040420F0028
:1026200070B5044600250CB9012070BD1549A06A9B
:10263000884200D000BF206C30B9204600F024F85A
:102640000020606484F83C00206C00F0100088B921
:10265000206C20F4885040F0020020642046FEF7F1
:1026600081F900206064206C20F0020040F001003D
:10267000206400E0012500BF002084F83C0000BF7A
:102680002846D2E70100000F10B586B00446142199
:1026900001A8FEF742F81849206888422AD100BFF5
:1026A000002000901548006840F4807013490860CD
:1026B0000846006800F48070009000BF00BF00BFB3
:1026C000002000900D481438006840F002000B49CB
:1026D000143908600846006800F00200009000BF4E
:1026E00000BF0320019002900020039001A904483C
:1026F00000F066FA06B010BD0020014044380240E8
:102700000004024070B50446A56D00F061FB06466A
:1027100094F83500022808D08020606500BF0020B2
:1027200084F8340000BF012070BD2068006820F0EC
:102730001600216808602068406920F08000216848
:102740004861206C08B9A06C28B12068006820F0AE
:102750000800216808602068006820F001002168F6
:10276000086010E000F034FB801B05280BD9202006
:102770006065032084F8350000BF002084F8340031
:1027800000BF0320D0E72068006800F001000028A7
:10279000E8D194F85C103F208840A860012084F8BC
:1027A000350000BF002084F8340000BF00BFBBE745
:1027B000014691F83500022803D0802048650120A9
:1027C0007047052081F835000868006820F0010096
:1027D0000A6810600020F3E7F8B504460020009076
:1027E0008C4800684FF41651B0FBF1F7A56D2E68C8
:1027F00094F85C1008208840304098B12068006848
:1028000000F0040070B12068006820F00400216826
:10281000086094F85C1008208840A860606D40F063
:102820000100606594F85C1001208840304068B178
:102830002068406900F0800040B194F85C100120ED
:102840008840A860606D40F00200606594F85C10FC
:1028500004208840304068B12068006800F0020021
:1028600040B194F85C1004208840A860606D40F08E
:102870000400606594F85C1010208840304078B304
:102880002068006800F0080050B394F85C10102035
:102890008840A8602068006800F4802080B120682B
:1028A000006800F4002028B9206CC8B12046216CD3
:1028B000884715E0A06C98B12046A16C88470FE0CE
:1028C0002068006800F4807028B92068006820F053
:1028D000080021680860206C10B12046216C8847F0
:1028E00094F85C10202088403040002865D0206893
:1028F000006800F0100000285FD094F85C102020E1
:102900008840A86094F83500052828D12068006820
:1029100020F01600216808602068406920F08000DF
:1029200021684861206C08B9A06C28B12068006853
:1029300020F008002168086094F85C103F2088406F
:10294000A860012084F8350000BF002084F834001E
:1029500000BF206D10B12046216D8847F8BD20686A
:10296000006800F4802080B12068006800F4002036
:1029700028B9606C10B12046616C88471DE0E06B9F
:10298000D8B12046E16B884717E02068006800F462
:10299000807068B92068006820F010002168086025
:1029A000012084F8350000BF002084F8340000BF07
:1029B000E06B10B12046E16B8847606D38B3606D05
:1029C00000F00100F0B1052084F8350020680068AF
:1029D00020F001002168086000BF0098401C0090B2
:1029E000B84200D905E02068006800F00100002826
:1029F000F3D100BF012084F8350000BF002084F827
:102A0000340000BFE06C10B12046E16C884700BF85
:102A1000A4E700001C0000202DE9F0410446002539
:102A200000F0D6F9074614B90120BDE8F081606ACC
:102A300000B100BF022084F8350000BF002084F8F8
:102A4000340000BF2068006820F0010021680860A1
:102A50000AE000F0BDF9C01B052805D920206065FB
:102A6000032084F83500E0E72068006800F00100EA
:102A70000028EED12068056821480540D4E901010D
:102A80000843E16808432169084361690843A16973
:102A90000843E1690843216A08430543606A042842
:102AA00003D1D4E90B010843054320680560206881
:102AB000456925F00705606A0543606A04280DD161
:102AC000A06A0543E06A48B12046FEF725FE28B11A
:102AD00040206065012084F83500A6E72068456144
:102AE0002046FEF7FFFD064694F85C103F20884024
:102AF000B06000206065012084F83500002094E774
:102B00003F8010F02DE9F04704460D4616461F465B
:102B10004FF00008D4F8589000BF94F83400012812
:102B200002D10220BDE8F087012084F8340000BF04
:102B300094F83500012825D1022084F835000020C2
:102B400060653B46324629462046FEF73AFE94F839
:102B50005C103F208840C9F808002068006840F0F9
:102B6000160021680860206C28B12068006840F0D9
:102B70000800216808602068006840F001002168B2
:102B8000086006E000BF002084F8340000BF4FF06A
:102B900002084046C6E7000070B5044600F018F988
:102BA00006462546681C10B104480078054400BF5D
:102BB00000F00EF9801BA842FAD370BD1800002067
:102BC000F8B502460B460025002400200021D6E07F
:102BD000012606FA01F51E6806EA0504AC4274D126
:102BE0001E7906F00306012E04D01E7906F00306B6
:102BF000022E13D190684F000326BE40B0434F0011
:102C0000DE68BE4030439060506801268E40B0437D
:102C10001E79C6F300168E40304350601E7906F0D0
:102C20000306032E09D0D0684F000326BE40B043F0
:102C30004F009E68BE403043D0601E7906F0030608
:102C4000022E13D1CF0802F1200656F827004E07B6
:102C5000F70E0F26BE40B0434F07FF0E1E69BE4061
:102C60003043CF0802F1200646F8270010684F00D5
:102C70000326BE40B0431E7906F003064F00BE4057
:102C8000304310605E6806F44036002E76D000BFF8
:102C9000002600963C4E366846F480463A4F3E6029
:102CA0003E46366806F48046009600BF00BF374EA9
:102CB0008F0856F827008E07370F0F26BE40B04307
:102CC000334EB24202D1002624E057E0314EB242E8
:102CD00001D101261EE0304EB24201D1022619E098
:102CE0002E4EB24201D1032614E02D4EB24201D144
:102CF00004260FE02B4EB24201D105260AE02A4EEF
:102D0000B24201D1062605E0284EB24201D1072683
:102D100000E008268F073F0FBE4030431B4E8F0850
:102D200046F82700224E3068A0435E6806F48016FD
:102D300006B120431E4E3060361D3068A0435E68E9
:102D400006F4001606B12043194E361D3060184EA9
:102D5000361F3068A0435E6806F4003606B1204393
:102D6000134E361F3060361F3068A0435E6806F48D
:102D7000803606B120430E4E083E3060491C1029B3
:102D8000FFF426AFF8BD0000443802400838014087
:102D9000000002400004024000080240000C024013
:102DA000001002400014024000180240001C0240C3
:102DB000083C0140024613690B400BB1012000E0C2
:102DC000002070470AB1816101E00B048361704704
:102DD000014800687047000010000020D0F8000390
:102DE00007F07ABBD0F8000307F087BB10B50446A4
:102DF000206809F0E3FB10BD10B50446206809F017
:102E0000E4FB10BD024601EB410000EBC10302F1FF
:102E1000380000EB830090F828007047024601EB71
:102E2000410000EBC10302F1380000EB8300806930
:102E3000704770B504460D46002600BF94F8F802AE
:102E4000012801D1022070BD012084F8F80200BFE2
:102E50002946206809F0CAFB00BF002084F8F80268
:102E600000BF3046EFE72DE9FE4F04460D461646FB
:102E70001F46DDE90D9ADDF8308000BF94F8F802B6
:102E8000012802D10220BDE8FE8F012084F8F8025B
:102E900000BF002105EB450000EBC50204F138003E
:102EA00000EB8200417105EB450000EBC50104F128
:102EB000380000F8217005EB450000EBC50104F176
:102EC000380000EB8100A0F808A005EB450000EBFE
:102ED000C50104F1380000EB8100457005EB4500A9
:102EE00000EBC50104F1380000EB810080F8079089
:102EF00006F07F0105EB450000EBC50204F1380048
:102F000000EB8200817006F0800080280AD1012148
:102F100005EB450000EBC50204F1380000EB820030
:102F2000C17009E0002105EB450000EBC50204F18A
:102F3000380000EB8200C17005EB450000EBC501D5
:102F400004F1380000EB810080F804808DE8000770
:102F50003B4632462946206809F001FC834600BF03
:102F6000002084F8F80200BF58468CE7D0F8000330
:102F700007F076BB2DE9F05F04460D4616461F4666
:102F8000DDE90C9BDDE90A8A05EB450000EBC50194
:102F900004F1380000EB8100C67005EB450000EB42
:102FA000C50104F1380000EB8100C771B8F1000FD2
:102FB00014D1032105EB450000EBC50204F13800F4
:102FC00000EB8200817205EB450000EBC50104F1C6
:102FD000380000EB810080F805B009E0022105EB24
:102FE000450000EBC50204F1380000EB820081725D
:102FF00037B1012F76D0022F33D0032F73D173E076
:10300000B8F1010F2CD106BBB9F1000F09D1012194
:1030100005EB450000EBC50204F1380000EB82002F
:10302000417705EB450000EBC50104F1380000EBEA
:103030008100407F50B9002105EB450000EBC5023F
:1030400004F1380000EB8200817209E0022105EBF7
:10305000450000EBC50204F1380000EB82008172EC
:103060008FE0FEB905EB450000EBC50104F1380027
:1030700000EB8100407F50B9002105EB450000EBDB
:10308000C50204F1380000EB8200817229E00221C0
:1030900005EB450000EBC50204F1380000EB8200AF
:1030A00081721EE005EB450000EBC50104F138001C
:1030B00000EB8100007F50B9002105EB450000EBDB
:1030C000C50204F1380000EB8200817209E00221A0
:1030D00005EB450000EBC50204F1380000EB82006F
:1030E00081724EE041E04BE0FEB905EB450000EB9C
:1030F000C50104F1380000EB8100407F50B9002188
:1031000005EB450000EBC50204F1380000EB82003E
:10311000817229E0022105EB450000EBC50204F1B4
:10312000380000EB820081721EE005EB450000EBE9
:10313000C50104F1380000EB8100007F50B9002187
:1031400005EB450000EBC50204F1380000EB8200FE
:10315000817209E0022105EB450000EBC50204F194
:10316000380000EB820081720BE0002105EB450086
:1031700000EBC50204F1380000EB8200817200E030
:1031800000BF00BF05EB450000EBC50104F13800AE
:1031900000EB8100C0F80CA005EB450000EBC50179
:1031A00004F1380000EB8100C0F81490002105EB19
:1031B000450000EBC50204F1380000EB820080F806
:1031C000281005EB450000EBC50204F1380000EBC8
:1031D0008200816105EB450000EBC50104F1380078
:1031E00000EB81004570002105EB450000EBC502B6
:1031F00004F1380000EB820080F82910227C05EBF6
:10320000450303EBC50C04F1380303EB8C01206884
:1032100009F08EFBBDE8F09F2DE9F04104462768D8
:10322000B846206809F0DDF901287DD1206809F051
:1032300007FD08B9BDE8F081206809F001FD00F440
:103240000010B0F5001F03D14FF400102168486151
:10325000206809F0F5FC00F48010B0F5801F03D160
:103260004FF4801021684861206809F0E9FC00F003
:103270008060B0F1806F03D14FF0806021684861B9
:10328000206809F0DDFC00F00200022801D121686D
:103290004861206809F0D4FC00F00050B0F1005FF4
:1032A00016D14FF0005021684861D8F8400400F072
:1032B000010068B91021384609F054F9384609F080
:1032C00027F90121206809F099FC2046FFF78AFDC3
:1032D000206809F0B5FC00F08070B0F1807F02D169
:1032E000204602F0BFFF206809F0AAFC00F00800A9
:1032F000082805D1204600F011F90820216848610E
:10330000206809F09DFCC0F3001080B1206880693E
:1033100020F0100021688861204602F0FEFF20683E
:10332000806940F0100000E030E02168886120688A
:1033300009F086FC00F00070B0F1007F26D1206813
:1033400009F0EEFA0646002519E005F00F0101200C
:103350008840304090B108F5A06000EB451000684F
:1033600000F40040B0F5004F04D1E9B2204602F06D
:1033700038F903E0E9B2204602F041FC6D1CA06878
:10338000A842E2D84FF000702168486100BF51E7C1
:1033900030B58BB0044614B901200BB030BD2568A0
:1033A00094F8F90228B9002084F8F802204600F0C9
:1033B00029F8032084F8F902E86B00F4807008B95A
:1033C00000212161206809F04DF8282204F1100144
:1033D0006846FDF74EF994E80F0008F0D5FF01218B
:1033E000206809F001FE282204F110016846FDF76B
:1033F00040F994E80F0009F083FB012084F8F902FA
:103400000020CAE710B586B0002101910291039116
:10341000049105910068354C02220321B0F1A04FC0
:1034200038D0A0F18043B3F5802331D1206840F03B
:1034300002002060206800F00200009088030190E4
:10344000029204910C20059001A92948FFF7B8FBCE
:10345000206840F000502060206800F0005000908C
:10346000002205214A2000F0A5FC4A2000F092FC31
:10347000002205214B2000F09DFC4B2000F08AFC2F
:10348000002205214D2000F095FC4D2000F082FC2B
:1034900006B010BD206840F001002060206800F0F8
:1034A000010000904FF4C0500190029204910A2054
:1034B000059001A90F48FFF783FB0F48016841F011
:1034C000800101600D48016841F48041016000689D
:1034D00000F48040009000220521432000F06AFCA7
:1034E000432000F057FC06B010BD00003038024009
:1034F00000040240000002403438024044380240D8
:10350000D0F8000307F0CAB8D0F8000307F0CAB833
:1035100010B50446206809F0C8FB10BDD0F80003C0
:1035200007F04AB810B5044600BF94F8F802012825
:1035300001D1022010BD012084F8F80200BF012152
:10354000206808F0B9FF206808F0DBFF00BF00200A
:1035500084F8F80200BF00BFECE710B5044600BFD6
:1035600094F8F802012801D1022010BD012084F84E
:10357000F80200BF206809F06BFD00BF002084F84E
:10358000F80200BF00BFF0E770B504460CB9012097
:1035900070BD94F83D0028B9002084F83C00204616
:1035A00000F006FB242084F83D002068006820F02D
:1035B0000100216808602068006840F4004021682C
:1035C00008602068006820F400402168086000F06E
:1035D0004FFD05465C496068884206D85B488542D5
:1035E00001D2012007E0002005E05948854201D2C0
:1035F000012000E00020012800D1C9E75548B5FBB3
:10360000F0F62068406820F03F00304321684860B1
:103610004D496068884201D8701C07E04FF49670ED
:1036200070434FF47A71B0FBF1F0401C2168096AD5
:1036300021F03F01084321680862434960688842DD
:1036400014D8681E61684900B0FBF1F0401CC0F35B
:103650000B00042801D204203DE0681E6168490087
:10366000B0FBF1F0401CC0F30B0034E0A06838B9A7
:10367000681E616801EB4101B0FBF1F0401C0AE0FB
:10368000681E616801EBC10202EB0111B0FBF1F0B1
:10369000401C40F48040C0F30B0008B901201AE040
:1036A000A06848B9681E616801EB4101B0FBF1F008
:1036B000401CC0F30B000CE0681E616801EBC10206
:1036C00002EB0111B0FBF1F0401CC0F30B0040F421
:1036D000804040F400402168C9694CF6FF72914374
:1036E00008432168C861D4E90701084321680968D3
:1036F00021F0C001084321680860D4E903100843A1
:103700002168896848F2FF32914308432168886044
:10371000D4E9050108432168C96821F0FF01084385
:103720002168C8602068006840F0010021680860D6
:1037300000202064202084F83D000020206384F8CD
:103740003E0000BF24E70000A086010080841E0028
:1037500000093D0040420F002DE9FC5F04460F4682
:1037600090469946DDE90CAB0E9EFFF731FB05460E
:1037700094F83D00202870D119230122B049204639
:10378000009502F0FBFF10B10220BDE8FC9F00BFD6
:1037900094F83C00012801D10220F6E7012084F8CA
:1037A0003C0000BF2068006800F0010028B92068D4
:1037B000006840F00100216808602068006820F47B
:1037C000006021680860222084F83D00402084F8D1
:1037D0003E0000202064C4F824A0A4F82AB0608D24
:1037E00020859848E0624B46424639462046CDE95E
:1037F000006502F075FE08B10120C6E7208D88B98A
:1038000000BF002001902068406901902068806915
:10381000019000BF00BF2068006840F4007021687C
:10382000086040E0208D012818D12068006820F44D
:1038300080602168086000BF002001902068406916
:10384000019020688069019000BF00BF2068006877
:1038500040F400702168086025E0EFE0208D022828
:1038600016D12068006820F4806021680860206814
:10387000006840F400602168086000BF00200190EB
:1038800020684069019020688069019000BF0AE0CB
:1038900000BF002001902068406901902068806985
:1038A000019000BF00BFBAE0208D03287ED8208D94
:1038B000012815D12A463146204603F004F808B104
:1038C000012062E720680069616A0870606A401C34
:1038D0006062208D401E2085608D401E60859EE0C8
:1038E000208D02282AD133460022574920460095D0
:1038F00002F044FF08B1012047E72068006840F467
:1039000000702168086020680069616A0870606A58
:10391000401C6062208D401E2085608D401E6085A9
:1039200020680069616A0870606A401C6062208DCE
:10393000401E2085608D401E608570E03346002269
:1039400041492046009502F019FF08B101201CE70B
:103950002068006820F480602168086020680069A1
:10396000616A0870606A401C6062208D401E20857C
:10397000608D401E60853346002233492046009505
:1039800002F0FCFE08B10120FFE62068006840F468
:1039900000702168086020680069616A0870606AC8
:1039A000401C6062208D401E208500E010E0608D8C
:1039B000401E608520680069616A0870606A401C6A
:1039C0006062208D401E2085608D401E608526E04F
:1039D0002A463146204602F076FF08B10120D4E69F
:1039E00020680069616A0870606A401C6062208D0E
:1039F000401E2085608D401E608520684069C0F3B0
:103A0000800060B120680069616A0870606A401CCB
:103A10006062208D401E2085608D401E6085208D57
:103A200000287FF441AF202084F83D00002084F876
:103A30003E0000BF84F83C0000BFA6E60220A4E6DA
:103A4000020010000000FFFF040001002DE9FC5FF0
:103A500004460F4690469946DDE90CAB0E9EFFF7F3
:103A6000B7F9054694F83D0020287DD1192301229D
:103A70004D492046009502F081FE10B10220BDE8BC
:103A8000FC9F00BF94F83C00012801D10220F6E71A
:103A9000012084F83C0000BF2068006800F00100AD
:103AA00028B92068006840F001002168086020689B
:103AB000006820F4006021680860212084F83D003F
:103AC000402084F83E0000202064C4F824A0A4F81C
:103AD0002AB0608D20853548E0624B464246394623
:103AE0002046CDE9006502F0ABFD08B10120C6E734
:103AF00031E02A463146204602F025FF50B1206CC5
:103B0000042805D12068006840F40070216808602E
:103B10000120B4E7606A007821680861606A401C8F
:103B20006062208D401E2085608D401E608520686B
:103B30004069C0F3800070B1208D60B1606A007888
:103B400021680861606A401C6062208D401E2085EB
:103B5000608D401E6085208D0028CAD12A463146DE
:103B6000204602F0DDFD00E01CE050B1206C04288E
:103B700005D12068006840F40070216808600120C9
:103B80007DE72068006840F400702168086020200C
:103B900084F83D00002084F83E0000BF84F83C001B
:103BA00000BF6CE702206AE7020010000000FFFF80
:103BB00010B586B00446142101A8FCF7AEFD1B49E0
:103BC0002068884230D100BF00200090184800686B
:103BD00040F00200164908600846006800F0020044
:103BE000009000BF00BF4FF440700190122002907F
:103BF00000200390032004900420059001A90D48A3
:103C0000FEF7DEFF00BF002000900948103000687A
:103C100040F400100649103108600846006800F4BE
:103C20000010009000BF00BF06B010BD005400405F
:103C30003038024000040240034800680349097814
:103C40000844014908607047100000201800002057
:103C500010B50D48006840F400700B490860084634
:103C6000006840F4806008600846006840F4807096
:103C70000860032000F0DCF80F2000F007F800F0E7
:103C80005FF8002010BD0000003C02402DE9F0412B
:103C900088B004460027B84600BF002001902348A2
:103CA000006840F01000214908600846006800F0F4
:103CB0001000019000BF00BF02A903A800F0B0F9F6
:103CC000069F1FB900F0D4F9054602E000F0D0F9D4
:103CD00045001748B5FBF0F0A0F10108154816495A
:103CE000086040F2E7311448C160C0F80480002148
:103CF00001618160816100F0DDFC064696B90E48E5
:103D000000F026FD06466EB9362000F043F8102C70
:103D100007D200222146362000F04CF80748046004
:103D200000E00126304608B0BDE8F081403802408E
:103D300040420F0000100040D488002014000020F2
:103D400008B500BF002000901148006840F4804092
:103D50000F4908600846006800F48040009000BFEA
:103D600000BF00BF00200090081F006840F0805096
:103D7000091F08600846006800F08050009000BFEE
:103D800000BF00220F21901E00F014F808BD0000B3
:103D90004438024001460846002809DB00F01F03B2
:103DA00001229A4043099B0003F1E023C3F800215C
:103DB00000BF70472DE9F05F80460D46164600278C
:103DC00009F060FB074639462A46334601F00700F2
:103DD000C0F1070ABAF1040F02D94FF0040A01E05A
:103DE000C0F1070AD14600F1040ABAF1070F02D266
:103DF0004FF0000A01E0A0F1030AD4464FF0010A97
:103E00000AFA09FAAAF1010A0AEA020A0AFA0CFAFB
:103E10004FF0010B0BFA0CFBABF1010B0BEA030BA0
:103E20004AEA0B042146404609F034FBBDE8F09F06
:103E300000BF00F00702064B19684FF6FF03194058
:103E4000044B0B4343EA0221014B196000BF70474A
:103E50000CED00E00000FA0500BF00BF00BF00BF8E
:103E600000BFBFF34F8F00BF00BF00BF094800680D
:103E700000F4E06008490843001D0649086000BFDF
:103E800000BF00BFBFF34F8F00BF00BF00BF00BF28
:103E900000BFFDE70CED00E00000FA0570B5044638
:103EA0000D460CB9012070BD5848006800F00700AD
:103EB000A84209D255490D700846006800F0070075
:103EC000A84201D00120EEE7207800F0020002288D
:103ED0001DD1207800F00400042805D14C4800686A
:103EE00040F4E0504A490860207800F008000828B3
:103EF00005D14748006840F460404549086044489F
:103F0000006820F0F000A16808434149086020786B
:103F100000F00100A8B36068012807D13C480838C8
:103F20000068C0F34040B8B90120BCE760680228CF
:103F300002D06068032807D1354808380068C0F30C
:103F4000406048B90120AEE7314808380068C0F346
:103F5000400008B90120A6E72D48006820F00300C2
:103F6000616808432A490860FEF732FF064609E007
:103F7000FEF72EFF801B41F28831884202D90320D0
:103F800091E707E02248006800F00C006168B0EBA0
:103F9000810FEDD11D48006800F00700A84209D943
:103FA0001A490D700846006800F00700A84201D0C9
:103FB000012078E7207800F00400042807D1144895
:103FC000006820F4E050E168084311490860207857
:103FD00000F00800082808D10D48006820F460406F
:103FE000216940EAC1000A49086000F061F8084907
:103FF0000968C1F30311074A515CC84006490860CB
:1040000006480068FFF742FE00204CE7003C0240F3
:1040100008380240C46601081C000020140000207B
:104020000F2202600D4A126802F0030242600B4A3E
:10403000126802F0F0028260084A126802F4E0524C
:10404000C260064A126802F46042D2080261044A61
:10405000126802F007020A60704700000838024048
:10406000003C024001480068704700001C0000202E
:1040700000B5FFF7F7FF04490968C1F38221034A3D
:10408000515CC84000BD000008380240D4660108F9
:1040900000B5FFF7E7FF04490968C1F34231034A5D
:1040A000515CC84000BD000008380240D4660108D9
:1040B0002DE9F047002400250026A1462548006888
:1040C00000F00C0020B1042805D008283AD105E002
:1040D000DFF8849039E0DFF8849036E01D48001F57
:1040E000006800F03F041B48001F006800F48000D7
:1040F00078B11A481749091F0968C1F38811A0FB54
:1041000001700146224600233846FCF787F9054630
:104110000EE011480F49091F0968C1F38811A0FB7F
:1041200001700146224600233846FCF777F9054620
:104130000848001F0068C0F30140401C4600B5FB62
:10414000F6F902E0DFF8109000BF00BF4846BDE876
:10415000F0870000083802400024F40040787D0118
:10416000F8B504460CB90120F8BD207800F0010034
:10417000002874D0F948006800F00C0004280DD025
:10418000F648006800F00C00082813D1F348001F1F
:10419000006800F48000B0F5800F0BD1EF480838BC
:1041A0000068C0F34040002859D06068002856D10C
:1041B0000120D9E700BF6068B0F5803F08D1E7482B
:1041C0000838006840F48030E449083908601EE08F
:1041D0006068B0F5A02F0DD1E0480838006840F4C1
:1041E0008020DE49083908600846006840F48030C5
:1041F00008600CE0D9480838006820F48030D749BE
:10420000083908600846006820F48020086000BF74
:10421000606890B1FEF7DCFD054606E0FEF7D8FDCC
:10422000401B642801D903209EE7CC480838006869
:10423000C0F340400028F1D011E0FEF7C9FD05466B
:1042400006E0FEF7C5FD401B642801D903208BE77B
:10425000C24808380068C0F340400028F1D12078F7
:1042600000F0020002285FD1BC48006800F00C009A
:1042700058B1BA48006800F00C0008281CD1B748B3
:10428000001F006800F48000B0B9B4480838006826
:10429000C0F3400020B1E068012801D0012063E7AD
:1042A000AE480838006820F0F800216940EAC100F3
:1042B000AA490839086037E0E06800B30120A8493E
:1042C0000860FEF785FD054606E0FEF781FD401B10
:1042D000022801D9032047E7A04808380068C0F346
:1042E00040000028F1D09D480838006820F0F80010
:1042F000216940EAC10099490839086014E00020AA
:1043000097490860FEF764FD054606E0FEF760FD8C
:10431000401B022801D9032026E79048083800688E
:10432000C0F340000028F1D1207800F008000828F0
:104330002CD16069A8B101208A490860FEF748FDC8
:10434000054606E0FEF744FD401B022801D9032084
:104350000AE782486C300068C0F340000028F1D0C2
:1043600014E000207F490860FEF732FD054606E0B4
:10437000FEF72EFD401B022801D90320F4E6774802
:104380006C300068C0F340000028F1D1207800F0C4
:104390000400042870D1002770483830006800F00D
:1043A000805090B900BF002000906C483830006801
:1043B00040F080506949383108600846006800F0D4
:1043C0008050009000BF00BF01276748006800F4DC
:1043D0008070B0B96448006840F480706249086039
:1043E000FEF7F6FC054606E0FEF7F2FC401B02284D
:1043F00001D90320B8E65C48006800F4807000280A
:10440000F2D000BFA068012808D154486830006885
:1044100040F001005149683108601DE0A06805289E
:104420000DD14E486830006840F004004B496831B7
:1044300008600846006840F0010008600CE047484A
:104440006830006820F0010044496831086008467F
:10445000006820F00400086000BFA068A8B1FEF763
:10446000B7FC054609E0FEF7B3FC401B41F288317A
:10447000884202D9032077E626E038486830006891
:10448000C0F340000028EED013E0FEF7A1FC054683
:1044900008E0FEF79DFC401B41F28831884201D9BB
:1044A000032061E62D4868300068C0F34000002812
:1044B000EFD1012F07D129483830006820F0805013
:1044C00026493831086000BFA069002845D023483C
:1044D000006800F00C0008285DD0A069022845D1D2
:1044E00000201F490866FEF773FC054606E0FEF74C
:1044F0006FFC401B022801D9032035E61748083815
:104500000068C0F340600028F1D1D4E907010843F6
:10451000616A40EA81110122A06AC2EB500041EABF
:1045200000412C20005D41EA00600C49091F086031
:1045300001200B490866FEF74BFC054606E0FEF736
:1045400047FC401B022801D903200DE60348083828
:104550000068C0F340600028F1D049E0083802400C
:1045600000004742800E4742007000400020214971
:104570000866FEF72DFC054606E0FEF729FC401B09
:10458000022801D90320EFE51B480068C0F3406012
:104590000028F2D12CE0A069012800D1E4E51648FA
:1045A000001D0668A069012820D006F48001E0699A
:1045B00081421BD106F03F01206A814216D147F6A5
:1045C000C0703040616AB0EB811F0FD106F44031FA
:1045D0000122A06AC2EB5000B1EB004F06D106F0F9
:1045E00070612C20005DB1EB006F01D00120BBE5B4
:1045F0000020B9E50000474200380240704770478C
:1046000030B502460B4600BF92F83C00012801D1AC
:10461000022030BD012082F83C0000BF022082F859
:104620003D00106844681068816824F070041868C0
:10463000044310684460184D1068A8421BD01068ED
:10464000B0F1804F17D0154D1068A84213D0144D0B
:104650001068A8420FD0134D1068A8420BD0124D1D
:104660001068A84207D0114D1068A84203D0104D21
:104670001068A84205D121F08001586801431068F4
:104680008160012082F83D0000BF002082F83C00DC
:1046900000BF00BFBDE70000000001400004004073
:1046A00000080040000C00400004014000400140B0
:1046B0000018004010B504460CB9012010BD94F854
:1046C0003D0028B9002084F83C00204600F026F880
:1046D000022084F83D00211D206804F067FB0120C2
:1046E00084F8460000BF84F83E0001213F200155B8
:1046F000402001554120015500BF00BF012084F832
:10470000420043200155442001554520015500BF7A
:10471000012084F83D000020D0E7000008B50A4AD7
:10472000016891420FD100BF00210091074909683B
:1047300041F02001054A11601146096801F020018D
:10474000009100BF00BF08BD001400404038024087
:10475000014691F83D00012801D001207047022058
:1047600081F83D000868C06840F001000B68D8601F
:104770001A4B086898421BD00868B0F1804F17D0D8
:10478000174B0868984213D0164B086898420FD010
:10479000154B086898420BD0144B0868984207D014
:1047A000134B0868984203D0124B086898420CD10A
:1047B0000868806800F00702062A0CD008680068C4
:1047C00040F001000B68186005E00868006840F0E0
:1047D00001000B6818600020C0E7000000000140E5
:1047E0000004004000080040000C004000040140AC
:1047F0000040014000180040704710B50446206892
:104800000069C0F34000D8B12068C068C0F3400020
:10481000B0B16FF0020021680861012020772068A4
:10482000806900F0030018B12046FFF7E5FF05E0BE
:10483000204600F0ADF8204600F0ABF800202077CD
:1048400020680069C0F38000D8B12068C068C0F358
:104850008000B0B16FF00400216808610220207769
:104860002068806900F4407018B12046FFF7C4FF4B
:1048700005E0204600F08CF8204600F08AF8002081
:10488000207720680069C0F3C000D8B12068C068F4
:10489000C0F3C000B0B16FF00800216808610420C7
:1048A00020772068C06900F0030018B12046FFF7A8
:1048B000A3FF05E0204600F06BF8204600F069F801
:1048C0000020207720680069C0F30010D8B120686C
:1048D000C068C0F30010B0B16FF01000216808612B
:1048E000082020772068C06900F4407018B1204685
:1048F000FFF782FF05E0204600F04AF8204600F06E
:1049000048F8002020772068006900F0010058B1C5
:104910002068C06800F0010030B16FF0010021682C
:104920000861204600F036F820680069C0F3C01026
:1049300058B12068C068C0F3C01030B16FF080007B
:10494000216808612046FFF759FE20680069C0F31E
:10495000801058B12068C068C0F3801030B16FF08B
:10496000400021680861204600F020F820680069B6
:10497000C0F3401058B12068C068C0F3401030B197
:104980006FF02000216808612046FFF738FE10BD57
:104990007047704710B5044603492068884201D12A
:1049A000FFF74AF910BD0000001000407047704743
:1049B00070B50446002520684069C0F3C01594F81E
:1049C0003D00212817D1B5B100BF00BF21681431C7
:1049D00051E8001F21F080002168143141E80002F5
:1049E000002AF3D100BF606B10B1606BFDF78AFE47
:1049F000204604F06EFB20684069C0F3801594F8EF
:104A00003E00222817D1B5B100BF00BF2168143184
:104A100051E8001F21F040002168143141E80002F4
:104A2000002AF3D100BFA06B10B1A06BFDF76AFEA6
:104A3000204604F008FB002070BD70472DE9F84FB8
:104A40000446206805682068C668206847694FF0FA
:104A50000009CA4605F00F09B9F1000F0AD105F0A7
:104A6000200038B106F0200020B1204604F044FBBD
:104A7000BDE8F88FB9F1000F7CD007F0010018B93C
:104A800006F49070002875D005F0010030B106F4EE
:104A9000807018B1206C40F00100206405F0040023
:104AA00030B107F0010018B1206C40F00200206422
:104AB00005F0020030B107F0010018B1206C40F0A1
:104AC0000400206405F0080048B106F0200010B989
:104AD00007F0010018B1206C40F008002064206C41
:104AE000002846D005F0200028B106F0200010B1C3
:104AF000204604F001FB20684069C0F3801A206C56
:104B000000F0080010B9BAF1000F2DD0204604F0D3
:104B10009AFA2068406900F04000402820D100BF88
:104B200000BF2168143151E8001F21F040002168C6
:104B3000143141E80002002AF3D100BFA06B50B14C
:104B40007548A16B0865A06BFDF732FE88B1A06BBC
:104B5000016D88470DE02046FFF76FFF09E009E08F
:104B60002046FFF76AFF04E02046FFF766FF0020BB
:104B700020647DE7206B012876D105F01000002825
:104B800072D006F010000028FAD000BF002000907C
:104B900020680068009020684068009000BF00BF57
:104BA0002068406900F0400040285ED1A06B00689A
:104BB00040681FFA80F8B8F1000F54D0A08D40452E
:104BC00051DDA4F82E80A06BC069B0F5807F43D082
:104BD00000BF00BF21680C3151E8001F21F4807034
:104BE00021680C3141E80002002AF3D100BF00BF68
:104BF00000BF2168143151E8001F21F00100216835
:104C0000143141E80002002AF3D100BF00BF00BF09
:104C10002168143151E8001F21F04000216814314F
:104C200041E80002002AF3D100BF202084F83E00B2
:104C30000020206300BF00BF21680C3151E8001F35
:104C400021F0100021680C3141E80002002AF3D164
:104C500000BFA06BFDF756FDA08DE28D801A81B2DA
:104C60002046FFF7A4FE03E740E0A08DE18D401A47
:104C70001FFA80F8E08DC0B3B8F1000F35D000BF47
:104C800000BF21680C3151E8001F21F490702168A9
:104C90000C3141E80002002AF3D100BF00BF00BF81
:104CA0002168143151E8001F21F0010021681431FE
:104CB00041E80002002AF3D100BF202084F83E0022
:104CC0000020206300BF00BF21680C3151E8001FA5
:104CD00021F0100021680C3141E80002002AF3D1D4
:104CE00000BF41462046FFF762FEC1E605F08000A6
:104CF00030B106F0800018B1204604F01CFCB7E685
:104D000005F0400030B106F0400018B1204604F034
:104D1000D0F9ADE600BFABE6AD8E000810B5044695
:104D20000CB9012010BDA06900B100E000BF94F8EB
:104D30003D0028B9002084F83C00204600F028F807
:104D4000242084F83D002068C06820F400502168C9
:104D5000C860204604F04CFA2068006920F49040B6
:104D6000216808612068406920F02A0021684861B4
:104D70002068C06840F400502168C86000202064AA
:104D8000202084F83D0084F83E000020CAE700009F
:104D900010B586B00446142101A8FBF7BEFCFE49FD
:104DA0002068884278D100BF00200090FB4800684E
:104DB00040F40020F94908600846006800F400202B
:104DC000009000BF00BF00BF00200090F3481038E3
:104DD000006840F00400F149103908600846006896
:104DE00000F00400009000BF00BF4FF4406001904D
:104DF00002200290002003900320049008200590D8
:104E000001A9E748FDF7DCFEE648E74908604005F0
:104E100048600021E4488160C1604FF48061016115
:104E20000021416181614FF48071C1610021016203
:104E30004162FDF7F1FD08B1FDF7C8F800BFDA489F
:104E4000A063846300BFD7483030D84908604FF072
:104E5000006048604021D54881600021C1604FF466
:104E600080610161002141618161C1610162416232
:104E7000FDF7D2FD08B1FDF7A9F800BFCB4860638C
:104E8000846300BF002205213420FEF793FF342005
:104E9000FEF780FFB8E2FFE7C549206888427DD170
:104EA00000BF00200090BD48006840F48010BB495E
:104EB00008600846006800F48010009000BF00BF42
:104EC00000BF00200090B5481038006840F0040092
:104ED000B249103908600846006800F004000090EC
:104EE00000BF00BF00BF002000900846006840F0EF
:104EF000080008600846006800F00800009000BF45
:104F000000BF88140190022002900020039003202B
:104F100004900820059001A9A148FDF751FE042046
:104F200001900220029000200390032004900820AA
:104F3000059001A99F48FDF743FE9A4830389E49E5
:104F40000860C005486000219B488160C1604FF443
:104F5000806101610021416181614FF48071C16113
:104F6000002101624162FDF757FD08B1FDF72EF8FF
:104F700000BF9148A063846300BF8A4878308F499E
:104F800008604FF00060486040218C48816000213B
:104F9000C1604FF480610161002100E017E04161D0
:104FA0008161C16101624162FDF736FD08B1FDF723
:104FB0000DF800BF81486063846300BF00220521B3
:104FC0003520FEF7F7FE3520FEF7E4FE1CE27C49B3
:104FD000206888427AD100BF002000906F48001DF1
:104FE000006840F010006D49091D0860084600681F
:104FF00000F01000009000BF00BF00BF0020009034
:1050000066481038006840F00200644910390860B2
:105010000846006800F00200009000BF00BFC020FA
:1050200001900220029000200390032004900720AA
:10503000059001A96348FDF7C3FD63486349086013
:105040004FF000604860002160488160C1604FF40B
:10505000806101610021416181614FF48071C16112
:10506000002101624162FDF7D7FC08B1FCF7AEFFF9
:1050700000BF5648A063846300BF5348783054494A
:1050800008604FF000604860402151488160002175
:10509000C1604FF480610161002141618161C161A2
:1050A00001624162FDF7B8FC08B1FCF78FFF00BF59
:1050B00047486063846300BF002205212520FEF776
:1050C00079FE2520FEF766FE9EE1FFE74149206854
:1050D00088425FD100BF002000903048006840F453
:1050E00000302E4908600846006800F40030009047
:1050F00000BF00BF00BF00200090284810380068A3
:1051000040F008002549103908600846006800F0A2
:105110000800009000BF00BF6020019002200290B4
:1051200000200390032004900720059001A9214846
:10513000FDF746FD1B484830274908604FF00060E6
:105140004860002124488160C1604FF480610161A2
:105150000021416181614FF48071C16100210162D0
:105160004162FDF759FC08B1FCF730FF00BF1A4857
:10517000A063846300BF0B486030184908604FF09B
:10518000006048604021154881600021C1604FF4F3
:10519000806125E03EE00000004C004040380240C5
:1051A000000802404060024054840020B484002083
:1051B00000500040000C024014850020748500203F
:1051C000001001400004024040640240D4850020E9
:1051D000348600200044004094860020F48600209D
:1051E0000161002141618161C16101624162FDF79C
:1051F00013FC08B1FCF7EAFE00BF844860638463D7
:1052000000BF002205212620FEF7D4FD2620FEF750
:10521000C1FDF9E07E492068884279D100BF0020B5
:1052200000907C48006840F480207A490860084675
:10523000006800F48020009000BF00BF00BF002085
:10524000009074481038006840F008007149103927
:1052500008600846006800F00800009000BF00BF2A
:105260004FF4407001900220029000200390032030
:1052700004900720059001A96748FDF7A1FC674845
:10528000674908604FF00060486000216448816011
:10529000C1604FF4806101610021416181614FF47F
:1052A0008071C161002101624162FDF7B5FB08B167
:1052B000FCF78CFE00BF5A48A063846300BF5748C8
:1052C0003030584908604FF0006048604021554830
:1052D00081600021C1604FF4806101610021416162
:1052E0008161C16101624162FDF796FB08B1FCF783
:1052F0006DFE00BF4B486063846300BF0022052140
:105300002720FEF757FD2720FEF744FD7CE0FFE74E
:1053100045492068884277D100BF002000903D4871
:10532000001D006840F020003A49091D0860084649
:10533000006800F02000009000BF00BF00BF002008
:10534000009034481038006840F0040031491039AA
:1053500008600846006800F00400009000BF00BF2D
:10536000C0200190022002900020039003200490AE
:105370000820059001A92D48FDF722FC2C482D4955
:1053800008608005486000212A488160C1604FF4B0
:10539000806101610021416181614FF48071C161CF
:1053A000002101624162FDF737FB08B1FCF70EFEF8
:1053B00000BF2048A063846300BF1D4878301E49A9
:1053C00008604FF02060486040211B488160002148
:1053D000C1604FF480610161002141618161C1615F
:1053E00001624162FDF718FB08B1FCF7EFFD00BF59
:1053F00011486063846300BF002205214720FEF747
:10540000D9FC4720FEF7C6FC06B010BDF48600208C
:105410000048004040380240000C02402860024032
:1054200054870020B4870020001401400008024087
:1054300028640240148800207488002070B5044657
:105440000D46164694F83E00202816D105B10EB937
:10545000012070BD00BF94F83C00012801D102205A
:10546000F7E7012084F83C0000BF002020633246AB
:105470002946204603F0D2FFEBE70220E9E770B5AA
:1054800004460D46164694F83E00202816D105B174
:105490000EB9012070BD00BF94F83C00012801D175
:1054A0000220F7E7012084F83C0000BF00202063C1
:1054B00032462946204604F019F8EBE70220E9E7D6
:1054C00010B504460348844203D101220249FFF784
:1054D000D6FF10BD44830020888200207047000062
:1054E000F7B50446154694F83D00202846D10198AA
:1054F00000B10DB90120FEBD00BF94F83C000128A9
:1055000001D10220F7E7012084F83C0000BF019898
:105510002062A584E58400202064212084F83D00D9
:105520001748616BC8631748616B08641648616B64
:10553000C8640020616B086501AE23681A1D3168DC
:105540002B46606BFDF7DEFA6FF0400021680860C3
:1055500000BF002084F83C0000BF00BF00BF2168EE
:10556000143151E8001F41F080002168143141E8F6
:105570000002002AF3D100BF0020BCE70220BAE7F6
:10558000E18F000839900008C18E000810B504466C
:10559000606B0068006820F00100616B09680860BA
:1055A0000B4920680968884206D10A48007820F033
:1055B0000200084908700AE0074920680968884223
:1055C00005D100224FF480610448FDF7FBFB10BDBC
:1055D00044830020847E0020BC8200200000024022
:1055E00070472DE9F04705468846D5F800904E46AD
:1055F000444606F5A06000EB4410806800F004000B
:10560000042815D1042106F5A06000EB4410816048
:10561000062104EB440000EBC40205F1380000EB66
:10562000820080F82910E1B2286806F0DFFF8EE0E2
:1056300006F5A06000EB4410806800F48070B0F5BF
:10564000807F16D14FF4807106F5A06000EB441006
:105650008160072104EB440000EBC40205F138002F
:1056600000EB820080F82910E1B2286806F0BEFF46
:105670006DE006F5A06000EB4410806800F02000AB
:10568000202806D1202106F5A06000EB441081609F
:105690005DE006F5A06000EB4410806800F00800B3
:1056A000082815D1082106F5A06000EB44108160A0
:1056B000052104EB440000EBC40205F1380000EBC7
:1056C000820080F82910E1B2286806F08FFF3EE0E2
:1056D00006F5A06000EB4410806800F48060B0F52F
:1056E000806F16D14FF4806106F5A06000EB441086
:1056F0008160082104EB440000EBC40205F138008E
:1057000000EB820080F82910E1B2286806F06EFFF5
:105710001DE006F5A06000EB4410806800F08000FA
:10572000802814D1802106F5A06000EB4410816030
:10573000062104EB440000EBC40205F1380000EB45
:10574000820080F82910E1B2286806F04FFF06F5C4
:10575000A06000EB4410806800F40070B0F5007F9A
:105760000BD1E1B2286806F041FF4FF4007106F555
:10577000A06000EB441081603FE206F5A06000EB02
:105780004410806800F0010000287ED02869C8B16C
:1057900004EB440000EBC40105F1380000EB81008C
:1057A000016906F5A06000EB44100069C0F3120027
:1057B000091A04EB440000EBC40205F1380000EBC9
:1057C00082008161012104EB440000EBC40205F179
:1057D000380000EB820080F82910002104EB44001F
:1057E00000EBC40205F1380000EB820041620121A8
:1057F00006F5A06000EB4410816004EB440000EB70
:10580000C40105F1380000EB8100C07950B104EB10
:10581000440000EBC40105F1380000EB8100C079C1
:1058200002280AD1E1B2286806F0E0FE102106F550
:10583000A06000EB441081603CE004EB440000EB0E
:10584000C40105F1380000EB8100C07903280AD0BB
:1058500004EB440000EBC40105F1380000EB8100CB
:10586000C079012826D106F5A06000EB441000683D
:1058700040F0005106F5A06000EB441001600121EA
:1058800004EB440000EBC40200E058E005F13800EE
:1058900000EB820080F8281004EB440000EBC40306
:1058A00005F1380000EB830090F82820E1B228468B
:1058B000FDF75CFB286901282CD104EB440000EBC8
:1058C000C40105F1380000EB8100016904EB4400DC
:1058D00000EBC40205F1380000EB82000089B1FB47
:1058E000F0F000F00100002813D004EB440000EBBE
:1058F000C40105F1380000EB8100007F80F0010158
:1059000004EB440000EBC40205F1380000EB820018
:10591000017772E104EB440000EBC40105F13800AB
:1059200000EB8100007F80F0010104EB440000EBFC
:10593000C40205F1380000EB820001775DE106F555
:10594000A06000EB4410806800F0020002287BD1C8
:1059500004EB440000EBC40105F1380000EB8100CA
:1059600090F8290001280BD1012104EB440000EB41
:10597000C40205F1380000EB820080F82810CEE068
:1059800004EB440000EBC40105F1380000EB81009A
:1059900090F8290005280BD1052104EB440000EB09
:1059A000C40205F1380000EB820080F82810B6E050
:1059B00004EB440000EBC40105F1380000EB81006A
:1059C00090F8290006280BD004EB440000EBC4013A
:1059D00005F1380000EB810090F8290008284ED12D
:1059E00004EB440000EBC40105F1380000EB81003A
:1059F000406A401C04EB440101EBC40205F138018C
:105A000001EB8201486204EB440000EBC40105F1A4
:105A1000380000EB8100406A022816D9002104EB0F
:105A2000440000EBC40205F1380000EB8200416243
:105A3000042104EB440000EBC40205F1380000EB44
:105A4000820080F828106AE07EE0022104EB440026
:105A500000EBC40205F1380000EB820080F828104A
:105A600006F5A06000EB4410076827F0804747F078
:105A7000004706F5A06000EB441007604FE004EB20
:105A8000440000EBC40105F1380000EB810090F800
:105A90002900032819D1022104EB440000EBC402C1
:105AA00005F1380000EB820080F8281006F5A060B0
:105AB00000EB4410076827F0804747F0004706F5E1
:105AC000A06000EB4410076029E004EB440000EB09
:105AD000C40105F1380000EB810090F82900072887
